{
	"data": {
		"bytecode": {
			"linkReferences": {},
			"object": "61016060405234801562000011575f80fd5b506040518060400160405280600981526020017f4e69676761436f696e0000000000000000000000000000000000000000000000815250806040518060400160405280600181526020017f31000000000000000000000000000000000000000000000000000000000000008152506040518060400160405280600981526020017f4e69676761436f696e00000000000000000000000000000000000000000000008152506040518060400160405280600381526020017f4e474300000000000000000000000000000000000000000000000000000000008152508160039081620000fc9190620013a0565b5080600490816200010e9190620013a0565b50505062000131620001256200024160201b60201c565b6200024860201b60201c565b5f600960146101000a81548160ff02191690831515021790555062000161600a836200030b60201b90919060201c565b61012081815250506200017f600b826200030b60201b90919060201c565b6101408181525050818051906020012060e08181525050808051906020012061010081815250504660a08181525050620001be6200036060201b60201c565b608081815250503073ffffffffffffffffffffffffffffffffffffffff1660c08173ffffffffffffffffffffffffffffffffffffffff16815250505050506200023b3362000211620003bc60201b60201c565b600a6200021f91906200160d565b620aa2896200022f91906200165d565b620003c460201b60201c565b62001ccd565b5f33905090565b5f60095f9054906101000a900473ffffffffffffffffffffffffffffffffffffffff1690508160095f6101000a81548173ffffffffffffffffffffffffffffffffffffffff021916908373ffffffffffffffffffffffffffffffffffffffff1602179055508173ffffffffffffffffffffffffffffffffffffffff168173ffffffffffffffffffffffffffffffffffffffff167f8be0079c531659141344cd1fd0a4f28419497f9722a3daafe3b4186f6b6457e060405160405180910390a35050565b5f60208351101562000330576200032883620003da60201b60201c565b90506200035a565b8262000342836200044460201b60201c565b5f019081620003529190620013a0565b5060ff5f1b90505b92915050565b5f7f8b73c3c69bb8fe3d512ecc4cf759cc79239f7b179b0ffacaa9a75d522b39400f60e051610100514630604051602001620003a195949392919062001715565b60405160208183030381529060405280519060200120905090565b5f6012905090565b620003d682826200044d60201b60201c565b5050565b5f80829050601f815111156200042957826040517f305a27a9000000000000000000000000000000000000000000000000000000008152600401620004209190620017fa565b60405180910390fd5b80518162000437906200184b565b5f1c175f1b915050919050565b5f819050919050565b6200045f82826200050660201b60201c565b6200046f6200066b60201b60201c565b7bffffffffffffffffffffffffffffffffffffffffffffffffffffffff166200049d6200068e60201b60201c565b1115620004e1576040517f08c379a0000000000000000000000000000000000000000000000000000000008152600401620004d8906200192e565b60405180910390fd5b6200050060106200069760201b620017e31783620006ae60201b60201c565b50505050565b5f73ffffffffffffffffffffffffffffffffffffffff168273ffffffffffffffffffffffffffffffffffffffff160362000577576040517f08c379a00000000000000000000000000000000000000000000000000000000081526004016200056e906200199c565b60405180910390fd5b6200058a5f8383620009b260201b60201c565b8060025f8282546200059d9190620019bc565b92505081905550805f808473ffffffffffffffffffffffffffffffffffffffff1673ffffffffffffffffffffffffffffffffffffffff1681526020019081526020015f205f82825401925050819055508173ffffffffffffffffffffffffffffffffffffffff165f73ffffffffffffffffffffffffffffffffffffffff167fddf252ad1be2c89b69c2b068fc378daa952ba7f163c4a11628f55a4df523b3ef836040516200064c9190620019f6565b60405180910390a3620006675f8383620009da60201b60201c565b5050565b5f7bffffffffffffffffffffffffffffffffffffffffffffffffffffffff905090565b5f600254905090565b5f8183620006a69190620019bc565b905092915050565b5f805f858054905090505f8082146200077857620006d68760018403620009f260201b60201c565b6040518060400160405290815f82015f9054906101000a900463ffffffff1663ffffffff1663ffffffff1681526020015f820160049054906101000a90047bffffffffffffffffffffffffffffffffffffffffffffffffffffffff167bffffffffffffffffffffffffffffffffffffffffffffffffffffffff167bffffffffffffffffffffffffffffffffffffffffffffffffffffffff1681525050620007b2565b60405180604001604052805f63ffffffff1681526020015f7bffffffffffffffffffffffffffffffffffffffffffffffffffffffff168152505b905080602001517bffffffffffffffffffffffffffffffffffffffffffffffffffffffff169350620007e584868860201c565b92505f821180156200081657506200080262000a0460201b60201c565b65ffffffffffff16815f015163ffffffff16145b1562000898576200082d8362000a1b60201b60201c565b620008428860018503620009f260201b60201c565b5f0160046101000a8154817bffffffffffffffffffffffffffffffffffffffffffffffffffffffff02191690837bffffffffffffffffffffffffffffffffffffffffffffffffffffffff160217905550620009a8565b866040518060400160405280620008cc620008b862000a0460201b60201c565b65ffffffffffff1662000a8860201b60201c565b63ffffffff168152602001620008e88662000a1b60201b60201c565b7bffffffffffffffffffffffffffffffffffffffffffffffffffffffff16815250908060018154018082558091505060019003905f5260205f20015f909190919091505f820151815f015f6101000a81548163ffffffff021916908363ffffffff1602179055506020820151815f0160046101000a8154817bffffffffffffffffffffffffffffffffffffffffffffffffffffffff02191690837bffffffffffffffffffffffffffffffffffffffffffffffffffffffff16021790555050505b5050935093915050565b620009c262000add60201b60201c565b620009d583838362000b3260201b60201c565b505050565b620009ed83838362000c2460201b60201c565b505050565b5f825f528160205f2001905092915050565b5f62000a164362000c6f60201b60201c565b905090565b5f7bffffffffffffffffffffffffffffffffffffffffffffffffffffffff801682111562000a80576040517f08c379a000000000000000000000000000000000000000000000000000000000815260040162000a779062001a85565b60405180910390fd5b819050919050565b5f63ffffffff801682111562000ad5576040517f08c379a000000000000000000000000000000000000000000000000000000000815260040162000acc9062001b19565b60405180910390fd5b819050919050565b62000aed62000cc660201b60201c565b1562000b30576040517f08c379a000000000000000000000000000000000000000000000000000000000815260040162000b279062001b87565b60405180910390fd5b565b62000b4583838362000cdc60201b60201c565b5f73ffffffffffffffffffffffffffffffffffffffff168373ffffffffffffffffffffffffffffffffffffffff160362000ba05762000b8a8262000ce160201b60201c565b62000b9a62000d4260201b60201c565b62000c1f565b5f73ffffffffffffffffffffffffffffffffffffffff168273ffffffffffffffffffffffffffffffffffffffff160362000bfb5762000be58362000ce160201b60201c565b62000bf562000d4260201b60201c565b62000c1e565b62000c0c8362000ce160201b60201c565b62000c1d8262000ce160201b60201c565b5b5b505050565b62000c3783838362000d6660201b60201c565b62000c6a62000c4c8462000d6b60201b60201c565b62000c5d8462000d6b60201b60201c565b8362000dd060201b60201c565b505050565b5f65ffffffffffff801682111562000cbe576040517f08c379a000000000000000000000000000000000000000000000000000000000815260040162000cb59062001c1b565b60405180910390fd5b819050919050565b5f600960149054906101000a900460ff16905090565b505050565b62000d3f60055f8373ffffffffffffffffffffffffffffffffffffffff1673ffffffffffffffffffffffffffffffffffffffff1681526020019081526020015f2062000d338362000fea60201b60201c565b6200102f60201b60201c565b50565b62000d64600662000d586200068e60201b60201c565b6200102f60201b60201c565b565b505050565b5f600e5f8373ffffffffffffffffffffffffffffffffffffffff1673ffffffffffffffffffffffffffffffffffffffff1681526020019081526020015f205f9054906101000a900473ffffffffffffffffffffffffffffffffffffffff169050919050565b8173ffffffffffffffffffffffffffffffffffffffff168373ffffffffffffffffffffffffffffffffffffffff161415801562000e0c57505f81115b1562000fe5575f73ffffffffffffffffffffffffffffffffffffffff168373ffffffffffffffffffffffffffffffffffffffff161462000efb575f8062000ea2600f5f8773ffffffffffffffffffffffffffffffffffffffff1673ffffffffffffffffffffffffffffffffffffffff1681526020019081526020015f20620010b260201b620017f81785620006ae60201b60201c565b915091508473ffffffffffffffffffffffffffffffffffffffff167fdec2bacdd2f05b59de34da9b523dff8be42e5e38e818c82fdb0bae774387a724838360405162000ef092919062001c3b565b60405180910390a250505b5f73ffffffffffffffffffffffffffffffffffffffff168273ffffffffffffffffffffffffffffffffffffffff161462000fe4575f8062000f8b600f5f8673ffffffffffffffffffffffffffffffffffffffff1673ffffffffffffffffffffffffffffffffffffffff1681526020019081526020015f206200069760201b620017e31785620006ae60201b60201c565b915091508373ffffffffffffffffffffffffffffffffffffffff167fdec2bacdd2f05b59de34da9b523dff8be42e5e38e818c82fdb0bae774387a724838360405162000fd992919062001c3b565b60405180910390a250505b5b505050565b5f805f8373ffffffffffffffffffffffffffffffffffffffff1673ffffffffffffffffffffffffffffffffffffffff1681526020019081526020015f20549050919050565b5f62001040620010c960201b60201c565b90508062001056845f01620010e160201b60201c565b1015620010ad57825f0181908060018154018082558091505060019003905f5260205f20015f90919091909150558260010182908060018154018082558091505060019003905f5260205f20015f90919091909150555b505050565b5f8183620010c1919062001c66565b905092915050565b5f620010dc60086200113060201b60201c565b905090565b5f80828054905003620010f7575f90506200112b565b81600183805490506200110b919062001c66565b815481106200111f576200111e62001ca0565b5b905f5260205f20015490505b919050565b5f815f01549050919050565b5f81519050919050565b7f4e487b71000000000000000000000000000000000000000000000000000000005f52604160045260245ffd5b7f4e487b71000000000000000000000000000000000000000000000000000000005f52602260045260245ffd5b5f6002820490506001821680620011b857607f821691505b602082108103620011ce57620011cd62001173565b5b50919050565b5f819050815f5260205f209050919050565b5f6020601f8301049050919050565b5f82821b905092915050565b5f60088302620012327fffffffffffffffffffffffffffffffffffffffffffffffffffffffffffffffff82620011f5565b6200123e8683620011f5565b95508019841693508086168417925050509392505050565b5f819050919050565b5f819050919050565b5f62001288620012826200127c8462001256565b6200125f565b62001256565b9050919050565b5f819050919050565b620012a38362001268565b620012bb620012b2826200128f565b84845462001201565b825550505050565b5f90565b620012d1620012c3565b620012de81848462001298565b505050565b5b818110156200130557620012f95f82620012c7565b600181019050620012e4565b5050565b601f82111562001354576200131e81620011d4565b6200132984620011e6565b8101602085101562001339578190505b620013516200134885620011e6565b830182620012e3565b50505b505050565b5f82821c905092915050565b5f620013765f198460080262001359565b1980831691505092915050565b5f62001390838362001365565b9150826002028217905092915050565b620013ab826200113c565b67ffffffffffffffff811115620013c757620013c662001146565b5b620013d38254620011a0565b620013e082828562001309565b5f60209050601f83116001811462001416575f841562001401578287015190505b6200140d858262001383565b8655506200147c565b601f1984166200142686620011d4565b5f5b828110156200144f5784890151825560018201915060208501945060208101905062001428565b868310156200146f57848901516200146b601f89168262001365565b8355505b6001600288020188555050505b505050505050565b7f4e487b71000000000000000000000000000000000000000000000000000000005f52601160045260245ffd5b5f8160011c9050919050565b5f808291508390505b60018511156200150e57808604811115620014e657620014e562001484565b5b6001851615620014f65780820291505b80810290506200150685620014b1565b9450620014c6565b94509492505050565b5f82620015285760019050620015fa565b8162001537575f9050620015fa565b81600181146200155057600281146200155b5762001591565b6001915050620015fa565b60ff84111562001570576200156f62001484565b5b8360020a9150848211156200158a576200158962001484565b5b50620015fa565b5060208310610133831016604e8410600b8410161715620015cb5782820a905083811115620015c557620015c462001484565b5b620015fa565b620015da8484846001620014bd565b92509050818404811115620015f457620015f362001484565b5b81810290505b9392505050565b5f60ff82169050919050565b5f620016198262001256565b9150620016268362001601565b9250620016557fffffffffffffffffffffffffffffffffffffffffffffffffffffffffffffffff848462001517565b905092915050565b5f620016698262001256565b9150620016768362001256565b9250828202620016868162001256565b91508282048414831517620016a0576200169f62001484565b5b5092915050565b5f819050919050565b620016bb81620016a7565b82525050565b620016cc8162001256565b82525050565b5f73ffffffffffffffffffffffffffffffffffffffff82169050919050565b5f620016fd82620016d2565b9050919050565b6200170f81620016f1565b82525050565b5f60a0820190506200172a5f830188620016b0565b620017396020830187620016b0565b620017486040830186620016b0565b620017576060830185620016c1565b62001766608083018462001704565b9695505050505050565b5f82825260208201905092915050565b5f5b838110156200179f57808201518184015260208101905062001782565b5f8484015250505050565b5f601f19601f8301169050919050565b5f620017c6826200113c565b620017d2818562001770565b9350620017e481856020860162001780565b620017ef81620017aa565b840191505092915050565b5f6020820190508181035f830152620018148184620017ba565b905092915050565b5f81519050919050565b5f819050602082019050919050565b5f620018428251620016a7565b80915050919050565b5f62001857826200181c565b82620018638462001826565b9050620018708162001835565b92506020821015620018b357620018ae7fffffffffffffffffffffffffffffffffffffffffffffffffffffffffffffffff83602003600802620011f5565b831692505b5050919050565b7f4552433230566f7465733a20746f74616c20737570706c79207269736b73206f5f8201527f766572666c6f77696e6720766f74657300000000000000000000000000000000602082015250565b5f6200191660308362001770565b91506200192382620018ba565b604082019050919050565b5f6020820190508181035f830152620019478162001908565b9050919050565b7f45524332303a206d696e7420746f20746865207a65726f2061646472657373005f82015250565b5f62001984601f8362001770565b915062001991826200194e565b602082019050919050565b5f6020820190508181035f830152620019b58162001976565b9050919050565b5f620019c88262001256565b9150620019d58362001256565b9250828201905080821115620019f057620019ef62001484565b5b92915050565b5f60208201905062001a0b5f830184620016c1565b92915050565b7f53616665436173743a2076616c756520646f65736e27742066697420696e20325f8201527f3234206269747300000000000000000000000000000000000000000000000000602082015250565b5f62001a6d60278362001770565b915062001a7a8262001a11565b604082019050919050565b5f6020820190508181035f83015262001a9e8162001a5f565b9050919050565b7f53616665436173743a2076616c756520646f65736e27742066697420696e20335f8201527f3220626974730000000000000000000000000000000000000000000000000000602082015250565b5f62001b0160268362001770565b915062001b0e8262001aa5565b604082019050919050565b5f6020820190508181035f83015262001b328162001af3565b9050919050565b7f5061757361626c653a20706175736564000000000000000000000000000000005f82015250565b5f62001b6f60108362001770565b915062001b7c8262001b39565b602082019050919050565b5f6020820190508181035f83015262001ba08162001b61565b9050919050565b7f53616665436173743a2076616c756520646f65736e27742066697420696e20345f8201527f3820626974730000000000000000000000000000000000000000000000000000602082015250565b5f62001c0360268362001770565b915062001c108262001ba7565b604082019050919050565b5f6020820190508181035f83015262001c348162001bf5565b9050919050565b5f60408201905062001c505f830185620016c1565b62001c5f6020830184620016c1565b9392505050565b5f62001c728262001256565b915062001c7f8362001256565b925082820390508181111562001c9a5762001c9962001484565b5b92915050565b7f4e487b71000000000000000000000000000000000000000000000000000000005f52603260045260245ffd5b60805160a05160c05160e05161010051610120516101405161549262001d1f5f395f610f5801525f610f2401525f6125ad01525f61258c01525f611cd101525f611d2701525f611d5001526154925ff3fe608060405234801561000f575f80fd5b5060043610610246575f3560e01c8063715018a611610139578063981b24d0116100b6578063d505accf1161007a578063d505accf14610730578063d9d98ce41461074c578063dd62ed3e1461077c578063f1127ed8146107ac578063f2fde38b146107dc57610246565b8063981b24d0146106545780639ab24eb014610684578063a457c2d7146106b4578063a9059cbb146106e4578063c3cda5201461071457610246565b80638da5cb5b116100fd5780638da5cb5b146105c05780638e539e8c146105de57806391ddadf41461060e57806395d89b411461062c5780639711715a1461064a57610246565b8063715018a61461053c57806379cc6790146105465780637ecebe00146105625780638456cb591461059257806384b0196e1461059c57610246565b806342966c68116101c75780635c975abb1161018b5780635c975abb1461045e5780635cffe9de1461047c578063613255ab146104ac5780636fcfff45146104dc57806370a082311461050c57610246565b806342966c68146103a85780634bf5d7e9146103c45780634ee2cd7e146103e2578063587cde1e146104125780635c19a95c1461044257610246565b80633644e5151161020e5780633644e5151461030457806339509351146103225780633a46b1a8146103525780633f4ba83a1461038257806340c10f191461038c57610246565b806306fdde031461024a578063095ea7b31461026857806318160ddd1461029857806323b872dd146102b6578063313ce567146102e6575b5f80fd5b6102526107f8565b60405161025f91906138b9565b60405180910390f35b610282600480360381019061027d919061396e565b610888565b60405161028f91906139c6565b60405180910390f35b6102a06108aa565b6040516102ad91906139ee565b60405180910390f35b6102d060048036038101906102cb9190613a07565b6108b3565b6040516102dd91906139c6565b60405180910390f35b6102ee6108e1565b6040516102fb9190613a72565b60405180910390f35b61030c6108e9565b6040516103199190613aa3565b60405180910390f35b61033c6004803603810190610337919061396e565b6108f7565b60405161034991906139c6565b60405180910390f35b61036c6004803603810190610367919061396e565b61092d565b60405161037991906139ee565b60405180910390f35b61038a6109cd565b005b6103a660048036038101906103a1919061396e565b6109df565b005b6103c260048036038101906103bd9190613abc565b6109f5565b005b6103cc610a09565b6040516103d991906138b9565b60405180910390f35b6103fc60048036038101906103f7919061396e565b610a97565b60405161040991906139ee565b60405180910390f35b61042c60048036038101906104279190613ae7565b610b03565b6040516104399190613b21565b60405180910390f35b61045c60048036038101906104579190613ae7565b610b68565b005b610466610b7c565b60405161047391906139c6565b60405180910390f35b61049660048036038101906104919190613bd6565b610b92565b6040516104a391906139c6565b60405180910390f35b6104c660048036038101906104c19190613ae7565b610d77565b6040516104d391906139ee565b60405180910390f35b6104f660048036038101906104f19190613ae7565b610dec565b6040516105039190613c78565b60405180910390f35b61052660048036038101906105219190613ae7565b610e3d565b60405161053391906139ee565b60405180910390f35b610544610e82565b005b610560600480360381019061055b919061396e565b610e95565b005b61057c60048036038101906105779190613ae7565b610eb5565b60405161058991906139ee565b60405180910390f35b61059a610f02565b005b6105a4610f14565b6040516105b79796959493929190613d82565b60405180910390f35b6105c8611011565b6040516105d59190613b21565b60405180910390f35b6105f860048036038101906105f39190613abc565b611039565b60405161060591906139ee565b60405180910390f35b61061661109d565b6040516106239190613e24565b60405180910390f35b6106346110ac565b60405161064191906138b9565b60405180910390f35b61065261113c565b005b61066e60048036038101906106699190613abc565b61114f565b60405161067b91906139ee565b60405180910390f35b61069e60048036038101906106999190613ae7565b61117e565b6040516106ab91906139ee565b60405180910390f35b6106ce60048036038101906106c9919061396e565b61127c565b6040516106db91906139c6565b60405180910390f35b6106fe60048036038101906106f9919061396e565b6112f1565b60405161070b91906139c6565b60405180910390f35b61072e60048036038101906107299190613e91565b611313565b005b61074a60048036038101906107459190613f1a565b611416565b005b6107666004803603810190610761919061396e565b611555565b60405161077391906139ee565b60405180910390f35b61079660048036038101906107919190613fb7565b6115d6565b6040516107a391906139ee565b60405180910390f35b6107c660048036038101906107c1919061401f565b611658565b6040516107d391906140cf565b60405180910390f35b6107f660048036038101906107f19190613ae7565b611761565b005b60606003805461080790614115565b80601f016020809104026020016040519081016040528092919081815260200182805461083390614115565b801561087e5780601f106108555761010080835404028352916020019161087e565b820191905f5260205f20905b81548152906001019060200180831161086157829003601f168201915b5050505050905090565b5f8061089261180d565b905061089f818585611814565b600191505092915050565b5f600254905090565b5f806108bd61180d565b90506108ca8582856119d7565b6108d5858585611a62565b60019150509392505050565b5f6012905090565b5f6108f2611cce565b905090565b5f8061090161180d565b905061092281858561091385896115d6565b61091d9190614172565b611814565b600191505092915050565b5f61093661109d565b65ffffffffffff16821061097f576040517f08c379a0000000000000000000000000000000000000000000000000000000008152600401610976906141ef565b60405180910390fd5b6109c5600f5f8573ffffffffffffffffffffffffffffffffffffffff1673ffffffffffffffffffffffffffffffffffffffff1681526020019081526020015f2083611d84565b905092915050565b6109d5611ec1565b6109dd611f3f565b565b6109e7611ec1565b6109f18282611fa1565b5050565b610a06610a0061180d565b82611faf565b50565b606043610a1461109d565b65ffffffffffff1614610a5c576040517f08c379a0000000000000000000000000000000000000000000000000000000008152600401610a5390614257565b60405180910390fd5b6040518060400160405280601d81526020017f6d6f64653d626c6f636b6e756d6265722666726f6d3d64656661756c74000000815250905090565b5f805f610ae08460055f8873ffffffffffffffffffffffffffffffffffffffff1673ffffffffffffffffffffffffffffffffffffffff1681526020019081526020015f20611fbd565b9150915081610af757610af285610e3d565b610af9565b805b9250505092915050565b5f600e5f8373ffffffffffffffffffffffffffffffffffffffff1673ffffffffffffffffffffffffffffffffffffffff1681526020019081526020015f205f9054906101000a900473ffffffffffffffffffffffffffffffffffffffff169050919050565b610b79610b7361180d565b826120aa565b50565b5f600960149054906101000a900460ff16905090565b5f610b9c85610d77565b841115610bde576040517f08c379a0000000000000000000000000000000000000000000000000000000008152600401610bd5906142e5565b60405180910390fd5b5f610be98686611555565b9050610bf58786611fa1565b7f439148f0bbc682ca079e46d6e2c2f0c1e3b820f1a291b069d8882abf8cf18dd98773ffffffffffffffffffffffffffffffffffffffff166323e30c8b338989868a8a6040518763ffffffff1660e01b8152600401610c599695949392919061434d565b6020604051808303815f875af1158015610c75573d5f803e3d5ffd5b505050506040513d601f19601f82011682018060405250810190610c9991906143bb565b14610cd9576040517f08c379a0000000000000000000000000000000000000000000000000000000008152600401610cd090614456565b60405180910390fd5b5f610ce26121bf565b9050610cfa88308489610cf59190614172565b6119d7565b5f821480610d3357505f73ffffffffffffffffffffffffffffffffffffffff168173ffffffffffffffffffffffffffffffffffffffff16145b15610d5257610d4d888388610d489190614172565b611faf565b610d68565b610d5c8887611faf565b610d67888284611a62565b5b60019250505095945050505050565b5f3073ffffffffffffffffffffffffffffffffffffffff168273ffffffffffffffffffffffffffffffffffffffff1614610db1575f610de5565b610db96108aa565b7fffffffffffffffffffffffffffffffffffffffffffffffffffffffffffffffff610de49190614474565b5b9050919050565b5f610e36600f5f8473ffffffffffffffffffffffffffffffffffffffff1673ffffffffffffffffffffffffffffffffffffffff1681526020019081526020015f20805490506121c3565b9050919050565b5f805f8373ffffffffffffffffffffffffffffffffffffffff1673ffffffffffffffffffffffffffffffffffffffff1681526020019081526020015f20549050919050565b610e8a611ec1565b610e935f612215565b565b610ea782610ea161180d565b836119d7565b610eb18282611faf565b5050565b5f610efb600c5f8473ffffffffffffffffffffffffffffffffffffffff1673ffffffffffffffffffffffffffffffffffffffff1681526020019081526020015f206122d8565b9050919050565b610f0a611ec1565b610f126122e4565b565b5f6060805f805f6060610f51600a7f000000000000000000000000000000000000000000000000000000000000000061234790919063ffffffff16565b610f85600b7f000000000000000000000000000000000000000000000000000000000000000061234790919063ffffffff16565b46305f801b5f67ffffffffffffffff811115610fa457610fa36144a7565b5b604051908082528060200260200182016040528015610fd25781602001602082028036833780820191505090505b507f0f00000000000000000000000000000000000000000000000000000000000000959493929190965096509650965096509650965090919293949596565b5f60095f9054906101000a900473ffffffffffffffffffffffffffffffffffffffff16905090565b5f61104261109d565b65ffffffffffff16821061108b576040517f08c379a0000000000000000000000000000000000000000000000000000000008152600401611082906141ef565b60405180910390fd5b611096601083611d84565b9050919050565b5f6110a7436123f4565b905090565b6060600480546110bb90614115565b80601f01602080910402602001604051908101604052809291908181526020018280546110e790614115565b80156111325780601f1061110957610100808354040283529160200191611132565b820191905f5260205f20905b81548152906001019060200180831161111557829003601f168201915b5050505050905090565b611144611ec1565b61114c612448565b50565b5f805f61115d846006611fbd565b91509150816111735761116e6108aa565b611175565b805b92505050919050565b5f80600f5f8473ffffffffffffffffffffffffffffffffffffffff1673ffffffffffffffffffffffffffffffffffffffff1681526020019081526020015f208054905090505f811461125457600f5f8473ffffffffffffffffffffffffffffffffffffffff1673ffffffffffffffffffffffffffffffffffffffff1681526020019081526020015f20600182038154811061121c5761121b6144d4565b5b905f5260205f20015f0160049054906101000a90047bffffffffffffffffffffffffffffffffffffffffffffffffffffffff16611256565b5f5b7bffffffffffffffffffffffffffffffffffffffffffffffffffffffff16915050919050565b5f8061128661180d565b90505f61129382866115d6565b9050838110156112d8576040517f08c379a00000000000000000000000000000000000000000000000000000000081526004016112cf90614571565b60405180910390fd5b6112e58286868403611814565b60019250505092915050565b5f806112fb61180d565b9050611308818585611a62565b600191505092915050565b83421115611356576040517f08c379a000000000000000000000000000000000000000000000000000000000815260040161134d906145d9565b60405180910390fd5b5f6113b76113af7fe48329057bfd03d55e49b547132e39cffd9c1820ad7b9d4c5307691425d15adf89898960405160200161139494939291906145f7565b6040516020818303038152906040528051906020012061249c565b8585856124b5565b90506113c2816124de565b8614611403576040517f08c379a00000000000000000000000000000000000000000000000000000000081526004016113fa90614684565b60405180910390fd5b61140d81886120aa565b50505050505050565b83421115611459576040517f08c379a0000000000000000000000000000000000000000000000000000000008152600401611450906146ec565b60405180910390fd5b5f7f6e71edae12b1b97f4d1f60370fef10105fa2faae0126114a169c64845d6126c98888886114878c6124de565b8960405160200161149d9695949392919061470a565b6040516020818303038152906040528051906020012090505f6114bf8261249c565b90505f6114ce828787876124b5565b90508973ffffffffffffffffffffffffffffffffffffffff168173ffffffffffffffffffffffffffffffffffffffff161461153e576040517f08c379a0000000000000000000000000000000000000000000000000000000008152600401611535906147b3565b60405180910390fd5b6115498a8a8a611814565b50505050505050505050565b5f3073ffffffffffffffffffffffffffffffffffffffff168373ffffffffffffffffffffffffffffffffffffffff16146115c4576040517f08c379a00000000000000000000000000000000000000000000000000000000081526004016115bb9061481b565b60405180910390fd5b6115ce8383612539565b905092915050565b5f60015f8473ffffffffffffffffffffffffffffffffffffffff1673ffffffffffffffffffffffffffffffffffffffff1681526020019081526020015f205f8373ffffffffffffffffffffffffffffffffffffffff1673ffffffffffffffffffffffffffffffffffffffff1681526020019081526020015f2054905092915050565b6116606137f3565b600f5f8473ffffffffffffffffffffffffffffffffffffffff1673ffffffffffffffffffffffffffffffffffffffff1681526020019081526020015f208263ffffffff16815481106116b5576116b46144d4565b5b905f5260205f20016040518060400160405290815f82015f9054906101000a900463ffffffff1663ffffffff1663ffffffff1681526020015f820160049054906101000a90047bffffffffffffffffffffffffffffffffffffffffffffffffffffffff167bffffffffffffffffffffffffffffffffffffffffffffffffffffffff167bffffffffffffffffffffffffffffffffffffffffffffffffffffffff1681525050905092915050565b611769611ec1565b5f73ffffffffffffffffffffffffffffffffffffffff168173ffffffffffffffffffffffffffffffffffffffff16036117d7576040517f08c379a00000000000000000000000000000000000000000000000000000000081526004016117ce906148a9565b60405180910390fd5b6117e081612215565b50565b5f81836117f09190614172565b905092915050565b5f81836118059190614474565b905092915050565b5f33905090565b5f73ffffffffffffffffffffffffffffffffffffffff168373ffffffffffffffffffffffffffffffffffffffff1603611882576040517f08c379a000000000000000000000000000000000000000000000000000000000815260040161187990614937565b60405180910390fd5b5f73ffffffffffffffffffffffffffffffffffffffff168273ffffffffffffffffffffffffffffffffffffffff16036118f0576040517f08c379a00000000000000000000000000000000000000000000000000000000081526004016118e7906149c5565b60405180910390fd5b8060015f8573ffffffffffffffffffffffffffffffffffffffff1673ffffffffffffffffffffffffffffffffffffffff1681526020019081526020015f205f8473ffffffffffffffffffffffffffffffffffffffff1673ffffffffffffffffffffffffffffffffffffffff1681526020019081526020015f20819055508173ffffffffffffffffffffffffffffffffffffffff168373ffffffffffffffffffffffffffffffffffffffff167f8c5be1e5ebec7d5bd14f71427d1e84f3dd0314c0f7b2291e5b200ac8c7c3b925836040516119ca91906139ee565b60405180910390a3505050565b5f6119e284846115d6565b90507fffffffffffffffffffffffffffffffffffffffffffffffffffffffffffffffff8114611a5c5781811015611a4e576040517f08c379a0000000000000000000000000000000000000000000000000000000008152600401611a4590614a2d565b60405180910390fd5b611a5b8484848403611814565b5b50505050565b5f73ffffffffffffffffffffffffffffffffffffffff168373ffffffffffffffffffffffffffffffffffffffff1603611ad0576040517f08c379a0000000000000000000000000000000000000000000000000000000008152600401611ac790614abb565b60405180910390fd5b5f73ffffffffffffffffffffffffffffffffffffffff168273ffffffffffffffffffffffffffffffffffffffff1603611b3e576040517f08c379a0000000000000000000000000000000000000000000000000000000008152600401611b3590614b49565b60405180910390fd5b611b49838383612540565b5f805f8573ffffffffffffffffffffffffffffffffffffffff1673ffffffffffffffffffffffffffffffffffffffff1681526020019081526020015f2054905081811015611bcc576040517f08c379a0000000000000000000000000000000000000000000000000000000008152600401611bc390614bd7565b60405180910390fd5b8181035f808673ffffffffffffffffffffffffffffffffffffffff1673ffffffffffffffffffffffffffffffffffffffff1681526020019081526020015f2081905550815f808573ffffffffffffffffffffffffffffffffffffffff1673ffffffffffffffffffffffffffffffffffffffff1681526020019081526020015f205f82825401925050819055508273ffffffffffffffffffffffffffffffffffffffff168473ffffffffffffffffffffffffffffffffffffffff167fddf252ad1be2c89b69c2b068fc378daa952ba7f163c4a11628f55a4df523b3ef84604051611cb591906139ee565b60405180910390a3611cc8848484612558565b50505050565b5f7f000000000000000000000000000000000000000000000000000000000000000073ffffffffffffffffffffffffffffffffffffffff163073ffffffffffffffffffffffffffffffffffffffff16148015611d4957507f000000000000000000000000000000000000000000000000000000000000000046145b15611d76577f00000000000000000000000000000000000000000000000000000000000000009050611d81565b611d7e612568565b90505b90565b5f80838054905090505f808290506005831115611df5575f611da5846125fd565b84611db09190614474565b905085611dbd88836126f3565b5f015f9054906101000a900463ffffffff1663ffffffff161115611de357809150611df3565b600181611df09190614172565b92505b505b5b80821015611e52575f611e098383612705565b905085611e1688836126f3565b5f015f9054906101000a900463ffffffff1663ffffffff161115611e3c57809150611e4c565b600181611e499190614172565b92505b50611df6565b5f8114611e9657611e6686600183036126f3565b5f0160049054906101000a90047bffffffffffffffffffffffffffffffffffffffffffffffffffffffff16611e98565b5f5b7bffffffffffffffffffffffffffffffffffffffffffffffffffffffff16935050505092915050565b611ec961180d565b73ffffffffffffffffffffffffffffffffffffffff16611ee7611011565b73ffffffffffffffffffffffffffffffffffffffff1614611f3d576040517f08c379a0000000000000000000000000000000000000000000000000000000008152600401611f3490614c3f565b60405180910390fd5b565b611f4761272a565b5f600960146101000a81548160ff0219169083151502179055507f5db9ee0a495bf2e6ff9c91a7834c1ba4fdd244a5e8aa4e537bd38aeae4b073aa611f8a61180d565b604051611f979190613b21565b60405180910390a1565b611fab8282612773565b5050565b611fb98282612800565b5050565b5f805f8411612001576040517f08c379a0000000000000000000000000000000000000000000000000000000008152600401611ff890614ca7565b60405180910390fd5b61200961281e565b84111561204b576040517f08c379a000000000000000000000000000000000000000000000000000000000815260040161204290614d0f565b60405180910390fd5b5f61206185855f0161282e90919063ffffffff16565b9050835f0180549050810361207c575f8092509250506120a3565b6001846001018281548110612094576120936144d4565b5b905f5260205f20015492509250505b9250929050565b5f6120b483610b03565b90505f6120c084610e3d565b905082600e5f8673ffffffffffffffffffffffffffffffffffffffff1673ffffffffffffffffffffffffffffffffffffffff1681526020019081526020015f205f6101000a81548173ffffffffffffffffffffffffffffffffffffffff021916908373ffffffffffffffffffffffffffffffffffffffff1602179055508273ffffffffffffffffffffffffffffffffffffffff168273ffffffffffffffffffffffffffffffffffffffff168573ffffffffffffffffffffffffffffffffffffffff167f3134e8a2e6d97e929a7e54011ea5485d7d196dd5f0ba4d4ef95803e8e3fc257f60405160405180910390a46121b98284836128e0565b50505050565b5f90565b5f63ffffffff801682111561220d576040517f08c379a000000000000000000000000000000000000000000000000000000000815260040161220490614d9d565b60405180910390fd5b819050919050565b5f60095f9054906101000a900473ffffffffffffffffffffffffffffffffffffffff1690508160095f6101000a81548173ffffffffffffffffffffffffffffffffffffffff021916908373ffffffffffffffffffffffffffffffffffffffff1602179055508173ffffffffffffffffffffffffffffffffffffffff168173ffffffffffffffffffffffffffffffffffffffff167f8be0079c531659141344cd1fd0a4f28419497f9722a3daafe3b4186f6b6457e060405160405180910390a35050565b5f815f01549050919050565b6122ec612ad0565b6001600960146101000a81548160ff0219169083151502179055507f62e78cea01bee320cd4e420270b5ea74000d11b0c9f74754ebdbfc544b05a25861233061180d565b60405161233d9190613b21565b60405180910390a1565b606060ff5f1b83146123635761235c83612b1a565b90506123ee565b81805461236f90614115565b80601f016020809104026020016040519081016040528092919081815260200182805461239b90614115565b80156123e65780601f106123bd576101008083540402835291602001916123e6565b820191905f5260205f20905b8154815290600101906020018083116123c957829003601f168201915b505050505090505b92915050565b5f65ffffffffffff8016821115612440576040517f08c379a000000000000000000000000000000000000000000000000000000000815260040161243790614e2b565b60405180910390fd5b819050919050565b5f6124536008612b8c565b5f61245c61281e565b90507f8030e83b04d87bef53480e26263266d6ca66863aa8506aca6f2559d18aa1cb678160405161248d91906139ee565b60405180910390a18091505090565b5f6124ae6124a8611cce565b83612ba0565b9050919050565b5f805f6124c487878787612be0565b915091506124d181612cb8565b8192505050949350505050565b5f80600c5f8473ffffffffffffffffffffffffffffffffffffffff1673ffffffffffffffffffffffffffffffffffffffff1681526020019081526020015f209050612528816122d8565b915061253381612b8c565b50919050565b5f92915050565b612548612ad0565b612553838383612e1d565b505050565b612563838383612ed3565b505050565b5f7f8b73c3c69bb8fe3d512ecc4cf759cc79239f7b179b0ffacaa9a75d522b39400f7f00000000000000000000000000000000000000000000000000000000000000007f000000000000000000000000000000000000000000000000000000000000000046306040516020016125e2959493929190614e49565b60405160208183030381529060405280519060200120905090565b5f80820361260d575f90506126ee565b5f600161261984612efe565b901c6001901b9050600181848161263357612632614e9a565b5b048201901c9050600181848161264c5761264b614e9a565b5b048201901c9050600181848161266557612664614e9a565b5b048201901c9050600181848161267e5761267d614e9a565b5b048201901c9050600181848161269757612696614e9a565b5b048201901c905060018184816126b0576126af614e9a565b5b048201901c905060018184816126c9576126c8614e9a565b5b048201901c90506126ea818285816126e4576126e3614e9a565b5b04612fd5565b9150505b919050565b5f825f528160205f2001905092915050565b5f60028284186127159190614ec7565b8284166127229190614172565b905092915050565b612732610b7c565b612771576040517f08c379a000000000000000000000000000000000000000000000000000000000815260040161276890614f41565b60405180910390fd5b565b61277d8282612fed565b61278561313b565b7bffffffffffffffffffffffffffffffffffffffffffffffffffffffff166127ab6108aa565b11156127ec576040517f08c379a00000000000000000000000000000000000000000000000000000000081526004016127e390614fcf565b60405180910390fd5b6127fa60106117e38361315e565b50505050565b61280a8282613427565b61281860106117f88361315e565b50505050565b5f61282960086122d8565b905090565b5f80838054905003612842575f90506128da565b5f80848054905090505b80821015612893575f61285f8383612705565b90508461286c87836135ea565b5f0154111561287d5780915061288d565b60018161288a9190614172565b92505b5061284c565b5f821180156128b95750836128b4866001856128af9190614474565b6135ea565b5f0154145b156128d4576001826128cb9190614474565b925050506128da565b81925050505b92915050565b8173ffffffffffffffffffffffffffffffffffffffff168373ffffffffffffffffffffffffffffffffffffffff161415801561291b57505f81115b15612acb575f73ffffffffffffffffffffffffffffffffffffffff168373ffffffffffffffffffffffffffffffffffffffff16146129f5575f8061299e600f5f8773ffffffffffffffffffffffffffffffffffffffff1673ffffffffffffffffffffffffffffffffffffffff1681526020019081526020015f206117f88561315e565b915091508473ffffffffffffffffffffffffffffffffffffffff167fdec2bacdd2f05b59de34da9b523dff8be42e5e38e818c82fdb0bae774387a72483836040516129ea929190614fed565b60405180910390a250505b5f73ffffffffffffffffffffffffffffffffffffffff168273ffffffffffffffffffffffffffffffffffffffff1614612aca575f80612a73600f5f8673ffffffffffffffffffffffffffffffffffffffff1673ffffffffffffffffffffffffffffffffffffffff1681526020019081526020015f206117e38561315e565b915091508373ffffffffffffffffffffffffffffffffffffffff167fdec2bacdd2f05b59de34da9b523dff8be42e5e38e818c82fdb0bae774387a7248383604051612abf929190614fed565b60405180910390a250505b5b505050565b612ad8610b7c565b15612b18576040517f08c379a0000000000000000000000000000000000000000000000000000000008152600401612b0f9061505e565b60405180910390fd5b565b60605f612b2683613609565b90505f602067ffffffffffffffff811115612b4457612b436144a7565b5b6040519080825280601f01601f191660200182016040528015612b765781602001600182028036833780820191505090505b5090508181528360208201528092505050919050565b6001815f015f828254019250508190555050565b5f6040517f190100000000000000000000000000000000000000000000000000000000000081528360028201528260228201526042812091505092915050565b5f807f7fffffffffffffffffffffffffffffff5d576e7357a4501ddfe92f46681b20a0835f1c1115612c18575f600391509150612caf565b5f6001878787876040515f8152602001604052604051612c3b949392919061507c565b6020604051602081039080840390855afa158015612c5b573d5f803e3d5ffd5b5050506020604051035190505f73ffffffffffffffffffffffffffffffffffffffff168173ffffffffffffffffffffffffffffffffffffffff1603612ca7575f60019250925050612caf565b805f92509250505b94509492505050565b5f6004811115612ccb57612cca6150bf565b5b816004811115612cde57612cdd6150bf565b5b0315612e1a5760016004811115612cf857612cf76150bf565b5b816004811115612d0b57612d0a6150bf565b5b03612d4b576040517f08c379a0000000000000000000000000000000000000000000000000000000008152600401612d4290615136565b60405180910390fd5b60026004811115612d5f57612d5e6150bf565b5b816004811115612d7257612d716150bf565b5b03612db2576040517f08c379a0000000000000000000000000000000000000000000000000000000008152600401612da99061519e565b60405180910390fd5b60036004811115612dc657612dc56150bf565b5b816004811115612dd957612dd86150bf565b5b03612e19576040517f08c379a0000000000000000000000000000000000000000000000000000000008152600401612e109061522c565b60405180910390fd5b5b50565b612e28838383613657565b5f73ffffffffffffffffffffffffffffffffffffffff168373ffffffffffffffffffffffffffffffffffffffff1603612e7157612e648261365c565b612e6c6136ad565b612ece565b5f73ffffffffffffffffffffffffffffffffffffffff168273ffffffffffffffffffffffffffffffffffffffff1603612eba57612ead8361365c565b612eb56136ad565b612ecd565b612ec38361365c565b612ecc8261365c565b5b5b505050565b612ede8383836136c1565b612ef9612eea84610b03565b612ef384610b03565b836128e0565b505050565b5f805f90505f608084901c1115612f1d57608083901c92506080810190505b5f604084901c1115612f3757604083901c92506040810190505b5f602084901c1115612f5157602083901c92506020810190505b5f601084901c1115612f6b57601083901c92506010810190505b5f600884901c1115612f8557600883901c92506008810190505b5f600484901c1115612f9f57600483901c92506004810190505b5f600284901c1115612fb957600283901c92506002810190505b5f600184901c1115612fcc576001810190505b80915050919050565b5f818310612fe35781612fe5565b825b905092915050565b5f73ffffffffffffffffffffffffffffffffffffffff168273ffffffffffffffffffffffffffffffffffffffff160361305b576040517f08c379a000000000000000000000000000000000000000000000000000000000815260040161305290615294565b60405180910390fd5b6130665f8383612540565b8060025f8282546130779190614172565b92505081905550805f808473ffffffffffffffffffffffffffffffffffffffff1673ffffffffffffffffffffffffffffffffffffffff1681526020019081526020015f205f82825401925050819055508173ffffffffffffffffffffffffffffffffffffffff165f73ffffffffffffffffffffffffffffffffffffffff167fddf252ad1be2c89b69c2b068fc378daa952ba7f163c4a11628f55a4df523b3ef8360405161312491906139ee565b60405180910390a36131375f8383612558565b5050565b5f7bffffffffffffffffffffffffffffffffffffffffffffffffffffffff905090565b5f805f858054905090505f80821461321e5761317d87600184036126f3565b6040518060400160405290815f82015f9054906101000a900463ffffffff1663ffffffff1663ffffffff1681526020015f820160049054906101000a90047bffffffffffffffffffffffffffffffffffffffffffffffffffffffff167bffffffffffffffffffffffffffffffffffffffffffffffffffffffff167bffffffffffffffffffffffffffffffffffffffffffffffffffffffff1681525050613258565b60405180604001604052805f63ffffffff1681526020015f7bffffffffffffffffffffffffffffffffffffffffffffffffffffffff168152505b905080602001517bffffffffffffffffffffffffffffffffffffffffffffffffffffffff16935061328d84868863ffffffff16565b92505f821180156132b557506132a161109d565b65ffffffffffff16815f015163ffffffff16145b15613325576132c3836136c6565b6132d088600185036126f3565b5f0160046101000a8154817bffffffffffffffffffffffffffffffffffffffffffffffffffffffff02191690837bffffffffffffffffffffffffffffffffffffffffffffffffffffffff16021790555061341d565b86604051806040016040528061334961333c61109d565b65ffffffffffff166121c3565b63ffffffff16815260200161335d866136c6565b7bffffffffffffffffffffffffffffffffffffffffffffffffffffffff16815250908060018154018082558091505060019003905f5260205f20015f909190919091505f820151815f015f6101000a81548163ffffffff021916908363ffffffff1602179055506020820151815f0160046101000a8154817bffffffffffffffffffffffffffffffffffffffffffffffffffffffff02191690837bffffffffffffffffffffffffffffffffffffffffffffffffffffffff16021790555050505b5050935093915050565b5f73ffffffffffffffffffffffffffffffffffffffff168273ffffffffffffffffffffffffffffffffffffffff1603613495576040517f08c379a000000000000000000000000000000000000000000000000000000000815260040161348c90615322565b60405180910390fd5b6134a0825f83612540565b5f805f8473ffffffffffffffffffffffffffffffffffffffff1673ffffffffffffffffffffffffffffffffffffffff1681526020019081526020015f2054905081811015613523576040517f08c379a000000000000000000000000000000000000000000000000000000000815260040161351a906153b0565b60405180910390fd5b8181035f808573ffffffffffffffffffffffffffffffffffffffff1673ffffffffffffffffffffffffffffffffffffffff1681526020019081526020015f20819055508160025f82825403925050819055505f73ffffffffffffffffffffffffffffffffffffffff168373ffffffffffffffffffffffffffffffffffffffff167fddf252ad1be2c89b69c2b068fc378daa952ba7f163c4a11628f55a4df523b3ef846040516135d291906139ee565b60405180910390a36135e5835f84612558565b505050565b5f80835f528260205f2001905061360081613730565b91505092915050565b5f8060ff835f1c169050601f81111561364e576040517fb3512b0c00000000000000000000000000000000000000000000000000000000815260040160405180910390fd5b80915050919050565b505050565b6136aa60055f8373ffffffffffffffffffffffffffffffffffffffff1673ffffffffffffffffffffffffffffffffffffffff1681526020019081526020015f206136a583610e3d565b613739565b50565b6136bf60066136ba6108aa565b613739565b565b505050565b5f7bffffffffffffffffffffffffffffffffffffffffffffffffffffffff8016821115613728576040517f08c379a000000000000000000000000000000000000000000000000000000000815260040161371f9061543e565b60405180910390fd5b819050919050565b5f819050919050565b5f61374261281e565b905080613750845f016137ab565b10156137a657825f0181908060018154018082558091505060019003905f5260205f20015f90919091909150558260010182908060018154018082558091505060019003905f5260205f20015f90919091909150555b505050565b5f808280549050036137bf575f90506137ee565b81600183805490506137d19190614474565b815481106137e2576137e16144d4565b5b905f5260205f20015490505b919050565b60405180604001604052805f63ffffffff1681526020015f7bffffffffffffffffffffffffffffffffffffffffffffffffffffffff1681525090565b5f81519050919050565b5f82825260208201905092915050565b5f5b8381101561386657808201518184015260208101905061384b565b5f8484015250505050565b5f601f19601f8301169050919050565b5f61388b8261382f565b6138958185613839565b93506138a5818560208601613849565b6138ae81613871565b840191505092915050565b5f6020820190508181035f8301526138d18184613881565b905092915050565b5f80fd5b5f80fd5b5f73ffffffffffffffffffffffffffffffffffffffff82169050919050565b5f61390a826138e1565b9050919050565b61391a81613900565b8114613924575f80fd5b50565b5f8135905061393581613911565b92915050565b5f819050919050565b61394d8161393b565b8114613957575f80fd5b50565b5f8135905061396881613944565b92915050565b5f8060408385031215613984576139836138d9565b5b5f61399185828601613927565b92505060206139a28582860161395a565b9150509250929050565b5f8115159050919050565b6139c0816139ac565b82525050565b5f6020820190506139d95f8301846139b7565b92915050565b6139e88161393b565b82525050565b5f602082019050613a015f8301846139df565b92915050565b5f805f60608486031215613a1e57613a1d6138d9565b5b5f613a2b86828701613927565b9350506020613a3c86828701613927565b9250506040613a4d8682870161395a565b9150509250925092565b5f60ff82169050919050565b613a6c81613a57565b82525050565b5f602082019050613a855f830184613a63565b92915050565b5f819050919050565b613a9d81613a8b565b82525050565b5f602082019050613ab65f830184613a94565b92915050565b5f60208284031215613ad157613ad06138d9565b5b5f613ade8482850161395a565b91505092915050565b5f60208284031215613afc57613afb6138d9565b5b5f613b0984828501613927565b91505092915050565b613b1b81613900565b82525050565b5f602082019050613b345f830184613b12565b92915050565b5f613b4482613900565b9050919050565b613b5481613b3a565b8114613b5e575f80fd5b50565b5f81359050613b6f81613b4b565b92915050565b5f80fd5b5f80fd5b5f80fd5b5f8083601f840112613b9657613b95613b75565b5b8235905067ffffffffffffffff811115613bb357613bb2613b79565b5b602083019150836001820283011115613bcf57613bce613b7d565b5b9250929050565b5f805f805f60808688031215613bef57613bee6138d9565b5b5f613bfc88828901613b61565b9550506020613c0d88828901613927565b9450506040613c1e8882890161395a565b935050606086013567ffffffffffffffff811115613c3f57613c3e6138dd565b5b613c4b88828901613b81565b92509250509295509295909350565b5f63ffffffff82169050919050565b613c7281613c5a565b82525050565b5f602082019050613c8b5f830184613c69565b92915050565b5f7fff0000000000000000000000000000000000000000000000000000000000000082169050919050565b613cc581613c91565b82525050565b5f81519050919050565b5f82825260208201905092915050565b5f819050602082019050919050565b613cfd8161393b565b82525050565b5f613d0e8383613cf4565b60208301905092915050565b5f602082019050919050565b5f613d3082613ccb565b613d3a8185613cd5565b9350613d4583613ce5565b805f5b83811015613d75578151613d5c8882613d03565b9750613d6783613d1a565b925050600181019050613d48565b5085935050505092915050565b5f60e082019050613d955f83018a613cbc565b8181036020830152613da78189613881565b90508181036040830152613dbb8188613881565b9050613dca60608301876139df565b613dd76080830186613b12565b613de460a0830185613a94565b81810360c0830152613df68184613d26565b905098975050505050505050565b5f65ffffffffffff82169050919050565b613e1e81613e04565b82525050565b5f602082019050613e375f830184613e15565b92915050565b613e4681613a57565b8114613e50575f80fd5b50565b5f81359050613e6181613e3d565b92915050565b613e7081613a8b565b8114613e7a575f80fd5b50565b5f81359050613e8b81613e67565b92915050565b5f805f805f8060c08789031215613eab57613eaa6138d9565b5b5f613eb889828a01613927565b9650506020613ec989828a0161395a565b9550506040613eda89828a0161395a565b9450506060613eeb89828a01613e53565b9350506080613efc89828a01613e7d565b92505060a0613f0d89828a01613e7d565b9150509295509295509295565b5f805f805f805f60e0888a031215613f3557613f346138d9565b5b5f613f428a828b01613927565b9750506020613f538a828b01613927565b9650506040613f648a828b0161395a565b9550506060613f758a828b0161395a565b9450506080613f868a828b01613e53565b93505060a0613f978a828b01613e7d565b92505060c0613fa88a828b01613e7d565b91505092959891949750929550565b5f8060408385031215613fcd57613fcc6138d9565b5b5f613fda85828601613927565b9250506020613feb85828601613927565b9150509250929050565b613ffe81613c5a565b8114614008575f80fd5b50565b5f8135905061401981613ff5565b92915050565b5f8060408385031215614035576140346138d9565b5b5f61404285828601613927565b92505060206140538582860161400b565b9150509250929050565b61406681613c5a565b82525050565b5f7bffffffffffffffffffffffffffffffffffffffffffffffffffffffff82169050919050565b61409c8161406c565b82525050565b604082015f8201516140b65f85018261405d565b5060208201516140c96020850182614093565b50505050565b5f6040820190506140e25f8301846140a2565b92915050565b7f4e487b71000000000000000000000000000000000000000000000000000000005f52602260045260245ffd5b5f600282049050600182168061412c57607f821691505b60208210810361413f5761413e6140e8565b5b50919050565b7f4e487b71000000000000000000000000000000000000000000000000000000005f52601160045260245ffd5b5f61417c8261393b565b91506141878361393b565b925082820190508082111561419f5761419e614145565b5b92915050565b7f4552433230566f7465733a20667574757265206c6f6f6b7570000000000000005f82015250565b5f6141d9601983613839565b91506141e4826141a5565b602082019050919050565b5f6020820190508181035f830152614206816141cd565b9050919050565b7f4552433230566f7465733a2062726f6b656e20636c6f636b206d6f64650000005f82015250565b5f614241601d83613839565b915061424c8261420d565b602082019050919050565b5f6020820190508181035f83015261426e81614235565b9050919050565b7f4552433230466c6173684d696e743a20616d6f756e742065786365656473206d5f8201527f6178466c6173684c6f616e000000000000000000000000000000000000000000602082015250565b5f6142cf602b83613839565b91506142da82614275565b604082019050919050565b5f6020820190508181035f8301526142fc816142c3565b9050919050565b5f82825260208201905092915050565b828183375f83830152505050565b5f61432c8385614303565b9350614339838584614313565b61434283613871565b840190509392505050565b5f60a0820190506143605f830189613b12565b61436d6020830188613b12565b61437a60408301876139df565b61438760608301866139df565b818103608083015261439a818486614321565b9050979650505050505050565b5f815190506143b581613e67565b92915050565b5f602082840312156143d0576143cf6138d9565b5b5f6143dd848285016143a7565b91505092915050565b7f4552433230466c6173684d696e743a20696e76616c69642072657475726e20765f8201527f616c756500000000000000000000000000000000000000000000000000000000602082015250565b5f614440602483613839565b915061444b826143e6565b604082019050919050565b5f6020820190508181035f83015261446d81614434565b9050919050565b5f61447e8261393b565b91506144898361393b565b92508282039050818111156144a1576144a0614145565b5b92915050565b7f4e487b71000000000000000000000000000000000000000000000000000000005f52604160045260245ffd5b7f4e487b71000000000000000000000000000000000000000000000000000000005f52603260045260245ffd5b7f45524332303a2064656372656173656420616c6c6f77616e63652062656c6f775f8201527f207a65726f000000000000000000000000000000000000000000000000000000602082015250565b5f61455b602583613839565b915061456682614501565b604082019050919050565b5f6020820190508181035f8301526145888161454f565b9050919050565b7f4552433230566f7465733a207369676e617475726520657870697265640000005f82015250565b5f6145c3601d83613839565b91506145ce8261458f565b602082019050919050565b5f6020820190508181035f8301526145f0816145b7565b9050919050565b5f60808201905061460a5f830187613a94565b6146176020830186613b12565b61462460408301856139df565b61463160608301846139df565b95945050505050565b7f4552433230566f7465733a20696e76616c6964206e6f6e6365000000000000005f82015250565b5f61466e601983613839565b91506146798261463a565b602082019050919050565b5f6020820190508181035f83015261469b81614662565b9050919050565b7f45524332305065726d69743a206578706972656420646561646c696e650000005f82015250565b5f6146d6601d83613839565b91506146e1826146a2565b602082019050919050565b5f6020820190508181035f830152614703816146ca565b9050919050565b5f60c08201905061471d5f830189613a94565b61472a6020830188613b12565b6147376040830187613b12565b61474460608301866139df565b61475160808301856139df565b61475e60a08301846139df565b979650505050505050565b7f45524332305065726d69743a20696e76616c6964207369676e617475726500005f82015250565b5f61479d601e83613839565b91506147a882614769565b602082019050919050565b5f6020820190508181035f8301526147ca81614791565b9050919050565b7f4552433230466c6173684d696e743a2077726f6e6720746f6b656e00000000005f82015250565b5f614805601b83613839565b9150614810826147d1565b602082019050919050565b5f6020820190508181035f830152614832816147f9565b9050919050565b7f4f776e61626c653a206e6577206f776e657220697320746865207a65726f20615f8201527f6464726573730000000000000000000000000000000000000000000000000000602082015250565b5f614893602683613839565b915061489e82614839565b604082019050919050565b5f6020820190508181035f8301526148c081614887565b9050919050565b7f45524332303a20617070726f76652066726f6d20746865207a65726f206164645f8201527f7265737300000000000000000000000000000000000000000000000000000000602082015250565b5f614921602483613839565b915061492c826148c7565b604082019050919050565b5f6020820190508181035f83015261494e81614915565b9050919050565b7f45524332303a20617070726f766520746f20746865207a65726f2061646472655f8201527f7373000000000000000000000000000000000000000000000000000000000000602082015250565b5f6149af602283613839565b91506149ba82614955565b604082019050919050565b5f6020820190508181035f8301526149dc816149a3565b9050919050565b7f45524332303a20696e73756666696369656e7420616c6c6f77616e63650000005f82015250565b5f614a17601d83613839565b9150614a22826149e3565b602082019050919050565b5f6020820190508181035f830152614a4481614a0b565b9050919050565b7f45524332303a207472616e736665722066726f6d20746865207a65726f2061645f8201527f6472657373000000000000000000000000000000000000000000000000000000602082015250565b5f614aa5602583613839565b9150614ab082614a4b565b604082019050919050565b5f6020820190508181035f830152614ad281614a99565b9050919050565b7f45524332303a207472616e7366657220746f20746865207a65726f20616464725f8201527f6573730000000000000000000000000000000000000000000000000000000000602082015250565b5f614b33602383613839565b9150614b3e82614ad9565b604082019050919050565b5f6020820190508181035f830152614b6081614b27565b9050919050565b7f45524332303a207472616e7366657220616d6f756e74206578636565647320625f8201527f616c616e63650000000000000000000000000000000000000000000000000000602082015250565b5f614bc1602683613839565b9150614bcc82614b67565b604082019050919050565b5f6020820190508181035f830152614bee81614bb5565b9050919050565b7f4f776e61626c653a2063616c6c6572206973206e6f7420746865206f776e65725f82015250565b5f614c29602083613839565b9150614c3482614bf5565b602082019050919050565b5f6020820190508181035f830152614c5681614c1d565b9050919050565b7f4552433230536e617073686f743a2069642069732030000000000000000000005f82015250565b5f614c91601683613839565b9150614c9c82614c5d565b602082019050919050565b5f6020820190508181035f830152614cbe81614c85565b9050919050565b7f4552433230536e617073686f743a206e6f6e6578697374656e742069640000005f82015250565b5f614cf9601d83613839565b9150614d0482614cc5565b602082019050919050565b5f6020820190508181035f830152614d2681614ced565b9050919050565b7f53616665436173743a2076616c756520646f65736e27742066697420696e20335f8201527f3220626974730000000000000000000000000000000000000000000000000000602082015250565b5f614d87602683613839565b9150614d9282614d2d565b604082019050919050565b5f6020820190508181035f830152614db481614d7b565b9050919050565b7f53616665436173743a2076616c756520646f65736e27742066697420696e20345f8201527f3820626974730000000000000000000000000000000000000000000000000000602082015250565b5f614e15602683613839565b9150614e2082614dbb565b604082019050919050565b5f6020820190508181035f830152614e4281614e09565b9050919050565b5f60a082019050614e5c5f830188613a94565b614e696020830187613a94565b614e766040830186613a94565b614e8360608301856139df565b614e906080830184613b12565b9695505050505050565b7f4e487b71000000000000000000000000000000000000000000000000000000005f52601260045260245ffd5b5f614ed18261393b565b9150614edc8361393b565b925082614eec57614eeb614e9a565b5b828204905092915050565b7f5061757361626c653a206e6f74207061757365640000000000000000000000005f82015250565b5f614f2b601483613839565b9150614f3682614ef7565b602082019050919050565b5f6020820190508181035f830152614f5881614f1f565b9050919050565b7f4552433230566f7465733a20746f74616c20737570706c79207269736b73206f5f8201527f766572666c6f77696e6720766f74657300000000000000000000000000000000602082015250565b5f614fb9603083613839565b9150614fc482614f5f565b604082019050919050565b5f6020820190508181035f830152614fe681614fad565b9050919050565b5f6040820190506150005f8301856139df565b61500d60208301846139df565b9392505050565b7f5061757361626c653a20706175736564000000000000000000000000000000005f82015250565b5f615048601083613839565b915061505382615014565b602082019050919050565b5f6020820190508181035f8301526150758161503c565b9050919050565b5f60808201905061508f5f830187613a94565b61509c6020830186613a63565b6150a96040830185613a94565b6150b66060830184613a94565b95945050505050565b7f4e487b71000000000000000000000000000000000000000000000000000000005f52602160045260245ffd5b7f45434453413a20696e76616c6964207369676e617475726500000000000000005f82015250565b5f615120601883613839565b915061512b826150ec565b602082019050919050565b5f6020820190508181035f83015261514d81615114565b9050919050565b7f45434453413a20696e76616c6964207369676e6174757265206c656e677468005f82015250565b5f615188601f83613839565b915061519382615154565b602082019050919050565b5f6020820190508181035f8301526151b58161517c565b9050919050565b7f45434453413a20696e76616c6964207369676e6174757265202773272076616c5f8201527f7565000000000000000000000000000000000000000000000000000000000000602082015250565b5f615216602283613839565b9150615221826151bc565b604082019050919050565b5f6020820190508181035f8301526152438161520a565b9050919050565b7f45524332303a206d696e7420746f20746865207a65726f2061646472657373005f82015250565b5f61527e601f83613839565b91506152898261524a565b602082019050919050565b5f6020820190508181035f8301526152ab81615272565b9050919050565b7f45524332303a206275726e2066726f6d20746865207a65726f206164647265735f8201527f7300000000000000000000000000000000000000000000000000000000000000602082015250565b5f61530c602183613839565b9150615317826152b2565b604082019050919050565b5f6020820190508181035f83015261533981615300565b9050919050565b7f45524332303a206275726e20616d6f756e7420657863656564732062616c616e5f8201527f6365000000000000000000000000000000000000000000000000000000000000602082015250565b5f61539a602283613839565b91506153a582615340565b604082019050919050565b5f6020820190508181035f8301526153c78161538e565b9050919050565b7f53616665436173743a2076616c756520646f65736e27742066697420696e20325f8201527f3234206269747300000000000000000000000000000000000000000000000000602082015250565b5f615428602783613839565b9150615433826153ce565b604082019050919050565b5f6020820190508181035f8301526154558161541c565b905091905056fea264697066735822122014dfe8235d506439976295c35b87d9001b27d2a2418efce4bad7dac53167038e64736f6c63430008140033",
			"opcodes": "PUSH2 0x160 PUSH1 0x40 MSTORE CALLVALUE DUP1 ISZERO PUSH3 0x11 JUMPI PUSH0 DUP1 REVERT JUMPDEST POP PUSH1 0x40 MLOAD DUP1 PUSH1 0x40 ADD PUSH1 0x40 MSTORE DUP1 PUSH1 0x9 DUP2 MSTORE PUSH1 0x20 ADD PUSH32 0x4E69676761436F696E0000000000000000000000000000000000000000000000 DUP2 MSTORE POP DUP1 PUSH1 0x40 MLOAD DUP1 PUSH1 0x40 ADD PUSH1 0x40 MSTORE DUP1 PUSH1 0x1 DUP2 MSTORE PUSH1 0x20 ADD PUSH32 0x3100000000000000000000000000000000000000000000000000000000000000 DUP2 MSTORE POP PUSH1 0x40 MLOAD DUP1 PUSH1 0x40 ADD PUSH1 0x40 MSTORE DUP1 PUSH1 0x9 DUP2 MSTORE PUSH1 0x20 ADD PUSH32 0x4E69676761436F696E0000000000000000000000000000000000000000000000 DUP2 MSTORE POP PUSH1 0x40 MLOAD DUP1 PUSH1 0x40 ADD PUSH1 0x40 MSTORE DUP1 PUSH1 0x3 DUP2 MSTORE PUSH1 0x20 ADD PUSH32 0x4E47430000000000000000000000000000000000000000000000000000000000 DUP2 MSTORE POP DUP2 PUSH1 0x3 SWAP1 DUP2 PUSH3 0xFC SWAP2 SWAP1 PUSH3 0x13A0 JUMP JUMPDEST POP DUP1 PUSH1 0x4 SWAP1 DUP2 PUSH3 0x10E SWAP2 SWAP1 PUSH3 0x13A0 JUMP JUMPDEST POP POP POP PUSH3 0x131 PUSH3 0x125 PUSH3 0x241 PUSH1 0x20 SHL PUSH1 0x20 SHR JUMP JUMPDEST PUSH3 0x248 PUSH1 0x20 SHL PUSH1 0x20 SHR JUMP JUMPDEST PUSH0 PUSH1 0x9 PUSH1 0x14 PUSH2 0x100 EXP DUP2 SLOAD DUP2 PUSH1 0xFF MUL NOT AND SWAP1 DUP4 ISZERO ISZERO MUL OR SWAP1 SSTORE POP PUSH3 0x161 PUSH1 0xA DUP4 PUSH3 0x30B PUSH1 0x20 SHL SWAP1 SWAP2 SWAP1 PUSH1 0x20 SHR JUMP JUMPDEST PUSH2 0x120 DUP2 DUP2 MSTORE POP POP PUSH3 0x17F PUSH1 0xB DUP3 PUSH3 0x30B PUSH1 0x20 SHL SWAP1 SWAP2 SWAP1 PUSH1 0x20 SHR JUMP JUMPDEST PUSH2 0x140 DUP2 DUP2 MSTORE POP POP DUP2 DUP1 MLOAD SWAP1 PUSH1 0x20 ADD KECCAK256 PUSH1 0xE0 DUP2 DUP2 MSTORE POP POP DUP1 DUP1 MLOAD SWAP1 PUSH1 0x20 ADD KECCAK256 PUSH2 0x100 DUP2 DUP2 MSTORE POP POP CHAINID PUSH1 0xA0 DUP2 DUP2 MSTORE POP POP PUSH3 0x1BE PUSH3 0x360 PUSH1 0x20 SHL PUSH1 0x20 SHR JUMP JUMPDEST PUSH1 0x80 DUP2 DUP2 MSTORE POP POP ADDRESS PUSH20 0xFFFFFFFFFFFFFFFFFFFFFFFFFFFFFFFFFFFFFFFF AND PUSH1 0xC0 DUP2 PUSH20 0xFFFFFFFFFFFFFFFFFFFFFFFFFFFFFFFFFFFFFFFF AND DUP2 MSTORE POP POP POP POP POP PUSH3 0x23B CALLER PUSH3 0x211 PUSH3 0x3BC PUSH1 0x20 SHL PUSH1 0x20 SHR JUMP JUMPDEST PUSH1 0xA PUSH3 0x21F SWAP2 SWAP1 PUSH3 0x160D JUMP JUMPDEST PUSH3 0xAA289 PUSH3 0x22F SWAP2 SWAP1 PUSH3 0x165D JUMP JUMPDEST PUSH3 0x3C4 PUSH1 0x20 SHL PUSH1 0x20 SHR JUMP JUMPDEST PUSH3 0x1CCD JUMP JUMPDEST PUSH0 CALLER SWAP1 POP SWAP1 JUMP JUMPDEST PUSH0 PUSH1 0x9 PUSH0 SWAP1 SLOAD SWAP1 PUSH2 0x100 EXP SWAP1 DIV PUSH20 0xFFFFFFFFFFFFFFFFFFFFFFFFFFFFFFFFFFFFFFFF AND SWAP1 POP DUP2 PUSH1 0x9 PUSH0 PUSH2 0x100 EXP DUP2 SLOAD DUP2 PUSH20 0xFFFFFFFFFFFFFFFFFFFFFFFFFFFFFFFFFFFFFFFF MUL NOT AND SWAP1 DUP4 PUSH20 0xFFFFFFFFFFFFFFFFFFFFFFFFFFFFFFFFFFFFFFFF AND MUL OR SWAP1 SSTORE POP DUP2 PUSH20 0xFFFFFFFFFFFFFFFFFFFFFFFFFFFFFFFFFFFFFFFF AND DUP2 PUSH20 0xFFFFFFFFFFFFFFFFFFFFFFFFFFFFFFFFFFFFFFFF AND PUSH32 0x8BE0079C531659141344CD1FD0A4F28419497F9722A3DAAFE3B4186F6B6457E0 PUSH1 0x40 MLOAD PUSH1 0x40 MLOAD DUP1 SWAP2 SUB SWAP1 LOG3 POP POP JUMP JUMPDEST PUSH0 PUSH1 0x20 DUP4 MLOAD LT ISZERO PUSH3 0x330 JUMPI PUSH3 0x328 DUP4 PUSH3 0x3DA PUSH1 0x20 SHL PUSH1 0x20 SHR JUMP JUMPDEST SWAP1 POP PUSH3 0x35A JUMP JUMPDEST DUP3 PUSH3 0x342 DUP4 PUSH3 0x444 PUSH1 0x20 SHL PUSH1 0x20 SHR JUMP JUMPDEST PUSH0 ADD SWAP1 DUP2 PUSH3 0x352 SWAP2 SWAP1 PUSH3 0x13A0 JUMP JUMPDEST POP PUSH1 0xFF PUSH0 SHL SWAP1 POP JUMPDEST SWAP3 SWAP2 POP POP JUMP JUMPDEST PUSH0 PUSH32 0x8B73C3C69BB8FE3D512ECC4CF759CC79239F7B179B0FFACAA9A75D522B39400F PUSH1 0xE0 MLOAD PUSH2 0x100 MLOAD CHAINID ADDRESS PUSH1 0x40 MLOAD PUSH1 0x20 ADD PUSH3 0x3A1 SWAP6 SWAP5 SWAP4 SWAP3 SWAP2 SWAP1 PUSH3 0x1715 JUMP JUMPDEST PUSH1 0x40 MLOAD PUSH1 0x20 DUP2 DUP4 SUB SUB DUP2 MSTORE SWAP1 PUSH1 0x40 MSTORE DUP1 MLOAD SWAP1 PUSH1 0x20 ADD KECCAK256 SWAP1 POP SWAP1 JUMP JUMPDEST PUSH0 PUSH1 0x12 SWAP1 POP SWAP1 JUMP JUMPDEST PUSH3 0x3D6 DUP3 DUP3 PUSH3 0x44D PUSH1 0x20 SHL PUSH1 0x20 SHR JUMP JUMPDEST POP POP JUMP JUMPDEST PUSH0 DUP1 DUP3 SWAP1 POP PUSH1 0x1F DUP2 MLOAD GT ISZERO PUSH3 0x429 JUMPI DUP3 PUSH1 0x40 MLOAD PUSH32 0x305A27A900000000000000000000000000000000000000000000000000000000 DUP2 MSTORE PUSH1 0x4 ADD PUSH3 0x420 SWAP2 SWAP1 PUSH3 0x17FA JUMP JUMPDEST PUSH1 0x40 MLOAD DUP1 SWAP2 SUB SWAP1 REVERT JUMPDEST DUP1 MLOAD DUP2 PUSH3 0x437 SWAP1 PUSH3 0x184B JUMP JUMPDEST PUSH0 SHR OR PUSH0 SHL SWAP2 POP POP SWAP2 SWAP1 POP JUMP JUMPDEST PUSH0 DUP2 SWAP1 POP SWAP2 SWAP1 POP JUMP JUMPDEST PUSH3 0x45F DUP3 DUP3 PUSH3 0x506 PUSH1 0x20 SHL PUSH1 0x20 SHR JUMP JUMPDEST PUSH3 0x46F PUSH3 0x66B PUSH1 0x20 SHL PUSH1 0x20 SHR JUMP JUMPDEST PUSH28 0xFFFFFFFFFFFFFFFFFFFFFFFFFFFFFFFFFFFFFFFFFFFFFFFFFFFFFFFF AND PUSH3 0x49D PUSH3 0x68E PUSH1 0x20 SHL PUSH1 0x20 SHR JUMP JUMPDEST GT ISZERO PUSH3 0x4E1 JUMPI PUSH1 0x40 MLOAD PUSH32 0x8C379A000000000000000000000000000000000000000000000000000000000 DUP2 MSTORE PUSH1 0x4 ADD PUSH3 0x4D8 SWAP1 PUSH3 0x192E JUMP JUMPDEST PUSH1 0x40 MLOAD DUP1 SWAP2 SUB SWAP1 REVERT JUMPDEST PUSH3 0x500 PUSH1 0x10 PUSH3 0x697 PUSH1 0x20 SHL PUSH3 0x17E3 OR DUP4 PUSH3 0x6AE PUSH1 0x20 SHL PUSH1 0x20 SHR JUMP JUMPDEST POP POP POP POP JUMP JUMPDEST PUSH0 PUSH20 0xFFFFFFFFFFFFFFFFFFFFFFFFFFFFFFFFFFFFFFFF AND DUP3 PUSH20 0xFFFFFFFFFFFFFFFFFFFFFFFFFFFFFFFFFFFFFFFF AND SUB PUSH3 0x577 JUMPI PUSH1 0x40 MLOAD PUSH32 0x8C379A000000000000000000000000000000000000000000000000000000000 DUP2 MSTORE PUSH1 0x4 ADD PUSH3 0x56E SWAP1 PUSH3 0x199C JUMP JUMPDEST PUSH1 0x40 MLOAD DUP1 SWAP2 SUB SWAP1 REVERT JUMPDEST PUSH3 0x58A PUSH0 DUP4 DUP4 PUSH3 0x9B2 PUSH1 0x20 SHL PUSH1 0x20 SHR JUMP JUMPDEST DUP1 PUSH1 0x2 PUSH0 DUP3 DUP3 SLOAD PUSH3 0x59D SWAP2 SWAP1 PUSH3 0x19BC JUMP JUMPDEST SWAP3 POP POP DUP2 SWAP1 SSTORE POP DUP1 PUSH0 DUP1 DUP5 PUSH20 0xFFFFFFFFFFFFFFFFFFFFFFFFFFFFFFFFFFFFFFFF AND PUSH20 0xFFFFFFFFFFFFFFFFFFFFFFFFFFFFFFFFFFFFFFFF AND DUP2 MSTORE PUSH1 0x20 ADD SWAP1 DUP2 MSTORE PUSH1 0x20 ADD PUSH0 KECCAK256 PUSH0 DUP3 DUP3 SLOAD ADD SWAP3 POP POP DUP2 SWAP1 SSTORE POP DUP2 PUSH20 0xFFFFFFFFFFFFFFFFFFFFFFFFFFFFFFFFFFFFFFFF AND PUSH0 PUSH20 0xFFFFFFFFFFFFFFFFFFFFFFFFFFFFFFFFFFFFFFFF AND PUSH32 0xDDF252AD1BE2C89B69C2B068FC378DAA952BA7F163C4A11628F55A4DF523B3EF DUP4 PUSH1 0x40 MLOAD PUSH3 0x64C SWAP2 SWAP1 PUSH3 0x19F6 JUMP JUMPDEST PUSH1 0x40 MLOAD DUP1 SWAP2 SUB SWAP1 LOG3 PUSH3 0x667 PUSH0 DUP4 DUP4 PUSH3 0x9DA PUSH1 0x20 SHL PUSH1 0x20 SHR JUMP JUMPDEST POP POP JUMP JUMPDEST PUSH0 PUSH28 0xFFFFFFFFFFFFFFFFFFFFFFFFFFFFFFFFFFFFFFFFFFFFFFFFFFFFFFFF SWAP1 POP SWAP1 JUMP JUMPDEST PUSH0 PUSH1 0x2 SLOAD SWAP1 POP SWAP1 JUMP JUMPDEST PUSH0 DUP2 DUP4 PUSH3 0x6A6 SWAP2 SWAP1 PUSH3 0x19BC JUMP JUMPDEST SWAP1 POP SWAP3 SWAP2 POP POP JUMP JUMPDEST PUSH0 DUP1 PUSH0 DUP6 DUP1 SLOAD SWAP1 POP SWAP1 POP PUSH0 DUP1 DUP3 EQ PUSH3 0x778 JUMPI PUSH3 0x6D6 DUP8 PUSH1 0x1 DUP5 SUB PUSH3 0x9F2 PUSH1 0x20 SHL PUSH1 0x20 SHR JUMP JUMPDEST PUSH1 0x40 MLOAD DUP1 PUSH1 0x40 ADD PUSH1 0x40 MSTORE SWAP1 DUP2 PUSH0 DUP3 ADD PUSH0 SWAP1 SLOAD SWAP1 PUSH2 0x100 EXP SWAP1 DIV PUSH4 0xFFFFFFFF AND PUSH4 0xFFFFFFFF AND PUSH4 0xFFFFFFFF AND DUP2 MSTORE PUSH1 0x20 ADD PUSH0 DUP3 ADD PUSH1 0x4 SWAP1 SLOAD SWAP1 PUSH2 0x100 EXP SWAP1 DIV PUSH28 0xFFFFFFFFFFFFFFFFFFFFFFFFFFFFFFFFFFFFFFFFFFFFFFFFFFFFFFFF AND PUSH28 0xFFFFFFFFFFFFFFFFFFFFFFFFFFFFFFFFFFFFFFFFFFFFFFFFFFFFFFFF AND PUSH28 0xFFFFFFFFFFFFFFFFFFFFFFFFFFFFFFFFFFFFFFFFFFFFFFFFFFFFFFFF AND DUP2 MSTORE POP POP PUSH3 0x7B2 JUMP JUMPDEST PUSH1 0x40 MLOAD DUP1 PUSH1 0x40 ADD PUSH1 0x40 MSTORE DUP1 PUSH0 PUSH4 0xFFFFFFFF AND DUP2 MSTORE PUSH1 0x20 ADD PUSH0 PUSH28 0xFFFFFFFFFFFFFFFFFFFFFFFFFFFFFFFFFFFFFFFFFFFFFFFFFFFFFFFF AND DUP2 MSTORE POP JUMPDEST SWAP1 POP DUP1 PUSH1 0x20 ADD MLOAD PUSH28 0xFFFFFFFFFFFFFFFFFFFFFFFFFFFFFFFFFFFFFFFFFFFFFFFFFFFFFFFF AND SWAP4 POP PUSH3 0x7E5 DUP5 DUP7 DUP9 PUSH1 0x20 SHR JUMP JUMPDEST SWAP3 POP PUSH0 DUP3 GT DUP1 ISZERO PUSH3 0x816 JUMPI POP PUSH3 0x802 PUSH3 0xA04 PUSH1 0x20 SHL PUSH1 0x20 SHR JUMP JUMPDEST PUSH6 0xFFFFFFFFFFFF AND DUP2 PUSH0 ADD MLOAD PUSH4 0xFFFFFFFF AND EQ JUMPDEST ISZERO PUSH3 0x898 JUMPI PUSH3 0x82D DUP4 PUSH3 0xA1B PUSH1 0x20 SHL PUSH1 0x20 SHR JUMP JUMPDEST PUSH3 0x842 DUP9 PUSH1 0x1 DUP6 SUB PUSH3 0x9F2 PUSH1 0x20 SHL PUSH1 0x20 SHR JUMP JUMPDEST PUSH0 ADD PUSH1 0x4 PUSH2 0x100 EXP DUP2 SLOAD DUP2 PUSH28 0xFFFFFFFFFFFFFFFFFFFFFFFFFFFFFFFFFFFFFFFFFFFFFFFFFFFFFFFF MUL NOT AND SWAP1 DUP4 PUSH28 0xFFFFFFFFFFFFFFFFFFFFFFFFFFFFFFFFFFFFFFFFFFFFFFFFFFFFFFFF AND MUL OR SWAP1 SSTORE POP PUSH3 0x9A8 JUMP JUMPDEST DUP7 PUSH1 0x40 MLOAD DUP1 PUSH1 0x40 ADD PUSH1 0x40 MSTORE DUP1 PUSH3 0x8CC PUSH3 0x8B8 PUSH3 0xA04 PUSH1 0x20 SHL PUSH1 0x20 SHR JUMP JUMPDEST PUSH6 0xFFFFFFFFFFFF AND PUSH3 0xA88 PUSH1 0x20 SHL PUSH1 0x20 SHR JUMP JUMPDEST PUSH4 0xFFFFFFFF AND DUP2 MSTORE PUSH1 0x20 ADD PUSH3 0x8E8 DUP7 PUSH3 0xA1B PUSH1 0x20 SHL PUSH1 0x20 SHR JUMP JUMPDEST PUSH28 0xFFFFFFFFFFFFFFFFFFFFFFFFFFFFFFFFFFFFFFFFFFFFFFFFFFFFFFFF AND DUP2 MSTORE POP SWAP1 DUP1 PUSH1 0x1 DUP2 SLOAD ADD DUP1 DUP3 SSTORE DUP1 SWAP2 POP POP PUSH1 0x1 SWAP1 SUB SWAP1 PUSH0 MSTORE PUSH1 0x20 PUSH0 KECCAK256 ADD PUSH0 SWAP1 SWAP2 SWAP1 SWAP2 SWAP1 SWAP2 POP PUSH0 DUP3 ADD MLOAD DUP2 PUSH0 ADD PUSH0 PUSH2 0x100 EXP DUP2 SLOAD DUP2 PUSH4 0xFFFFFFFF MUL NOT AND SWAP1 DUP4 PUSH4 0xFFFFFFFF AND MUL OR SWAP1 SSTORE POP PUSH1 0x20 DUP3 ADD MLOAD DUP2 PUSH0 ADD PUSH1 0x4 PUSH2 0x100 EXP DUP2 SLOAD DUP2 PUSH28 0xFFFFFFFFFFFFFFFFFFFFFFFFFFFFFFFFFFFFFFFFFFFFFFFFFFFFFFFF MUL NOT AND SWAP1 DUP4 PUSH28 0xFFFFFFFFFFFFFFFFFFFFFFFFFFFFFFFFFFFFFFFFFFFFFFFFFFFFFFFF AND MUL OR SWAP1 SSTORE POP POP POP JUMPDEST POP POP SWAP4 POP SWAP4 SWAP2 POP POP JUMP JUMPDEST PUSH3 0x9C2 PUSH3 0xADD PUSH1 0x20 SHL PUSH1 0x20 SHR JUMP JUMPDEST PUSH3 0x9D5 DUP4 DUP4 DUP4 PUSH3 0xB32 PUSH1 0x20 SHL PUSH1 0x20 SHR JUMP JUMPDEST POP POP POP JUMP JUMPDEST PUSH3 0x9ED DUP4 DUP4 DUP4 PUSH3 0xC24 PUSH1 0x20 SHL PUSH1 0x20 SHR JUMP JUMPDEST POP POP POP JUMP JUMPDEST PUSH0 DUP3 PUSH0 MSTORE DUP2 PUSH1 0x20 PUSH0 KECCAK256 ADD SWAP1 POP SWAP3 SWAP2 POP POP JUMP JUMPDEST PUSH0 PUSH3 0xA16 NUMBER PUSH3 0xC6F PUSH1 0x20 SHL PUSH1 0x20 SHR JUMP JUMPDEST SWAP1 POP SWAP1 JUMP JUMPDEST PUSH0 PUSH28 0xFFFFFFFFFFFFFFFFFFFFFFFFFFFFFFFFFFFFFFFFFFFFFFFFFFFFFFFF DUP1 AND DUP3 GT ISZERO PUSH3 0xA80 JUMPI PUSH1 0x40 MLOAD PUSH32 0x8C379A000000000000000000000000000000000000000000000000000000000 DUP2 MSTORE PUSH1 0x4 ADD PUSH3 0xA77 SWAP1 PUSH3 0x1A85 JUMP JUMPDEST PUSH1 0x40 MLOAD DUP1 SWAP2 SUB SWAP1 REVERT JUMPDEST DUP2 SWAP1 POP SWAP2 SWAP1 POP JUMP JUMPDEST PUSH0 PUSH4 0xFFFFFFFF DUP1 AND DUP3 GT ISZERO PUSH3 0xAD5 JUMPI PUSH1 0x40 MLOAD PUSH32 0x8C379A000000000000000000000000000000000000000000000000000000000 DUP2 MSTORE PUSH1 0x4 ADD PUSH3 0xACC SWAP1 PUSH3 0x1B19 JUMP JUMPDEST PUSH1 0x40 MLOAD DUP1 SWAP2 SUB SWAP1 REVERT JUMPDEST DUP2 SWAP1 POP SWAP2 SWAP1 POP JUMP JUMPDEST PUSH3 0xAED PUSH3 0xCC6 PUSH1 0x20 SHL PUSH1 0x20 SHR JUMP JUMPDEST ISZERO PUSH3 0xB30 JUMPI PUSH1 0x40 MLOAD PUSH32 0x8C379A000000000000000000000000000000000000000000000000000000000 DUP2 MSTORE PUSH1 0x4 ADD PUSH3 0xB27 SWAP1 PUSH3 0x1B87 JUMP JUMPDEST PUSH1 0x40 MLOAD DUP1 SWAP2 SUB SWAP1 REVERT JUMPDEST JUMP JUMPDEST PUSH3 0xB45 DUP4 DUP4 DUP4 PUSH3 0xCDC PUSH1 0x20 SHL PUSH1 0x20 SHR JUMP JUMPDEST PUSH0 PUSH20 0xFFFFFFFFFFFFFFFFFFFFFFFFFFFFFFFFFFFFFFFF AND DUP4 PUSH20 0xFFFFFFFFFFFFFFFFFFFFFFFFFFFFFFFFFFFFFFFF AND SUB PUSH3 0xBA0 JUMPI PUSH3 0xB8A DUP3 PUSH3 0xCE1 PUSH1 0x20 SHL PUSH1 0x20 SHR JUMP JUMPDEST PUSH3 0xB9A PUSH3 0xD42 PUSH1 0x20 SHL PUSH1 0x20 SHR JUMP JUMPDEST PUSH3 0xC1F JUMP JUMPDEST PUSH0 PUSH20 0xFFFFFFFFFFFFFFFFFFFFFFFFFFFFFFFFFFFFFFFF AND DUP3 PUSH20 0xFFFFFFFFFFFFFFFFFFFFFFFFFFFFFFFFFFFFFFFF AND SUB PUSH3 0xBFB JUMPI PUSH3 0xBE5 DUP4 PUSH3 0xCE1 PUSH1 0x20 SHL PUSH1 0x20 SHR JUMP JUMPDEST PUSH3 0xBF5 PUSH3 0xD42 PUSH1 0x20 SHL PUSH1 0x20 SHR JUMP JUMPDEST PUSH3 0xC1E JUMP JUMPDEST PUSH3 0xC0C DUP4 PUSH3 0xCE1 PUSH1 0x20 SHL PUSH1 0x20 SHR JUMP JUMPDEST PUSH3 0xC1D DUP3 PUSH3 0xCE1 PUSH1 0x20 SHL PUSH1 0x20 SHR JUMP JUMPDEST JUMPDEST JUMPDEST POP POP POP JUMP JUMPDEST PUSH3 0xC37 DUP4 DUP4 DUP4 PUSH3 0xD66 PUSH1 0x20 SHL PUSH1 0x20 SHR JUMP JUMPDEST PUSH3 0xC6A PUSH3 0xC4C DUP5 PUSH3 0xD6B PUSH1 0x20 SHL PUSH1 0x20 SHR JUMP JUMPDEST PUSH3 0xC5D DUP5 PUSH3 0xD6B PUSH1 0x20 SHL PUSH1 0x20 SHR JUMP JUMPDEST DUP4 PUSH3 0xDD0 PUSH1 0x20 SHL PUSH1 0x20 SHR JUMP JUMPDEST POP POP POP JUMP JUMPDEST PUSH0 PUSH6 0xFFFFFFFFFFFF DUP1 AND DUP3 GT ISZERO PUSH3 0xCBE JUMPI PUSH1 0x40 MLOAD PUSH32 0x8C379A000000000000000000000000000000000000000000000000000000000 DUP2 MSTORE PUSH1 0x4 ADD PUSH3 0xCB5 SWAP1 PUSH3 0x1C1B JUMP JUMPDEST PUSH1 0x40 MLOAD DUP1 SWAP2 SUB SWAP1 REVERT JUMPDEST DUP2 SWAP1 POP SWAP2 SWAP1 POP JUMP JUMPDEST PUSH0 PUSH1 0x9 PUSH1 0x14 SWAP1 SLOAD SWAP1 PUSH2 0x100 EXP SWAP1 DIV PUSH1 0xFF AND SWAP1 POP SWAP1 JUMP JUMPDEST POP POP POP JUMP JUMPDEST PUSH3 0xD3F PUSH1 0x5 PUSH0 DUP4 PUSH20 0xFFFFFFFFFFFFFFFFFFFFFFFFFFFFFFFFFFFFFFFF AND PUSH20 0xFFFFFFFFFFFFFFFFFFFFFFFFFFFFFFFFFFFFFFFF AND DUP2 MSTORE PUSH1 0x20 ADD SWAP1 DUP2 MSTORE PUSH1 0x20 ADD PUSH0 KECCAK256 PUSH3 0xD33 DUP4 PUSH3 0xFEA PUSH1 0x20 SHL PUSH1 0x20 SHR JUMP JUMPDEST PUSH3 0x102F PUSH1 0x20 SHL PUSH1 0x20 SHR JUMP JUMPDEST POP JUMP JUMPDEST PUSH3 0xD64 PUSH1 0x6 PUSH3 0xD58 PUSH3 0x68E PUSH1 0x20 SHL PUSH1 0x20 SHR JUMP JUMPDEST PUSH3 0x102F PUSH1 0x20 SHL PUSH1 0x20 SHR JUMP JUMPDEST JUMP JUMPDEST POP POP POP JUMP JUMPDEST PUSH0 PUSH1 0xE PUSH0 DUP4 PUSH20 0xFFFFFFFFFFFFFFFFFFFFFFFFFFFFFFFFFFFFFFFF AND PUSH20 0xFFFFFFFFFFFFFFFFFFFFFFFFFFFFFFFFFFFFFFFF AND DUP2 MSTORE PUSH1 0x20 ADD SWAP1 DUP2 MSTORE PUSH1 0x20 ADD PUSH0 KECCAK256 PUSH0 SWAP1 SLOAD SWAP1 PUSH2 0x100 EXP SWAP1 DIV PUSH20 0xFFFFFFFFFFFFFFFFFFFFFFFFFFFFFFFFFFFFFFFF AND SWAP1 POP SWAP2 SWAP1 POP JUMP JUMPDEST DUP2 PUSH20 0xFFFFFFFFFFFFFFFFFFFFFFFFFFFFFFFFFFFFFFFF AND DUP4 PUSH20 0xFFFFFFFFFFFFFFFFFFFFFFFFFFFFFFFFFFFFFFFF AND EQ ISZERO DUP1 ISZERO PUSH3 0xE0C JUMPI POP PUSH0 DUP2 GT JUMPDEST ISZERO PUSH3 0xFE5 JUMPI PUSH0 PUSH20 0xFFFFFFFFFFFFFFFFFFFFFFFFFFFFFFFFFFFFFFFF AND DUP4 PUSH20 0xFFFFFFFFFFFFFFFFFFFFFFFFFFFFFFFFFFFFFFFF AND EQ PUSH3 0xEFB JUMPI PUSH0 DUP1 PUSH3 0xEA2 PUSH1 0xF PUSH0 DUP8 PUSH20 0xFFFFFFFFFFFFFFFFFFFFFFFFFFFFFFFFFFFFFFFF AND PUSH20 0xFFFFFFFFFFFFFFFFFFFFFFFFFFFFFFFFFFFFFFFF AND DUP2 MSTORE PUSH1 0x20 ADD SWAP1 DUP2 MSTORE PUSH1 0x20 ADD PUSH0 KECCAK256 PUSH3 0x10B2 PUSH1 0x20 SHL PUSH3 0x17F8 OR DUP6 PUSH3 0x6AE PUSH1 0x20 SHL PUSH1 0x20 SHR JUMP JUMPDEST SWAP2 POP SWAP2 POP DUP5 PUSH20 0xFFFFFFFFFFFFFFFFFFFFFFFFFFFFFFFFFFFFFFFF AND PUSH32 0xDEC2BACDD2F05B59DE34DA9B523DFF8BE42E5E38E818C82FDB0BAE774387A724 DUP4 DUP4 PUSH1 0x40 MLOAD PUSH3 0xEF0 SWAP3 SWAP2 SWAP1 PUSH3 0x1C3B JUMP JUMPDEST PUSH1 0x40 MLOAD DUP1 SWAP2 SUB SWAP1 LOG2 POP POP JUMPDEST PUSH0 PUSH20 0xFFFFFFFFFFFFFFFFFFFFFFFFFFFFFFFFFFFFFFFF AND DUP3 PUSH20 0xFFFFFFFFFFFFFFFFFFFFFFFFFFFFFFFFFFFFFFFF AND EQ PUSH3 0xFE4 JUMPI PUSH0 DUP1 PUSH3 0xF8B PUSH1 0xF PUSH0 DUP7 PUSH20 0xFFFFFFFFFFFFFFFFFFFFFFFFFFFFFFFFFFFFFFFF AND PUSH20 0xFFFFFFFFFFFFFFFFFFFFFFFFFFFFFFFFFFFFFFFF AND DUP2 MSTORE PUSH1 0x20 ADD SWAP1 DUP2 MSTORE PUSH1 0x20 ADD PUSH0 KECCAK256 PUSH3 0x697 PUSH1 0x20 SHL PUSH3 0x17E3 OR DUP6 PUSH3 0x6AE PUSH1 0x20 SHL PUSH1 0x20 SHR JUMP JUMPDEST SWAP2 POP SWAP2 POP DUP4 PUSH20 0xFFFFFFFFFFFFFFFFFFFFFFFFFFFFFFFFFFFFFFFF AND PUSH32 0xDEC2BACDD2F05B59DE34DA9B523DFF8BE42E5E38E818C82FDB0BAE774387A724 DUP4 DUP4 PUSH1 0x40 MLOAD PUSH3 0xFD9 SWAP3 SWAP2 SWAP1 PUSH3 0x1C3B JUMP JUMPDEST PUSH1 0x40 MLOAD DUP1 SWAP2 SUB SWAP1 LOG2 POP POP JUMPDEST JUMPDEST POP POP POP JUMP JUMPDEST PUSH0 DUP1 PUSH0 DUP4 PUSH20 0xFFFFFFFFFFFFFFFFFFFFFFFFFFFFFFFFFFFFFFFF AND PUSH20 0xFFFFFFFFFFFFFFFFFFFFFFFFFFFFFFFFFFFFFFFF AND DUP2 MSTORE PUSH1 0x20 ADD SWAP1 DUP2 MSTORE PUSH1 0x20 ADD PUSH0 KECCAK256 SLOAD SWAP1 POP SWAP2 SWAP1 POP JUMP JUMPDEST PUSH0 PUSH3 0x1040 PUSH3 0x10C9 PUSH1 0x20 SHL PUSH1 0x20 SHR JUMP JUMPDEST SWAP1 POP DUP1 PUSH3 0x1056 DUP5 PUSH0 ADD PUSH3 0x10E1 PUSH1 0x20 SHL PUSH1 0x20 SHR JUMP JUMPDEST LT ISZERO PUSH3 0x10AD JUMPI DUP3 PUSH0 ADD DUP2 SWAP1 DUP1 PUSH1 0x1 DUP2 SLOAD ADD DUP1 DUP3 SSTORE DUP1 SWAP2 POP POP PUSH1 0x1 SWAP1 SUB SWAP1 PUSH0 MSTORE PUSH1 0x20 PUSH0 KECCAK256 ADD PUSH0 SWAP1 SWAP2 SWAP1 SWAP2 SWAP1 SWAP2 POP SSTORE DUP3 PUSH1 0x1 ADD DUP3 SWAP1 DUP1 PUSH1 0x1 DUP2 SLOAD ADD DUP1 DUP3 SSTORE DUP1 SWAP2 POP POP PUSH1 0x1 SWAP1 SUB SWAP1 PUSH0 MSTORE PUSH1 0x20 PUSH0 KECCAK256 ADD PUSH0 SWAP1 SWAP2 SWAP1 SWAP2 SWAP1 SWAP2 POP SSTORE JUMPDEST POP POP POP JUMP JUMPDEST PUSH0 DUP2 DUP4 PUSH3 0x10C1 SWAP2 SWAP1 PUSH3 0x1C66 JUMP JUMPDEST SWAP1 POP SWAP3 SWAP2 POP POP JUMP JUMPDEST PUSH0 PUSH3 0x10DC PUSH1 0x8 PUSH3 0x1130 PUSH1 0x20 SHL PUSH1 0x20 SHR JUMP JUMPDEST SWAP1 POP SWAP1 JUMP JUMPDEST PUSH0 DUP1 DUP3 DUP1 SLOAD SWAP1 POP SUB PUSH3 0x10F7 JUMPI PUSH0 SWAP1 POP PUSH3 0x112B JUMP JUMPDEST DUP2 PUSH1 0x1 DUP4 DUP1 SLOAD SWAP1 POP PUSH3 0x110B SWAP2 SWAP1 PUSH3 0x1C66 JUMP JUMPDEST DUP2 SLOAD DUP2 LT PUSH3 0x111F JUMPI PUSH3 0x111E PUSH3 0x1CA0 JUMP JUMPDEST JUMPDEST SWAP1 PUSH0 MSTORE PUSH1 0x20 PUSH0 KECCAK256 ADD SLOAD SWAP1 POP JUMPDEST SWAP2 SWAP1 POP JUMP JUMPDEST PUSH0 DUP2 PUSH0 ADD SLOAD SWAP1 POP SWAP2 SWAP1 POP JUMP JUMPDEST PUSH0 DUP2 MLOAD SWAP1 POP SWAP2 SWAP1 POP JUMP JUMPDEST PUSH32 0x4E487B7100000000000000000000000000000000000000000000000000000000 PUSH0 MSTORE PUSH1 0x41 PUSH1 0x4 MSTORE PUSH1 0x24 PUSH0 REVERT JUMPDEST PUSH32 0x4E487B7100000000000000000000000000000000000000000000000000000000 PUSH0 MSTORE PUSH1 0x22 PUSH1 0x4 MSTORE PUSH1 0x24 PUSH0 REVERT JUMPDEST PUSH0 PUSH1 0x2 DUP3 DIV SWAP1 POP PUSH1 0x1 DUP3 AND DUP1 PUSH3 0x11B8 JUMPI PUSH1 0x7F DUP3 AND SWAP2 POP JUMPDEST PUSH1 0x20 DUP3 LT DUP2 SUB PUSH3 0x11CE JUMPI PUSH3 0x11CD PUSH3 0x1173 JUMP JUMPDEST JUMPDEST POP SWAP2 SWAP1 POP JUMP JUMPDEST PUSH0 DUP2 SWAP1 POP DUP2 PUSH0 MSTORE PUSH1 0x20 PUSH0 KECCAK256 SWAP1 POP SWAP2 SWAP1 POP JUMP JUMPDEST PUSH0 PUSH1 0x20 PUSH1 0x1F DUP4 ADD DIV SWAP1 POP SWAP2 SWAP1 POP JUMP JUMPDEST PUSH0 DUP3 DUP3 SHL SWAP1 POP SWAP3 SWAP2 POP POP JUMP JUMPDEST PUSH0 PUSH1 0x8 DUP4 MUL PUSH3 0x1232 PUSH32 0xFFFFFFFFFFFFFFFFFFFFFFFFFFFFFFFFFFFFFFFFFFFFFFFFFFFFFFFFFFFFFFFF DUP3 PUSH3 0x11F5 JUMP JUMPDEST PUSH3 0x123E DUP7 DUP4 PUSH3 0x11F5 JUMP JUMPDEST SWAP6 POP DUP1 NOT DUP5 AND SWAP4 POP DUP1 DUP7 AND DUP5 OR SWAP3 POP POP POP SWAP4 SWAP3 POP POP POP JUMP JUMPDEST PUSH0 DUP2 SWAP1 POP SWAP2 SWAP1 POP JUMP JUMPDEST PUSH0 DUP2 SWAP1 POP SWAP2 SWAP1 POP JUMP JUMPDEST PUSH0 PUSH3 0x1288 PUSH3 0x1282 PUSH3 0x127C DUP5 PUSH3 0x1256 JUMP JUMPDEST PUSH3 0x125F JUMP JUMPDEST PUSH3 0x1256 JUMP JUMPDEST SWAP1 POP SWAP2 SWAP1 POP JUMP JUMPDEST PUSH0 DUP2 SWAP1 POP SWAP2 SWAP1 POP JUMP JUMPDEST PUSH3 0x12A3 DUP4 PUSH3 0x1268 JUMP JUMPDEST PUSH3 0x12BB PUSH3 0x12B2 DUP3 PUSH3 0x128F JUMP JUMPDEST DUP5 DUP5 SLOAD PUSH3 0x1201 JUMP JUMPDEST DUP3 SSTORE POP POP POP POP JUMP JUMPDEST PUSH0 SWAP1 JUMP JUMPDEST PUSH3 0x12D1 PUSH3 0x12C3 JUMP JUMPDEST PUSH3 0x12DE DUP2 DUP5 DUP5 PUSH3 0x1298 JUMP JUMPDEST POP POP POP JUMP JUMPDEST JUMPDEST DUP2 DUP2 LT ISZERO PUSH3 0x1305 JUMPI PUSH3 0x12F9 PUSH0 DUP3 PUSH3 0x12C7 JUMP JUMPDEST PUSH1 0x1 DUP2 ADD SWAP1 POP PUSH3 0x12E4 JUMP JUMPDEST POP POP JUMP JUMPDEST PUSH1 0x1F DUP3 GT ISZERO PUSH3 0x1354 JUMPI PUSH3 0x131E DUP2 PUSH3 0x11D4 JUMP JUMPDEST PUSH3 0x1329 DUP5 PUSH3 0x11E6 JUMP JUMPDEST DUP2 ADD PUSH1 0x20 DUP6 LT ISZERO PUSH3 0x1339 JUMPI DUP2 SWAP1 POP JUMPDEST PUSH3 0x1351 PUSH3 0x1348 DUP6 PUSH3 0x11E6 JUMP JUMPDEST DUP4 ADD DUP3 PUSH3 0x12E3 JUMP JUMPDEST POP POP JUMPDEST POP POP POP JUMP JUMPDEST PUSH0 DUP3 DUP3 SHR SWAP1 POP SWAP3 SWAP2 POP POP JUMP JUMPDEST PUSH0 PUSH3 0x1376 PUSH0 NOT DUP5 PUSH1 0x8 MUL PUSH3 0x1359 JUMP JUMPDEST NOT DUP1 DUP4 AND SWAP2 POP POP SWAP3 SWAP2 POP POP JUMP JUMPDEST PUSH0 PUSH3 0x1390 DUP4 DUP4 PUSH3 0x1365 JUMP JUMPDEST SWAP2 POP DUP3 PUSH1 0x2 MUL DUP3 OR SWAP1 POP SWAP3 SWAP2 POP POP JUMP JUMPDEST PUSH3 0x13AB DUP3 PUSH3 0x113C JUMP JUMPDEST PUSH8 0xFFFFFFFFFFFFFFFF DUP2 GT ISZERO PUSH3 0x13C7 JUMPI PUSH3 0x13C6 PUSH3 0x1146 JUMP JUMPDEST JUMPDEST PUSH3 0x13D3 DUP3 SLOAD PUSH3 0x11A0 JUMP JUMPDEST PUSH3 0x13E0 DUP3 DUP3 DUP6 PUSH3 0x1309 JUMP JUMPDEST PUSH0 PUSH1 0x20 SWAP1 POP PUSH1 0x1F DUP4 GT PUSH1 0x1 DUP2 EQ PUSH3 0x1416 JUMPI PUSH0 DUP5 ISZERO PUSH3 0x1401 JUMPI DUP3 DUP8 ADD MLOAD SWAP1 POP JUMPDEST PUSH3 0x140D DUP6 DUP3 PUSH3 0x1383 JUMP JUMPDEST DUP7 SSTORE POP PUSH3 0x147C JUMP JUMPDEST PUSH1 0x1F NOT DUP5 AND PUSH3 0x1426 DUP7 PUSH3 0x11D4 JUMP JUMPDEST PUSH0 JUMPDEST DUP3 DUP2 LT ISZERO PUSH3 0x144F JUMPI DUP5 DUP10 ADD MLOAD DUP3 SSTORE PUSH1 0x1 DUP3 ADD SWAP2 POP PUSH1 0x20 DUP6 ADD SWAP5 POP PUSH1 0x20 DUP2 ADD SWAP1 POP PUSH3 0x1428 JUMP JUMPDEST DUP7 DUP4 LT ISZERO PUSH3 0x146F JUMPI DUP5 DUP10 ADD MLOAD PUSH3 0x146B PUSH1 0x1F DUP10 AND DUP3 PUSH3 0x1365 JUMP JUMPDEST DUP4 SSTORE POP JUMPDEST PUSH1 0x1 PUSH1 0x2 DUP9 MUL ADD DUP9 SSTORE POP POP POP JUMPDEST POP POP POP POP POP POP JUMP JUMPDEST PUSH32 0x4E487B7100000000000000000000000000000000000000000000000000000000 PUSH0 MSTORE PUSH1 0x11 PUSH1 0x4 MSTORE PUSH1 0x24 PUSH0 REVERT JUMPDEST PUSH0 DUP2 PUSH1 0x1 SHR SWAP1 POP SWAP2 SWAP1 POP JUMP JUMPDEST PUSH0 DUP1 DUP3 SWAP2 POP DUP4 SWAP1 POP JUMPDEST PUSH1 0x1 DUP6 GT ISZERO PUSH3 0x150E JUMPI DUP1 DUP7 DIV DUP2 GT ISZERO PUSH3 0x14E6 JUMPI PUSH3 0x14E5 PUSH3 0x1484 JUMP JUMPDEST JUMPDEST PUSH1 0x1 DUP6 AND ISZERO PUSH3 0x14F6 JUMPI DUP1 DUP3 MUL SWAP2 POP JUMPDEST DUP1 DUP2 MUL SWAP1 POP PUSH3 0x1506 DUP6 PUSH3 0x14B1 JUMP JUMPDEST SWAP5 POP PUSH3 0x14C6 JUMP JUMPDEST SWAP5 POP SWAP5 SWAP3 POP POP POP JUMP JUMPDEST PUSH0 DUP3 PUSH3 0x1528 JUMPI PUSH1 0x1 SWAP1 POP PUSH3 0x15FA JUMP JUMPDEST DUP2 PUSH3 0x1537 JUMPI PUSH0 SWAP1 POP PUSH3 0x15FA JUMP JUMPDEST DUP2 PUSH1 0x1 DUP2 EQ PUSH3 0x1550 JUMPI PUSH1 0x2 DUP2 EQ PUSH3 0x155B JUMPI PUSH3 0x1591 JUMP JUMPDEST PUSH1 0x1 SWAP2 POP POP PUSH3 0x15FA JUMP JUMPDEST PUSH1 0xFF DUP5 GT ISZERO PUSH3 0x1570 JUMPI PUSH3 0x156F PUSH3 0x1484 JUMP JUMPDEST JUMPDEST DUP4 PUSH1 0x2 EXP SWAP2 POP DUP5 DUP3 GT ISZERO PUSH3 0x158A JUMPI PUSH3 0x1589 PUSH3 0x1484 JUMP JUMPDEST JUMPDEST POP PUSH3 0x15FA JUMP JUMPDEST POP PUSH1 0x20 DUP4 LT PUSH2 0x133 DUP4 LT AND PUSH1 0x4E DUP5 LT PUSH1 0xB DUP5 LT AND OR ISZERO PUSH3 0x15CB JUMPI DUP3 DUP3 EXP SWAP1 POP DUP4 DUP2 GT ISZERO PUSH3 0x15C5 JUMPI PUSH3 0x15C4 PUSH3 0x1484 JUMP JUMPDEST JUMPDEST PUSH3 0x15FA JUMP JUMPDEST PUSH3 0x15DA DUP5 DUP5 DUP5 PUSH1 0x1 PUSH3 0x14BD JUMP JUMPDEST SWAP3 POP SWAP1 POP DUP2 DUP5 DIV DUP2 GT ISZERO PUSH3 0x15F4 JUMPI PUSH3 0x15F3 PUSH3 0x1484 JUMP JUMPDEST JUMPDEST DUP2 DUP2 MUL SWAP1 POP JUMPDEST SWAP4 SWAP3 POP POP POP JUMP JUMPDEST PUSH0 PUSH1 0xFF DUP3 AND SWAP1 POP SWAP2 SWAP1 POP JUMP JUMPDEST PUSH0 PUSH3 0x1619 DUP3 PUSH3 0x1256 JUMP JUMPDEST SWAP2 POP PUSH3 0x1626 DUP4 PUSH3 0x1601 JUMP JUMPDEST SWAP3 POP PUSH3 0x1655 PUSH32 0xFFFFFFFFFFFFFFFFFFFFFFFFFFFFFFFFFFFFFFFFFFFFFFFFFFFFFFFFFFFFFFFF DUP5 DUP5 PUSH3 0x1517 JUMP JUMPDEST SWAP1 POP SWAP3 SWAP2 POP POP JUMP JUMPDEST PUSH0 PUSH3 0x1669 DUP3 PUSH3 0x1256 JUMP JUMPDEST SWAP2 POP PUSH3 0x1676 DUP4 PUSH3 0x1256 JUMP JUMPDEST SWAP3 POP DUP3 DUP3 MUL PUSH3 0x1686 DUP2 PUSH3 0x1256 JUMP JUMPDEST SWAP2 POP DUP3 DUP3 DIV DUP5 EQ DUP4 ISZERO OR PUSH3 0x16A0 JUMPI PUSH3 0x169F PUSH3 0x1484 JUMP JUMPDEST JUMPDEST POP SWAP3 SWAP2 POP POP JUMP JUMPDEST PUSH0 DUP2 SWAP1 POP SWAP2 SWAP1 POP JUMP JUMPDEST PUSH3 0x16BB DUP2 PUSH3 0x16A7 JUMP JUMPDEST DUP3 MSTORE POP POP JUMP JUMPDEST PUSH3 0x16CC DUP2 PUSH3 0x1256 JUMP JUMPDEST DUP3 MSTORE POP POP JUMP JUMPDEST PUSH0 PUSH20 0xFFFFFFFFFFFFFFFFFFFFFFFFFFFFFFFFFFFFFFFF DUP3 AND SWAP1 POP SWAP2 SWAP1 POP JUMP JUMPDEST PUSH0 PUSH3 0x16FD DUP3 PUSH3 0x16D2 JUMP JUMPDEST SWAP1 POP SWAP2 SWAP1 POP JUMP JUMPDEST PUSH3 0x170F DUP2 PUSH3 0x16F1 JUMP JUMPDEST DUP3 MSTORE POP POP JUMP JUMPDEST PUSH0 PUSH1 0xA0 DUP3 ADD SWAP1 POP PUSH3 0x172A PUSH0 DUP4 ADD DUP9 PUSH3 0x16B0 JUMP JUMPDEST PUSH3 0x1739 PUSH1 0x20 DUP4 ADD DUP8 PUSH3 0x16B0 JUMP JUMPDEST PUSH3 0x1748 PUSH1 0x40 DUP4 ADD DUP7 PUSH3 0x16B0 JUMP JUMPDEST PUSH3 0x1757 PUSH1 0x60 DUP4 ADD DUP6 PUSH3 0x16C1 JUMP JUMPDEST PUSH3 0x1766 PUSH1 0x80 DUP4 ADD DUP5 PUSH3 0x1704 JUMP JUMPDEST SWAP7 SWAP6 POP POP POP POP POP POP JUMP JUMPDEST PUSH0 DUP3 DUP3 MSTORE PUSH1 0x20 DUP3 ADD SWAP1 POP SWAP3 SWAP2 POP POP JUMP JUMPDEST PUSH0 JUMPDEST DUP4 DUP2 LT ISZERO PUSH3 0x179F JUMPI DUP1 DUP3 ADD MLOAD DUP2 DUP5 ADD MSTORE PUSH1 0x20 DUP2 ADD SWAP1 POP PUSH3 0x1782 JUMP JUMPDEST PUSH0 DUP5 DUP5 ADD MSTORE POP POP POP POP JUMP JUMPDEST PUSH0 PUSH1 0x1F NOT PUSH1 0x1F DUP4 ADD AND SWAP1 POP SWAP2 SWAP1 POP JUMP JUMPDEST PUSH0 PUSH3 0x17C6 DUP3 PUSH3 0x113C JUMP JUMPDEST PUSH3 0x17D2 DUP2 DUP6 PUSH3 0x1770 JUMP JUMPDEST SWAP4 POP PUSH3 0x17E4 DUP2 DUP6 PUSH1 0x20 DUP7 ADD PUSH3 0x1780 JUMP JUMPDEST PUSH3 0x17EF DUP2 PUSH3 0x17AA JUMP JUMPDEST DUP5 ADD SWAP2 POP POP SWAP3 SWAP2 POP POP JUMP JUMPDEST PUSH0 PUSH1 0x20 DUP3 ADD SWAP1 POP DUP2 DUP2 SUB PUSH0 DUP4 ADD MSTORE PUSH3 0x1814 DUP2 DUP5 PUSH3 0x17BA JUMP JUMPDEST SWAP1 POP SWAP3 SWAP2 POP POP JUMP JUMPDEST PUSH0 DUP2 MLOAD SWAP1 POP SWAP2 SWAP1 POP JUMP JUMPDEST PUSH0 DUP2 SWAP1 POP PUSH1 0x20 DUP3 ADD SWAP1 POP SWAP2 SWAP1 POP JUMP JUMPDEST PUSH0 PUSH3 0x1842 DUP3 MLOAD PUSH3 0x16A7 JUMP JUMPDEST DUP1 SWAP2 POP POP SWAP2 SWAP1 POP JUMP JUMPDEST PUSH0 PUSH3 0x1857 DUP3 PUSH3 0x181C JUMP JUMPDEST DUP3 PUSH3 0x1863 DUP5 PUSH3 0x1826 JUMP JUMPDEST SWAP1 POP PUSH3 0x1870 DUP2 PUSH3 0x1835 JUMP JUMPDEST SWAP3 POP PUSH1 0x20 DUP3 LT ISZERO PUSH3 0x18B3 JUMPI PUSH3 0x18AE PUSH32 0xFFFFFFFFFFFFFFFFFFFFFFFFFFFFFFFFFFFFFFFFFFFFFFFFFFFFFFFFFFFFFFFF DUP4 PUSH1 0x20 SUB PUSH1 0x8 MUL PUSH3 0x11F5 JUMP JUMPDEST DUP4 AND SWAP3 POP JUMPDEST POP POP SWAP2 SWAP1 POP JUMP JUMPDEST PUSH32 0x4552433230566F7465733A20746F74616C20737570706C79207269736B73206F PUSH0 DUP3 ADD MSTORE PUSH32 0x766572666C6F77696E6720766F74657300000000000000000000000000000000 PUSH1 0x20 DUP3 ADD MSTORE POP JUMP JUMPDEST PUSH0 PUSH3 0x1916 PUSH1 0x30 DUP4 PUSH3 0x1770 JUMP JUMPDEST SWAP2 POP PUSH3 0x1923 DUP3 PUSH3 0x18BA JUMP JUMPDEST PUSH1 0x40 DUP3 ADD SWAP1 POP SWAP2 SWAP1 POP JUMP JUMPDEST PUSH0 PUSH1 0x20 DUP3 ADD SWAP1 POP DUP2 DUP2 SUB PUSH0 DUP4 ADD MSTORE PUSH3 0x1947 DUP2 PUSH3 0x1908 JUMP JUMPDEST SWAP1 POP SWAP2 SWAP1 POP JUMP JUMPDEST PUSH32 0x45524332303A206D696E7420746F20746865207A65726F206164647265737300 PUSH0 DUP3 ADD MSTORE POP JUMP JUMPDEST PUSH0 PUSH3 0x1984 PUSH1 0x1F DUP4 PUSH3 0x1770 JUMP JUMPDEST SWAP2 POP PUSH3 0x1991 DUP3 PUSH3 0x194E JUMP JUMPDEST PUSH1 0x20 DUP3 ADD SWAP1 POP SWAP2 SWAP1 POP JUMP JUMPDEST PUSH0 PUSH1 0x20 DUP3 ADD SWAP1 POP DUP2 DUP2 SUB PUSH0 DUP4 ADD MSTORE PUSH3 0x19B5 DUP2 PUSH3 0x1976 JUMP JUMPDEST SWAP1 POP SWAP2 SWAP1 POP JUMP JUMPDEST PUSH0 PUSH3 0x19C8 DUP3 PUSH3 0x1256 JUMP JUMPDEST SWAP2 POP PUSH3 0x19D5 DUP4 PUSH3 0x1256 JUMP JUMPDEST SWAP3 POP DUP3 DUP3 ADD SWAP1 POP DUP1 DUP3 GT ISZERO PUSH3 0x19F0 JUMPI PUSH3 0x19EF PUSH3 0x1484 JUMP JUMPDEST JUMPDEST SWAP3 SWAP2 POP POP JUMP JUMPDEST PUSH0 PUSH1 0x20 DUP3 ADD SWAP1 POP PUSH3 0x1A0B PUSH0 DUP4 ADD DUP5 PUSH3 0x16C1 JUMP JUMPDEST SWAP3 SWAP2 POP POP JUMP JUMPDEST PUSH32 0x53616665436173743A2076616C756520646F65736E27742066697420696E2032 PUSH0 DUP3 ADD MSTORE PUSH32 0x3234206269747300000000000000000000000000000000000000000000000000 PUSH1 0x20 DUP3 ADD MSTORE POP JUMP JUMPDEST PUSH0 PUSH3 0x1A6D PUSH1 0x27 DUP4 PUSH3 0x1770 JUMP JUMPDEST SWAP2 POP PUSH3 0x1A7A DUP3 PUSH3 0x1A11 JUMP JUMPDEST PUSH1 0x40 DUP3 ADD SWAP1 POP SWAP2 SWAP1 POP JUMP JUMPDEST PUSH0 PUSH1 0x20 DUP3 ADD SWAP1 POP DUP2 DUP2 SUB PUSH0 DUP4 ADD MSTORE PUSH3 0x1A9E DUP2 PUSH3 0x1A5F JUMP JUMPDEST SWAP1 POP SWAP2 SWAP1 POP JUMP JUMPDEST PUSH32 0x53616665436173743A2076616C756520646F65736E27742066697420696E2033 PUSH0 DUP3 ADD MSTORE PUSH32 0x3220626974730000000000000000000000000000000000000000000000000000 PUSH1 0x20 DUP3 ADD MSTORE POP JUMP JUMPDEST PUSH0 PUSH3 0x1B01 PUSH1 0x26 DUP4 PUSH3 0x1770 JUMP JUMPDEST SWAP2 POP PUSH3 0x1B0E DUP3 PUSH3 0x1AA5 JUMP JUMPDEST PUSH1 0x40 DUP3 ADD SWAP1 POP SWAP2 SWAP1 POP JUMP JUMPDEST PUSH0 PUSH1 0x20 DUP3 ADD SWAP1 POP DUP2 DUP2 SUB PUSH0 DUP4 ADD MSTORE PUSH3 0x1B32 DUP2 PUSH3 0x1AF3 JUMP JUMPDEST SWAP1 POP SWAP2 SWAP1 POP JUMP JUMPDEST PUSH32 0x5061757361626C653A2070617573656400000000000000000000000000000000 PUSH0 DUP3 ADD MSTORE POP JUMP JUMPDEST PUSH0 PUSH3 0x1B6F PUSH1 0x10 DUP4 PUSH3 0x1770 JUMP JUMPDEST SWAP2 POP PUSH3 0x1B7C DUP3 PUSH3 0x1B39 JUMP JUMPDEST PUSH1 0x20 DUP3 ADD SWAP1 POP SWAP2 SWAP1 POP JUMP JUMPDEST PUSH0 PUSH1 0x20 DUP3 ADD SWAP1 POP DUP2 DUP2 SUB PUSH0 DUP4 ADD MSTORE PUSH3 0x1BA0 DUP2 PUSH3 0x1B61 JUMP JUMPDEST SWAP1 POP SWAP2 SWAP1 POP JUMP JUMPDEST PUSH32 0x53616665436173743A2076616C756520646F65736E27742066697420696E2034 PUSH0 DUP3 ADD MSTORE PUSH32 0x3820626974730000000000000000000000000000000000000000000000000000 PUSH1 0x20 DUP3 ADD MSTORE POP JUMP JUMPDEST PUSH0 PUSH3 0x1C03 PUSH1 0x26 DUP4 PUSH3 0x1770 JUMP JUMPDEST SWAP2 POP PUSH3 0x1C10 DUP3 PUSH3 0x1BA7 JUMP JUMPDEST PUSH1 0x40 DUP3 ADD SWAP1 POP SWAP2 SWAP1 POP JUMP JUMPDEST PUSH0 PUSH1 0x20 DUP3 ADD SWAP1 POP DUP2 DUP2 SUB PUSH0 DUP4 ADD MSTORE PUSH3 0x1C34 DUP2 PUSH3 0x1BF5 JUMP JUMPDEST SWAP1 POP SWAP2 SWAP1 POP JUMP JUMPDEST PUSH0 PUSH1 0x40 DUP3 ADD SWAP1 POP PUSH3 0x1C50 PUSH0 DUP4 ADD DUP6 PUSH3 0x16C1 JUMP JUMPDEST PUSH3 0x1C5F PUSH1 0x20 DUP4 ADD DUP5 PUSH3 0x16C1 JUMP JUMPDEST SWAP4 SWAP3 POP POP POP JUMP JUMPDEST PUSH0 PUSH3 0x1C72 DUP3 PUSH3 0x1256 JUMP JUMPDEST SWAP2 POP PUSH3 0x1C7F DUP4 PUSH3 0x1256 JUMP JUMPDEST SWAP3 POP DUP3 DUP3 SUB SWAP1 POP DUP2 DUP2 GT ISZERO PUSH3 0x1C9A JUMPI PUSH3 0x1C99 PUSH3 0x1484 JUMP JUMPDEST JUMPDEST SWAP3 SWAP2 POP POP JUMP JUMPDEST PUSH32 0x4E487B7100000000000000000000000000000000000000000000000000000000 PUSH0 MSTORE PUSH1 0x32 PUSH1 0x4 MSTORE PUSH1 0x24 PUSH0 REVERT JUMPDEST PUSH1 0x80 MLOAD PUSH1 0xA0 MLOAD PUSH1 0xC0 MLOAD PUSH1 0xE0 MLOAD PUSH2 0x100 MLOAD PUSH2 0x120 MLOAD PUSH2 0x140 MLOAD PUSH2 0x5492 PUSH3 0x1D1F PUSH0 CODECOPY PUSH0 PUSH2 0xF58 ADD MSTORE PUSH0 PUSH2 0xF24 ADD MSTORE PUSH0 PUSH2 0x25AD ADD MSTORE PUSH0 PUSH2 0x258C ADD MSTORE PUSH0 PUSH2 0x1CD1 ADD MSTORE PUSH0 PUSH2 0x1D27 ADD MSTORE PUSH0 PUSH2 0x1D50 ADD MSTORE PUSH2 0x5492 PUSH0 RETURN INVALID PUSH1 0x80 PUSH1 0x40 MSTORE CALLVALUE DUP1 ISZERO PUSH2 0xF JUMPI PUSH0 DUP1 REVERT JUMPDEST POP PUSH1 0x4 CALLDATASIZE LT PUSH2 0x246 JUMPI PUSH0 CALLDATALOAD PUSH1 0xE0 SHR DUP1 PUSH4 0x715018A6 GT PUSH2 0x139 JUMPI DUP1 PUSH4 0x981B24D0 GT PUSH2 0xB6 JUMPI DUP1 PUSH4 0xD505ACCF GT PUSH2 0x7A JUMPI DUP1 PUSH4 0xD505ACCF EQ PUSH2 0x730 JUMPI DUP1 PUSH4 0xD9D98CE4 EQ PUSH2 0x74C JUMPI DUP1 PUSH4 0xDD62ED3E EQ PUSH2 0x77C JUMPI DUP1 PUSH4 0xF1127ED8 EQ PUSH2 0x7AC JUMPI DUP1 PUSH4 0xF2FDE38B EQ PUSH2 0x7DC JUMPI PUSH2 0x246 JUMP JUMPDEST DUP1 PUSH4 0x981B24D0 EQ PUSH2 0x654 JUMPI DUP1 PUSH4 0x9AB24EB0 EQ PUSH2 0x684 JUMPI DUP1 PUSH4 0xA457C2D7 EQ PUSH2 0x6B4 JUMPI DUP1 PUSH4 0xA9059CBB EQ PUSH2 0x6E4 JUMPI DUP1 PUSH4 0xC3CDA520 EQ PUSH2 0x714 JUMPI PUSH2 0x246 JUMP JUMPDEST DUP1 PUSH4 0x8DA5CB5B GT PUSH2 0xFD JUMPI DUP1 PUSH4 0x8DA5CB5B EQ PUSH2 0x5C0 JUMPI DUP1 PUSH4 0x8E539E8C EQ PUSH2 0x5DE JUMPI DUP1 PUSH4 0x91DDADF4 EQ PUSH2 0x60E JUMPI DUP1 PUSH4 0x95D89B41 EQ PUSH2 0x62C JUMPI DUP1 PUSH4 0x9711715A EQ PUSH2 0x64A JUMPI PUSH2 0x246 JUMP JUMPDEST DUP1 PUSH4 0x715018A6 EQ PUSH2 0x53C JUMPI DUP1 PUSH4 0x79CC6790 EQ PUSH2 0x546 JUMPI DUP1 PUSH4 0x7ECEBE00 EQ PUSH2 0x562 JUMPI DUP1 PUSH4 0x8456CB59 EQ PUSH2 0x592 JUMPI DUP1 PUSH4 0x84B0196E EQ PUSH2 0x59C JUMPI PUSH2 0x246 JUMP JUMPDEST DUP1 PUSH4 0x42966C68 GT PUSH2 0x1C7 JUMPI DUP1 PUSH4 0x5C975ABB GT PUSH2 0x18B JUMPI DUP1 PUSH4 0x5C975ABB EQ PUSH2 0x45E JUMPI DUP1 PUSH4 0x5CFFE9DE EQ PUSH2 0x47C JUMPI DUP1 PUSH4 0x613255AB EQ PUSH2 0x4AC JUMPI DUP1 PUSH4 0x6FCFFF45 EQ PUSH2 0x4DC JUMPI DUP1 PUSH4 0x70A08231 EQ PUSH2 0x50C JUMPI PUSH2 0x246 JUMP JUMPDEST DUP1 PUSH4 0x42966C68 EQ PUSH2 0x3A8 JUMPI DUP1 PUSH4 0x4BF5D7E9 EQ PUSH2 0x3C4 JUMPI DUP1 PUSH4 0x4EE2CD7E EQ PUSH2 0x3E2 JUMPI DUP1 PUSH4 0x587CDE1E EQ PUSH2 0x412 JUMPI DUP1 PUSH4 0x5C19A95C EQ PUSH2 0x442 JUMPI PUSH2 0x246 JUMP JUMPDEST DUP1 PUSH4 0x3644E515 GT PUSH2 0x20E JUMPI DUP1 PUSH4 0x3644E515 EQ PUSH2 0x304 JUMPI DUP1 PUSH4 0x39509351 EQ PUSH2 0x322 JUMPI DUP1 PUSH4 0x3A46B1A8 EQ PUSH2 0x352 JUMPI DUP1 PUSH4 0x3F4BA83A EQ PUSH2 0x382 JUMPI DUP1 PUSH4 0x40C10F19 EQ PUSH2 0x38C JUMPI PUSH2 0x246 JUMP JUMPDEST DUP1 PUSH4 0x6FDDE03 EQ PUSH2 0x24A JUMPI DUP1 PUSH4 0x95EA7B3 EQ PUSH2 0x268 JUMPI DUP1 PUSH4 0x18160DDD EQ PUSH2 0x298 JUMPI DUP1 PUSH4 0x23B872DD EQ PUSH2 0x2B6 JUMPI DUP1 PUSH4 0x313CE567 EQ PUSH2 0x2E6 JUMPI JUMPDEST PUSH0 DUP1 REVERT JUMPDEST PUSH2 0x252 PUSH2 0x7F8 JUMP JUMPDEST PUSH1 0x40 MLOAD PUSH2 0x25F SWAP2 SWAP1 PUSH2 0x38B9 JUMP JUMPDEST PUSH1 0x40 MLOAD DUP1 SWAP2 SUB SWAP1 RETURN JUMPDEST PUSH2 0x282 PUSH1 0x4 DUP1 CALLDATASIZE SUB DUP2 ADD SWAP1 PUSH2 0x27D SWAP2 SWAP1 PUSH2 0x396E JUMP JUMPDEST PUSH2 0x888 JUMP JUMPDEST PUSH1 0x40 MLOAD PUSH2 0x28F SWAP2 SWAP1 PUSH2 0x39C6 JUMP JUMPDEST PUSH1 0x40 MLOAD DUP1 SWAP2 SUB SWAP1 RETURN JUMPDEST PUSH2 0x2A0 PUSH2 0x8AA JUMP JUMPDEST PUSH1 0x40 MLOAD PUSH2 0x2AD SWAP2 SWAP1 PUSH2 0x39EE JUMP JUMPDEST PUSH1 0x40 MLOAD DUP1 SWAP2 SUB SWAP1 RETURN JUMPDEST PUSH2 0x2D0 PUSH1 0x4 DUP1 CALLDATASIZE SUB DUP2 ADD SWAP1 PUSH2 0x2CB SWAP2 SWAP1 PUSH2 0x3A07 JUMP JUMPDEST PUSH2 0x8B3 JUMP JUMPDEST PUSH1 0x40 MLOAD PUSH2 0x2DD SWAP2 SWAP1 PUSH2 0x39C6 JUMP JUMPDEST PUSH1 0x40 MLOAD DUP1 SWAP2 SUB SWAP1 RETURN JUMPDEST PUSH2 0x2EE PUSH2 0x8E1 JUMP JUMPDEST PUSH1 0x40 MLOAD PUSH2 0x2FB SWAP2 SWAP1 PUSH2 0x3A72 JUMP JUMPDEST PUSH1 0x40 MLOAD DUP1 SWAP2 SUB SWAP1 RETURN JUMPDEST PUSH2 0x30C PUSH2 0x8E9 JUMP JUMPDEST PUSH1 0x40 MLOAD PUSH2 0x319 SWAP2 SWAP1 PUSH2 0x3AA3 JUMP JUMPDEST PUSH1 0x40 MLOAD DUP1 SWAP2 SUB SWAP1 RETURN JUMPDEST PUSH2 0x33C PUSH1 0x4 DUP1 CALLDATASIZE SUB DUP2 ADD SWAP1 PUSH2 0x337 SWAP2 SWAP1 PUSH2 0x396E JUMP JUMPDEST PUSH2 0x8F7 JUMP JUMPDEST PUSH1 0x40 MLOAD PUSH2 0x349 SWAP2 SWAP1 PUSH2 0x39C6 JUMP JUMPDEST PUSH1 0x40 MLOAD DUP1 SWAP2 SUB SWAP1 RETURN JUMPDEST PUSH2 0x36C PUSH1 0x4 DUP1 CALLDATASIZE SUB DUP2 ADD SWAP1 PUSH2 0x367 SWAP2 SWAP1 PUSH2 0x396E JUMP JUMPDEST PUSH2 0x92D JUMP JUMPDEST PUSH1 0x40 MLOAD PUSH2 0x379 SWAP2 SWAP1 PUSH2 0x39EE JUMP JUMPDEST PUSH1 0x40 MLOAD DUP1 SWAP2 SUB SWAP1 RETURN JUMPDEST PUSH2 0x38A PUSH2 0x9CD JUMP JUMPDEST STOP JUMPDEST PUSH2 0x3A6 PUSH1 0x4 DUP1 CALLDATASIZE SUB DUP2 ADD SWAP1 PUSH2 0x3A1 SWAP2 SWAP1 PUSH2 0x396E JUMP JUMPDEST PUSH2 0x9DF JUMP JUMPDEST STOP JUMPDEST PUSH2 0x3C2 PUSH1 0x4 DUP1 CALLDATASIZE SUB DUP2 ADD SWAP1 PUSH2 0x3BD SWAP2 SWAP1 PUSH2 0x3ABC JUMP JUMPDEST PUSH2 0x9F5 JUMP JUMPDEST STOP JUMPDEST PUSH2 0x3CC PUSH2 0xA09 JUMP JUMPDEST PUSH1 0x40 MLOAD PUSH2 0x3D9 SWAP2 SWAP1 PUSH2 0x38B9 JUMP JUMPDEST PUSH1 0x40 MLOAD DUP1 SWAP2 SUB SWAP1 RETURN JUMPDEST PUSH2 0x3FC PUSH1 0x4 DUP1 CALLDATASIZE SUB DUP2 ADD SWAP1 PUSH2 0x3F7 SWAP2 SWAP1 PUSH2 0x396E JUMP JUMPDEST PUSH2 0xA97 JUMP JUMPDEST PUSH1 0x40 MLOAD PUSH2 0x409 SWAP2 SWAP1 PUSH2 0x39EE JUMP JUMPDEST PUSH1 0x40 MLOAD DUP1 SWAP2 SUB SWAP1 RETURN JUMPDEST PUSH2 0x42C PUSH1 0x4 DUP1 CALLDATASIZE SUB DUP2 ADD SWAP1 PUSH2 0x427 SWAP2 SWAP1 PUSH2 0x3AE7 JUMP JUMPDEST PUSH2 0xB03 JUMP JUMPDEST PUSH1 0x40 MLOAD PUSH2 0x439 SWAP2 SWAP1 PUSH2 0x3B21 JUMP JUMPDEST PUSH1 0x40 MLOAD DUP1 SWAP2 SUB SWAP1 RETURN JUMPDEST PUSH2 0x45C PUSH1 0x4 DUP1 CALLDATASIZE SUB DUP2 ADD SWAP1 PUSH2 0x457 SWAP2 SWAP1 PUSH2 0x3AE7 JUMP JUMPDEST PUSH2 0xB68 JUMP JUMPDEST STOP JUMPDEST PUSH2 0x466 PUSH2 0xB7C JUMP JUMPDEST PUSH1 0x40 MLOAD PUSH2 0x473 SWAP2 SWAP1 PUSH2 0x39C6 JUMP JUMPDEST PUSH1 0x40 MLOAD DUP1 SWAP2 SUB SWAP1 RETURN JUMPDEST PUSH2 0x496 PUSH1 0x4 DUP1 CALLDATASIZE SUB DUP2 ADD SWAP1 PUSH2 0x491 SWAP2 SWAP1 PUSH2 0x3BD6 JUMP JUMPDEST PUSH2 0xB92 JUMP JUMPDEST PUSH1 0x40 MLOAD PUSH2 0x4A3 SWAP2 SWAP1 PUSH2 0x39C6 JUMP JUMPDEST PUSH1 0x40 MLOAD DUP1 SWAP2 SUB SWAP1 RETURN JUMPDEST PUSH2 0x4C6 PUSH1 0x4 DUP1 CALLDATASIZE SUB DUP2 ADD SWAP1 PUSH2 0x4C1 SWAP2 SWAP1 PUSH2 0x3AE7 JUMP JUMPDEST PUSH2 0xD77 JUMP JUMPDEST PUSH1 0x40 MLOAD PUSH2 0x4D3 SWAP2 SWAP1 PUSH2 0x39EE JUMP JUMPDEST PUSH1 0x40 MLOAD DUP1 SWAP2 SUB SWAP1 RETURN JUMPDEST PUSH2 0x4F6 PUSH1 0x4 DUP1 CALLDATASIZE SUB DUP2 ADD SWAP1 PUSH2 0x4F1 SWAP2 SWAP1 PUSH2 0x3AE7 JUMP JUMPDEST PUSH2 0xDEC JUMP JUMPDEST PUSH1 0x40 MLOAD PUSH2 0x503 SWAP2 SWAP1 PUSH2 0x3C78 JUMP JUMPDEST PUSH1 0x40 MLOAD DUP1 SWAP2 SUB SWAP1 RETURN JUMPDEST PUSH2 0x526 PUSH1 0x4 DUP1 CALLDATASIZE SUB DUP2 ADD SWAP1 PUSH2 0x521 SWAP2 SWAP1 PUSH2 0x3AE7 JUMP JUMPDEST PUSH2 0xE3D JUMP JUMPDEST PUSH1 0x40 MLOAD PUSH2 0x533 SWAP2 SWAP1 PUSH2 0x39EE JUMP JUMPDEST PUSH1 0x40 MLOAD DUP1 SWAP2 SUB SWAP1 RETURN JUMPDEST PUSH2 0x544 PUSH2 0xE82 JUMP JUMPDEST STOP JUMPDEST PUSH2 0x560 PUSH1 0x4 DUP1 CALLDATASIZE SUB DUP2 ADD SWAP1 PUSH2 0x55B SWAP2 SWAP1 PUSH2 0x396E JUMP JUMPDEST PUSH2 0xE95 JUMP JUMPDEST STOP JUMPDEST PUSH2 0x57C PUSH1 0x4 DUP1 CALLDATASIZE SUB DUP2 ADD SWAP1 PUSH2 0x577 SWAP2 SWAP1 PUSH2 0x3AE7 JUMP JUMPDEST PUSH2 0xEB5 JUMP JUMPDEST PUSH1 0x40 MLOAD PUSH2 0x589 SWAP2 SWAP1 PUSH2 0x39EE JUMP JUMPDEST PUSH1 0x40 MLOAD DUP1 SWAP2 SUB SWAP1 RETURN JUMPDEST PUSH2 0x59A PUSH2 0xF02 JUMP JUMPDEST STOP JUMPDEST PUSH2 0x5A4 PUSH2 0xF14 JUMP JUMPDEST PUSH1 0x40 MLOAD PUSH2 0x5B7 SWAP8 SWAP7 SWAP6 SWAP5 SWAP4 SWAP3 SWAP2 SWAP1 PUSH2 0x3D82 JUMP JUMPDEST PUSH1 0x40 MLOAD DUP1 SWAP2 SUB SWAP1 RETURN JUMPDEST PUSH2 0x5C8 PUSH2 0x1011 JUMP JUMPDEST PUSH1 0x40 MLOAD PUSH2 0x5D5 SWAP2 SWAP1 PUSH2 0x3B21 JUMP JUMPDEST PUSH1 0x40 MLOAD DUP1 SWAP2 SUB SWAP1 RETURN JUMPDEST PUSH2 0x5F8 PUSH1 0x4 DUP1 CALLDATASIZE SUB DUP2 ADD SWAP1 PUSH2 0x5F3 SWAP2 SWAP1 PUSH2 0x3ABC JUMP JUMPDEST PUSH2 0x1039 JUMP JUMPDEST PUSH1 0x40 MLOAD PUSH2 0x605 SWAP2 SWAP1 PUSH2 0x39EE JUMP JUMPDEST PUSH1 0x40 MLOAD DUP1 SWAP2 SUB SWAP1 RETURN JUMPDEST PUSH2 0x616 PUSH2 0x109D JUMP JUMPDEST PUSH1 0x40 MLOAD PUSH2 0x623 SWAP2 SWAP1 PUSH2 0x3E24 JUMP JUMPDEST PUSH1 0x40 MLOAD DUP1 SWAP2 SUB SWAP1 RETURN JUMPDEST PUSH2 0x634 PUSH2 0x10AC JUMP JUMPDEST PUSH1 0x40 MLOAD PUSH2 0x641 SWAP2 SWAP1 PUSH2 0x38B9 JUMP JUMPDEST PUSH1 0x40 MLOAD DUP1 SWAP2 SUB SWAP1 RETURN JUMPDEST PUSH2 0x652 PUSH2 0x113C JUMP JUMPDEST STOP JUMPDEST PUSH2 0x66E PUSH1 0x4 DUP1 CALLDATASIZE SUB DUP2 ADD SWAP1 PUSH2 0x669 SWAP2 SWAP1 PUSH2 0x3ABC JUMP JUMPDEST PUSH2 0x114F JUMP JUMPDEST PUSH1 0x40 MLOAD PUSH2 0x67B SWAP2 SWAP1 PUSH2 0x39EE JUMP JUMPDEST PUSH1 0x40 MLOAD DUP1 SWAP2 SUB SWAP1 RETURN JUMPDEST PUSH2 0x69E PUSH1 0x4 DUP1 CALLDATASIZE SUB DUP2 ADD SWAP1 PUSH2 0x699 SWAP2 SWAP1 PUSH2 0x3AE7 JUMP JUMPDEST PUSH2 0x117E JUMP JUMPDEST PUSH1 0x40 MLOAD PUSH2 0x6AB SWAP2 SWAP1 PUSH2 0x39EE JUMP JUMPDEST PUSH1 0x40 MLOAD DUP1 SWAP2 SUB SWAP1 RETURN JUMPDEST PUSH2 0x6CE PUSH1 0x4 DUP1 CALLDATASIZE SUB DUP2 ADD SWAP1 PUSH2 0x6C9 SWAP2 SWAP1 PUSH2 0x396E JUMP JUMPDEST PUSH2 0x127C JUMP JUMPDEST PUSH1 0x40 MLOAD PUSH2 0x6DB SWAP2 SWAP1 PUSH2 0x39C6 JUMP JUMPDEST PUSH1 0x40 MLOAD DUP1 SWAP2 SUB SWAP1 RETURN JUMPDEST PUSH2 0x6FE PUSH1 0x4 DUP1 CALLDATASIZE SUB DUP2 ADD SWAP1 PUSH2 0x6F9 SWAP2 SWAP1 PUSH2 0x396E JUMP JUMPDEST PUSH2 0x12F1 JUMP JUMPDEST PUSH1 0x40 MLOAD PUSH2 0x70B SWAP2 SWAP1 PUSH2 0x39C6 JUMP JUMPDEST PUSH1 0x40 MLOAD DUP1 SWAP2 SUB SWAP1 RETURN JUMPDEST PUSH2 0x72E PUSH1 0x4 DUP1 CALLDATASIZE SUB DUP2 ADD SWAP1 PUSH2 0x729 SWAP2 SWAP1 PUSH2 0x3E91 JUMP JUMPDEST PUSH2 0x1313 JUMP JUMPDEST STOP JUMPDEST PUSH2 0x74A PUSH1 0x4 DUP1 CALLDATASIZE SUB DUP2 ADD SWAP1 PUSH2 0x745 SWAP2 SWAP1 PUSH2 0x3F1A JUMP JUMPDEST PUSH2 0x1416 JUMP JUMPDEST STOP JUMPDEST PUSH2 0x766 PUSH1 0x4 DUP1 CALLDATASIZE SUB DUP2 ADD SWAP1 PUSH2 0x761 SWAP2 SWAP1 PUSH2 0x396E JUMP JUMPDEST PUSH2 0x1555 JUMP JUMPDEST PUSH1 0x40 MLOAD PUSH2 0x773 SWAP2 SWAP1 PUSH2 0x39EE JUMP JUMPDEST PUSH1 0x40 MLOAD DUP1 SWAP2 SUB SWAP1 RETURN JUMPDEST PUSH2 0x796 PUSH1 0x4 DUP1 CALLDATASIZE SUB DUP2 ADD SWAP1 PUSH2 0x791 SWAP2 SWAP1 PUSH2 0x3FB7 JUMP JUMPDEST PUSH2 0x15D6 JUMP JUMPDEST PUSH1 0x40 MLOAD PUSH2 0x7A3 SWAP2 SWAP1 PUSH2 0x39EE JUMP JUMPDEST PUSH1 0x40 MLOAD DUP1 SWAP2 SUB SWAP1 RETURN JUMPDEST PUSH2 0x7C6 PUSH1 0x4 DUP1 CALLDATASIZE SUB DUP2 ADD SWAP1 PUSH2 0x7C1 SWAP2 SWAP1 PUSH2 0x401F JUMP JUMPDEST PUSH2 0x1658 JUMP JUMPDEST PUSH1 0x40 MLOAD PUSH2 0x7D3 SWAP2 SWAP1 PUSH2 0x40CF JUMP JUMPDEST PUSH1 0x40 MLOAD DUP1 SWAP2 SUB SWAP1 RETURN JUMPDEST PUSH2 0x7F6 PUSH1 0x4 DUP1 CALLDATASIZE SUB DUP2 ADD SWAP1 PUSH2 0x7F1 SWAP2 SWAP1 PUSH2 0x3AE7 JUMP JUMPDEST PUSH2 0x1761 JUMP JUMPDEST STOP JUMPDEST PUSH1 0x60 PUSH1 0x3 DUP1 SLOAD PUSH2 0x807 SWAP1 PUSH2 0x4115 JUMP JUMPDEST DUP1 PUSH1 0x1F ADD PUSH1 0x20 DUP1 SWAP2 DIV MUL PUSH1 0x20 ADD PUSH1 0x40 MLOAD SWAP1 DUP2 ADD PUSH1 0x40 MSTORE DUP1 SWAP3 SWAP2 SWAP1 DUP2 DUP2 MSTORE PUSH1 0x20 ADD DUP3 DUP1 SLOAD PUSH2 0x833 SWAP1 PUSH2 0x4115 JUMP JUMPDEST DUP1 ISZERO PUSH2 0x87E JUMPI DUP1 PUSH1 0x1F LT PUSH2 0x855 JUMPI PUSH2 0x100 DUP1 DUP4 SLOAD DIV MUL DUP4 MSTORE SWAP2 PUSH1 0x20 ADD SWAP2 PUSH2 0x87E JUMP JUMPDEST DUP3 ADD SWAP2 SWAP1 PUSH0 MSTORE PUSH1 0x20 PUSH0 KECCAK256 SWAP1 JUMPDEST DUP2 SLOAD DUP2 MSTORE SWAP1 PUSH1 0x1 ADD SWAP1 PUSH1 0x20 ADD DUP1 DUP4 GT PUSH2 0x861 JUMPI DUP3 SWAP1 SUB PUSH1 0x1F AND DUP3 ADD SWAP2 JUMPDEST POP POP POP POP POP SWAP1 POP SWAP1 JUMP JUMPDEST PUSH0 DUP1 PUSH2 0x892 PUSH2 0x180D JUMP JUMPDEST SWAP1 POP PUSH2 0x89F DUP2 DUP6 DUP6 PUSH2 0x1814 JUMP JUMPDEST PUSH1 0x1 SWAP2 POP POP SWAP3 SWAP2 POP POP JUMP JUMPDEST PUSH0 PUSH1 0x2 SLOAD SWAP1 POP SWAP1 JUMP JUMPDEST PUSH0 DUP1 PUSH2 0x8BD PUSH2 0x180D JUMP JUMPDEST SWAP1 POP PUSH2 0x8CA DUP6 DUP3 DUP6 PUSH2 0x19D7 JUMP JUMPDEST PUSH2 0x8D5 DUP6 DUP6 DUP6 PUSH2 0x1A62 JUMP JUMPDEST PUSH1 0x1 SWAP2 POP POP SWAP4 SWAP3 POP POP POP JUMP JUMPDEST PUSH0 PUSH1 0x12 SWAP1 POP SWAP1 JUMP JUMPDEST PUSH0 PUSH2 0x8F2 PUSH2 0x1CCE JUMP JUMPDEST SWAP1 POP SWAP1 JUMP JUMPDEST PUSH0 DUP1 PUSH2 0x901 PUSH2 0x180D JUMP JUMPDEST SWAP1 POP PUSH2 0x922 DUP2 DUP6 DUP6 PUSH2 0x913 DUP6 DUP10 PUSH2 0x15D6 JUMP JUMPDEST PUSH2 0x91D SWAP2 SWAP1 PUSH2 0x4172 JUMP JUMPDEST PUSH2 0x1814 JUMP JUMPDEST PUSH1 0x1 SWAP2 POP POP SWAP3 SWAP2 POP POP JUMP JUMPDEST PUSH0 PUSH2 0x936 PUSH2 0x109D JUMP JUMPDEST PUSH6 0xFFFFFFFFFFFF AND DUP3 LT PUSH2 0x97F JUMPI PUSH1 0x40 MLOAD PUSH32 0x8C379A000000000000000000000000000000000000000000000000000000000 DUP2 MSTORE PUSH1 0x4 ADD PUSH2 0x976 SWAP1 PUSH2 0x41EF JUMP JUMPDEST PUSH1 0x40 MLOAD DUP1 SWAP2 SUB SWAP1 REVERT JUMPDEST PUSH2 0x9C5 PUSH1 0xF PUSH0 DUP6 PUSH20 0xFFFFFFFFFFFFFFFFFFFFFFFFFFFFFFFFFFFFFFFF AND PUSH20 0xFFFFFFFFFFFFFFFFFFFFFFFFFFFFFFFFFFFFFFFF AND DUP2 MSTORE PUSH1 0x20 ADD SWAP1 DUP2 MSTORE PUSH1 0x20 ADD PUSH0 KECCAK256 DUP4 PUSH2 0x1D84 JUMP JUMPDEST SWAP1 POP SWAP3 SWAP2 POP POP JUMP JUMPDEST PUSH2 0x9D5 PUSH2 0x1EC1 JUMP JUMPDEST PUSH2 0x9DD PUSH2 0x1F3F JUMP JUMPDEST JUMP JUMPDEST PUSH2 0x9E7 PUSH2 0x1EC1 JUMP JUMPDEST PUSH2 0x9F1 DUP3 DUP3 PUSH2 0x1FA1 JUMP JUMPDEST POP POP JUMP JUMPDEST PUSH2 0xA06 PUSH2 0xA00 PUSH2 0x180D JUMP JUMPDEST DUP3 PUSH2 0x1FAF JUMP JUMPDEST POP JUMP JUMPDEST PUSH1 0x60 NUMBER PUSH2 0xA14 PUSH2 0x109D JUMP JUMPDEST PUSH6 0xFFFFFFFFFFFF AND EQ PUSH2 0xA5C JUMPI PUSH1 0x40 MLOAD PUSH32 0x8C379A000000000000000000000000000000000000000000000000000000000 DUP2 MSTORE PUSH1 0x4 ADD PUSH2 0xA53 SWAP1 PUSH2 0x4257 JUMP JUMPDEST PUSH1 0x40 MLOAD DUP1 SWAP2 SUB SWAP1 REVERT JUMPDEST PUSH1 0x40 MLOAD DUP1 PUSH1 0x40 ADD PUSH1 0x40 MSTORE DUP1 PUSH1 0x1D DUP2 MSTORE PUSH1 0x20 ADD PUSH32 0x6D6F64653D626C6F636B6E756D6265722666726F6D3D64656661756C74000000 DUP2 MSTORE POP SWAP1 POP SWAP1 JUMP JUMPDEST PUSH0 DUP1 PUSH0 PUSH2 0xAE0 DUP5 PUSH1 0x5 PUSH0 DUP9 PUSH20 0xFFFFFFFFFFFFFFFFFFFFFFFFFFFFFFFFFFFFFFFF AND PUSH20 0xFFFFFFFFFFFFFFFFFFFFFFFFFFFFFFFFFFFFFFFF AND DUP2 MSTORE PUSH1 0x20 ADD SWAP1 DUP2 MSTORE PUSH1 0x20 ADD PUSH0 KECCAK256 PUSH2 0x1FBD JUMP JUMPDEST SWAP2 POP SWAP2 POP DUP2 PUSH2 0xAF7 JUMPI PUSH2 0xAF2 DUP6 PUSH2 0xE3D JUMP JUMPDEST PUSH2 0xAF9 JUMP JUMPDEST DUP1 JUMPDEST SWAP3 POP POP POP SWAP3 SWAP2 POP POP JUMP JUMPDEST PUSH0 PUSH1 0xE PUSH0 DUP4 PUSH20 0xFFFFFFFFFFFFFFFFFFFFFFFFFFFFFFFFFFFFFFFF AND PUSH20 0xFFFFFFFFFFFFFFFFFFFFFFFFFFFFFFFFFFFFFFFF AND DUP2 MSTORE PUSH1 0x20 ADD SWAP1 DUP2 MSTORE PUSH1 0x20 ADD PUSH0 KECCAK256 PUSH0 SWAP1 SLOAD SWAP1 PUSH2 0x100 EXP SWAP1 DIV PUSH20 0xFFFFFFFFFFFFFFFFFFFFFFFFFFFFFFFFFFFFFFFF AND SWAP1 POP SWAP2 SWAP1 POP JUMP JUMPDEST PUSH2 0xB79 PUSH2 0xB73 PUSH2 0x180D JUMP JUMPDEST DUP3 PUSH2 0x20AA JUMP JUMPDEST POP JUMP JUMPDEST PUSH0 PUSH1 0x9 PUSH1 0x14 SWAP1 SLOAD SWAP1 PUSH2 0x100 EXP SWAP1 DIV PUSH1 0xFF AND SWAP1 POP SWAP1 JUMP JUMPDEST PUSH0 PUSH2 0xB9C DUP6 PUSH2 0xD77 JUMP JUMPDEST DUP5 GT ISZERO PUSH2 0xBDE JUMPI PUSH1 0x40 MLOAD PUSH32 0x8C379A000000000000000000000000000000000000000000000000000000000 DUP2 MSTORE PUSH1 0x4 ADD PUSH2 0xBD5 SWAP1 PUSH2 0x42E5 JUMP JUMPDEST PUSH1 0x40 MLOAD DUP1 SWAP2 SUB SWAP1 REVERT JUMPDEST PUSH0 PUSH2 0xBE9 DUP7 DUP7 PUSH2 0x1555 JUMP JUMPDEST SWAP1 POP PUSH2 0xBF5 DUP8 DUP7 PUSH2 0x1FA1 JUMP JUMPDEST PUSH32 0x439148F0BBC682CA079E46D6E2C2F0C1E3B820F1A291B069D8882ABF8CF18DD9 DUP8 PUSH20 0xFFFFFFFFFFFFFFFFFFFFFFFFFFFFFFFFFFFFFFFF AND PUSH4 0x23E30C8B CALLER DUP10 DUP10 DUP7 DUP11 DUP11 PUSH1 0x40 MLOAD DUP8 PUSH4 0xFFFFFFFF AND PUSH1 0xE0 SHL DUP2 MSTORE PUSH1 0x4 ADD PUSH2 0xC59 SWAP7 SWAP6 SWAP5 SWAP4 SWAP3 SWAP2 SWAP1 PUSH2 0x434D JUMP JUMPDEST PUSH1 0x20 PUSH1 0x40 MLOAD DUP1 DUP4 SUB DUP2 PUSH0 DUP8 GAS CALL ISZERO DUP1 ISZERO PUSH2 0xC75 JUMPI RETURNDATASIZE PUSH0 DUP1 RETURNDATACOPY RETURNDATASIZE PUSH0 REVERT JUMPDEST POP POP POP POP PUSH1 0x40 MLOAD RETURNDATASIZE PUSH1 0x1F NOT PUSH1 0x1F DUP3 ADD AND DUP3 ADD DUP1 PUSH1 0x40 MSTORE POP DUP2 ADD SWAP1 PUSH2 0xC99 SWAP2 SWAP1 PUSH2 0x43BB JUMP JUMPDEST EQ PUSH2 0xCD9 JUMPI PUSH1 0x40 MLOAD PUSH32 0x8C379A000000000000000000000000000000000000000000000000000000000 DUP2 MSTORE PUSH1 0x4 ADD PUSH2 0xCD0 SWAP1 PUSH2 0x4456 JUMP JUMPDEST PUSH1 0x40 MLOAD DUP1 SWAP2 SUB SWAP1 REVERT JUMPDEST PUSH0 PUSH2 0xCE2 PUSH2 0x21BF JUMP JUMPDEST SWAP1 POP PUSH2 0xCFA DUP9 ADDRESS DUP5 DUP10 PUSH2 0xCF5 SWAP2 SWAP1 PUSH2 0x4172 JUMP JUMPDEST PUSH2 0x19D7 JUMP JUMPDEST PUSH0 DUP3 EQ DUP1 PUSH2 0xD33 JUMPI POP PUSH0 PUSH20 0xFFFFFFFFFFFFFFFFFFFFFFFFFFFFFFFFFFFFFFFF AND DUP2 PUSH20 0xFFFFFFFFFFFFFFFFFFFFFFFFFFFFFFFFFFFFFFFF AND EQ JUMPDEST ISZERO PUSH2 0xD52 JUMPI PUSH2 0xD4D DUP9 DUP4 DUP9 PUSH2 0xD48 SWAP2 SWAP1 PUSH2 0x4172 JUMP JUMPDEST PUSH2 0x1FAF JUMP JUMPDEST PUSH2 0xD68 JUMP JUMPDEST PUSH2 0xD5C DUP9 DUP8 PUSH2 0x1FAF JUMP JUMPDEST PUSH2 0xD67 DUP9 DUP3 DUP5 PUSH2 0x1A62 JUMP JUMPDEST JUMPDEST PUSH1 0x1 SWAP3 POP POP POP SWAP6 SWAP5 POP POP POP POP POP JUMP JUMPDEST PUSH0 ADDRESS PUSH20 0xFFFFFFFFFFFFFFFFFFFFFFFFFFFFFFFFFFFFFFFF AND DUP3 PUSH20 0xFFFFFFFFFFFFFFFFFFFFFFFFFFFFFFFFFFFFFFFF AND EQ PUSH2 0xDB1 JUMPI PUSH0 PUSH2 0xDE5 JUMP JUMPDEST PUSH2 0xDB9 PUSH2 0x8AA JUMP JUMPDEST PUSH32 0xFFFFFFFFFFFFFFFFFFFFFFFFFFFFFFFFFFFFFFFFFFFFFFFFFFFFFFFFFFFFFFFF PUSH2 0xDE4 SWAP2 SWAP1 PUSH2 0x4474 JUMP JUMPDEST JUMPDEST SWAP1 POP SWAP2 SWAP1 POP JUMP JUMPDEST PUSH0 PUSH2 0xE36 PUSH1 0xF PUSH0 DUP5 PUSH20 0xFFFFFFFFFFFFFFFFFFFFFFFFFFFFFFFFFFFFFFFF AND PUSH20 0xFFFFFFFFFFFFFFFFFFFFFFFFFFFFFFFFFFFFFFFF AND DUP2 MSTORE PUSH1 0x20 ADD SWAP1 DUP2 MSTORE PUSH1 0x20 ADD PUSH0 KECCAK256 DUP1 SLOAD SWAP1 POP PUSH2 0x21C3 JUMP JUMPDEST SWAP1 POP SWAP2 SWAP1 POP JUMP JUMPDEST PUSH0 DUP1 PUSH0 DUP4 PUSH20 0xFFFFFFFFFFFFFFFFFFFFFFFFFFFFFFFFFFFFFFFF AND PUSH20 0xFFFFFFFFFFFFFFFFFFFFFFFFFFFFFFFFFFFFFFFF AND DUP2 MSTORE PUSH1 0x20 ADD SWAP1 DUP2 MSTORE PUSH1 0x20 ADD PUSH0 KECCAK256 SLOAD SWAP1 POP SWAP2 SWAP1 POP JUMP JUMPDEST PUSH2 0xE8A PUSH2 0x1EC1 JUMP JUMPDEST PUSH2 0xE93 PUSH0 PUSH2 0x2215 JUMP JUMPDEST JUMP JUMPDEST PUSH2 0xEA7 DUP3 PUSH2 0xEA1 PUSH2 0x180D JUMP JUMPDEST DUP4 PUSH2 0x19D7 JUMP JUMPDEST PUSH2 0xEB1 DUP3 DUP3 PUSH2 0x1FAF JUMP JUMPDEST POP POP JUMP JUMPDEST PUSH0 PUSH2 0xEFB PUSH1 0xC PUSH0 DUP5 PUSH20 0xFFFFFFFFFFFFFFFFFFFFFFFFFFFFFFFFFFFFFFFF AND PUSH20 0xFFFFFFFFFFFFFFFFFFFFFFFFFFFFFFFFFFFFFFFF AND DUP2 MSTORE PUSH1 0x20 ADD SWAP1 DUP2 MSTORE PUSH1 0x20 ADD PUSH0 KECCAK256 PUSH2 0x22D8 JUMP JUMPDEST SWAP1 POP SWAP2 SWAP1 POP JUMP JUMPDEST PUSH2 0xF0A PUSH2 0x1EC1 JUMP JUMPDEST PUSH2 0xF12 PUSH2 0x22E4 JUMP JUMPDEST JUMP JUMPDEST PUSH0 PUSH1 0x60 DUP1 PUSH0 DUP1 PUSH0 PUSH1 0x60 PUSH2 0xF51 PUSH1 0xA PUSH32 0x0 PUSH2 0x2347 SWAP1 SWAP2 SWAP1 PUSH4 0xFFFFFFFF AND JUMP JUMPDEST PUSH2 0xF85 PUSH1 0xB PUSH32 0x0 PUSH2 0x2347 SWAP1 SWAP2 SWAP1 PUSH4 0xFFFFFFFF AND JUMP JUMPDEST CHAINID ADDRESS PUSH0 DUP1 SHL PUSH0 PUSH8 0xFFFFFFFFFFFFFFFF DUP2 GT ISZERO PUSH2 0xFA4 JUMPI PUSH2 0xFA3 PUSH2 0x44A7 JUMP JUMPDEST JUMPDEST PUSH1 0x40 MLOAD SWAP1 DUP1 DUP3 MSTORE DUP1 PUSH1 0x20 MUL PUSH1 0x20 ADD DUP3 ADD PUSH1 0x40 MSTORE DUP1 ISZERO PUSH2 0xFD2 JUMPI DUP2 PUSH1 0x20 ADD PUSH1 0x20 DUP3 MUL DUP1 CALLDATASIZE DUP4 CALLDATACOPY DUP1 DUP3 ADD SWAP2 POP POP SWAP1 POP JUMPDEST POP PUSH32 0xF00000000000000000000000000000000000000000000000000000000000000 SWAP6 SWAP5 SWAP4 SWAP3 SWAP2 SWAP1 SWAP7 POP SWAP7 POP SWAP7 POP SWAP7 POP SWAP7 POP SWAP7 POP SWAP7 POP SWAP1 SWAP2 SWAP3 SWAP4 SWAP5 SWAP6 SWAP7 JUMP JUMPDEST PUSH0 PUSH1 0x9 PUSH0 SWAP1 SLOAD SWAP1 PUSH2 0x100 EXP SWAP1 DIV PUSH20 0xFFFFFFFFFFFFFFFFFFFFFFFFFFFFFFFFFFFFFFFF AND SWAP1 POP SWAP1 JUMP JUMPDEST PUSH0 PUSH2 0x1042 PUSH2 0x109D JUMP JUMPDEST PUSH6 0xFFFFFFFFFFFF AND DUP3 LT PUSH2 0x108B JUMPI PUSH1 0x40 MLOAD PUSH32 0x8C379A000000000000000000000000000000000000000000000000000000000 DUP2 MSTORE PUSH1 0x4 ADD PUSH2 0x1082 SWAP1 PUSH2 0x41EF JUMP JUMPDEST PUSH1 0x40 MLOAD DUP1 SWAP2 SUB SWAP1 REVERT JUMPDEST PUSH2 0x1096 PUSH1 0x10 DUP4 PUSH2 0x1D84 JUMP JUMPDEST SWAP1 POP SWAP2 SWAP1 POP JUMP JUMPDEST PUSH0 PUSH2 0x10A7 NUMBER PUSH2 0x23F4 JUMP JUMPDEST SWAP1 POP SWAP1 JUMP JUMPDEST PUSH1 0x60 PUSH1 0x4 DUP1 SLOAD PUSH2 0x10BB SWAP1 PUSH2 0x4115 JUMP JUMPDEST DUP1 PUSH1 0x1F ADD PUSH1 0x20 DUP1 SWAP2 DIV MUL PUSH1 0x20 ADD PUSH1 0x40 MLOAD SWAP1 DUP2 ADD PUSH1 0x40 MSTORE DUP1 SWAP3 SWAP2 SWAP1 DUP2 DUP2 MSTORE PUSH1 0x20 ADD DUP3 DUP1 SLOAD PUSH2 0x10E7 SWAP1 PUSH2 0x4115 JUMP JUMPDEST DUP1 ISZERO PUSH2 0x1132 JUMPI DUP1 PUSH1 0x1F LT PUSH2 0x1109 JUMPI PUSH2 0x100 DUP1 DUP4 SLOAD DIV MUL DUP4 MSTORE SWAP2 PUSH1 0x20 ADD SWAP2 PUSH2 0x1132 JUMP JUMPDEST DUP3 ADD SWAP2 SWAP1 PUSH0 MSTORE PUSH1 0x20 PUSH0 KECCAK256 SWAP1 JUMPDEST DUP2 SLOAD DUP2 MSTORE SWAP1 PUSH1 0x1 ADD SWAP1 PUSH1 0x20 ADD DUP1 DUP4 GT PUSH2 0x1115 JUMPI DUP3 SWAP1 SUB PUSH1 0x1F AND DUP3 ADD SWAP2 JUMPDEST POP POP POP POP POP SWAP1 POP SWAP1 JUMP JUMPDEST PUSH2 0x1144 PUSH2 0x1EC1 JUMP JUMPDEST PUSH2 0x114C PUSH2 0x2448 JUMP JUMPDEST POP JUMP JUMPDEST PUSH0 DUP1 PUSH0 PUSH2 0x115D DUP5 PUSH1 0x6 PUSH2 0x1FBD JUMP JUMPDEST SWAP2 POP SWAP2 POP DUP2 PUSH2 0x1173 JUMPI PUSH2 0x116E PUSH2 0x8AA JUMP JUMPDEST PUSH2 0x1175 JUMP JUMPDEST DUP1 JUMPDEST SWAP3 POP POP POP SWAP2 SWAP1 POP JUMP JUMPDEST PUSH0 DUP1 PUSH1 0xF PUSH0 DUP5 PUSH20 0xFFFFFFFFFFFFFFFFFFFFFFFFFFFFFFFFFFFFFFFF AND PUSH20 0xFFFFFFFFFFFFFFFFFFFFFFFFFFFFFFFFFFFFFFFF AND DUP2 MSTORE PUSH1 0x20 ADD SWAP1 DUP2 MSTORE PUSH1 0x20 ADD PUSH0 KECCAK256 DUP1 SLOAD SWAP1 POP SWAP1 POP PUSH0 DUP2 EQ PUSH2 0x1254 JUMPI PUSH1 0xF PUSH0 DUP5 PUSH20 0xFFFFFFFFFFFFFFFFFFFFFFFFFFFFFFFFFFFFFFFF AND PUSH20 0xFFFFFFFFFFFFFFFFFFFFFFFFFFFFFFFFFFFFFFFF AND DUP2 MSTORE PUSH1 0x20 ADD SWAP1 DUP2 MSTORE PUSH1 0x20 ADD PUSH0 KECCAK256 PUSH1 0x1 DUP3 SUB DUP2 SLOAD DUP2 LT PUSH2 0x121C JUMPI PUSH2 0x121B PUSH2 0x44D4 JUMP JUMPDEST JUMPDEST SWAP1 PUSH0 MSTORE PUSH1 0x20 PUSH0 KECCAK256 ADD PUSH0 ADD PUSH1 0x4 SWAP1 SLOAD SWAP1 PUSH2 0x100 EXP SWAP1 DIV PUSH28 0xFFFFFFFFFFFFFFFFFFFFFFFFFFFFFFFFFFFFFFFFFFFFFFFFFFFFFFFF AND PUSH2 0x1256 JUMP JUMPDEST PUSH0 JUMPDEST PUSH28 0xFFFFFFFFFFFFFFFFFFFFFFFFFFFFFFFFFFFFFFFFFFFFFFFFFFFFFFFF AND SWAP2 POP POP SWAP2 SWAP1 POP JUMP JUMPDEST PUSH0 DUP1 PUSH2 0x1286 PUSH2 0x180D JUMP JUMPDEST SWAP1 POP PUSH0 PUSH2 0x1293 DUP3 DUP7 PUSH2 0x15D6 JUMP JUMPDEST SWAP1 POP DUP4 DUP2 LT ISZERO PUSH2 0x12D8 JUMPI PUSH1 0x40 MLOAD PUSH32 0x8C379A000000000000000000000000000000000000000000000000000000000 DUP2 MSTORE PUSH1 0x4 ADD PUSH2 0x12CF SWAP1 PUSH2 0x4571 JUMP JUMPDEST PUSH1 0x40 MLOAD DUP1 SWAP2 SUB SWAP1 REVERT JUMPDEST PUSH2 0x12E5 DUP3 DUP7 DUP7 DUP5 SUB PUSH2 0x1814 JUMP JUMPDEST PUSH1 0x1 SWAP3 POP POP POP SWAP3 SWAP2 POP POP JUMP JUMPDEST PUSH0 DUP1 PUSH2 0x12FB PUSH2 0x180D JUMP JUMPDEST SWAP1 POP PUSH2 0x1308 DUP2 DUP6 DUP6 PUSH2 0x1A62 JUMP JUMPDEST PUSH1 0x1 SWAP2 POP POP SWAP3 SWAP2 POP POP JUMP JUMPDEST DUP4 TIMESTAMP GT ISZERO PUSH2 0x1356 JUMPI PUSH1 0x40 MLOAD PUSH32 0x8C379A000000000000000000000000000000000000000000000000000000000 DUP2 MSTORE PUSH1 0x4 ADD PUSH2 0x134D SWAP1 PUSH2 0x45D9 JUMP JUMPDEST PUSH1 0x40 MLOAD DUP1 SWAP2 SUB SWAP1 REVERT JUMPDEST PUSH0 PUSH2 0x13B7 PUSH2 0x13AF PUSH32 0xE48329057BFD03D55E49B547132E39CFFD9C1820AD7B9D4C5307691425D15ADF DUP10 DUP10 DUP10 PUSH1 0x40 MLOAD PUSH1 0x20 ADD PUSH2 0x1394 SWAP5 SWAP4 SWAP3 SWAP2 SWAP1 PUSH2 0x45F7 JUMP JUMPDEST PUSH1 0x40 MLOAD PUSH1 0x20 DUP2 DUP4 SUB SUB DUP2 MSTORE SWAP1 PUSH1 0x40 MSTORE DUP1 MLOAD SWAP1 PUSH1 0x20 ADD KECCAK256 PUSH2 0x249C JUMP JUMPDEST DUP6 DUP6 DUP6 PUSH2 0x24B5 JUMP JUMPDEST SWAP1 POP PUSH2 0x13C2 DUP2 PUSH2 0x24DE JUMP JUMPDEST DUP7 EQ PUSH2 0x1403 JUMPI PUSH1 0x40 MLOAD PUSH32 0x8C379A000000000000000000000000000000000000000000000000000000000 DUP2 MSTORE PUSH1 0x4 ADD PUSH2 0x13FA SWAP1 PUSH2 0x4684 JUMP JUMPDEST PUSH1 0x40 MLOAD DUP1 SWAP2 SUB SWAP1 REVERT JUMPDEST PUSH2 0x140D DUP2 DUP9 PUSH2 0x20AA JUMP JUMPDEST POP POP POP POP POP POP POP JUMP JUMPDEST DUP4 TIMESTAMP GT ISZERO PUSH2 0x1459 JUMPI PUSH1 0x40 MLOAD PUSH32 0x8C379A000000000000000000000000000000000000000000000000000000000 DUP2 MSTORE PUSH1 0x4 ADD PUSH2 0x1450 SWAP1 PUSH2 0x46EC JUMP JUMPDEST PUSH1 0x40 MLOAD DUP1 SWAP2 SUB SWAP1 REVERT JUMPDEST PUSH0 PUSH32 0x6E71EDAE12B1B97F4D1F60370FEF10105FA2FAAE0126114A169C64845D6126C9 DUP9 DUP9 DUP9 PUSH2 0x1487 DUP13 PUSH2 0x24DE JUMP JUMPDEST DUP10 PUSH1 0x40 MLOAD PUSH1 0x20 ADD PUSH2 0x149D SWAP7 SWAP6 SWAP5 SWAP4 SWAP3 SWAP2 SWAP1 PUSH2 0x470A JUMP JUMPDEST PUSH1 0x40 MLOAD PUSH1 0x20 DUP2 DUP4 SUB SUB DUP2 MSTORE SWAP1 PUSH1 0x40 MSTORE DUP1 MLOAD SWAP1 PUSH1 0x20 ADD KECCAK256 SWAP1 POP PUSH0 PUSH2 0x14BF DUP3 PUSH2 0x249C JUMP JUMPDEST SWAP1 POP PUSH0 PUSH2 0x14CE DUP3 DUP8 DUP8 DUP8 PUSH2 0x24B5 JUMP JUMPDEST SWAP1 POP DUP10 PUSH20 0xFFFFFFFFFFFFFFFFFFFFFFFFFFFFFFFFFFFFFFFF AND DUP2 PUSH20 0xFFFFFFFFFFFFFFFFFFFFFFFFFFFFFFFFFFFFFFFF AND EQ PUSH2 0x153E JUMPI PUSH1 0x40 MLOAD PUSH32 0x8C379A000000000000000000000000000000000000000000000000000000000 DUP2 MSTORE PUSH1 0x4 ADD PUSH2 0x1535 SWAP1 PUSH2 0x47B3 JUMP JUMPDEST PUSH1 0x40 MLOAD DUP1 SWAP2 SUB SWAP1 REVERT JUMPDEST PUSH2 0x1549 DUP11 DUP11 DUP11 PUSH2 0x1814 JUMP JUMPDEST POP POP POP POP POP POP POP POP POP POP JUMP JUMPDEST PUSH0 ADDRESS PUSH20 0xFFFFFFFFFFFFFFFFFFFFFFFFFFFFFFFFFFFFFFFF AND DUP4 PUSH20 0xFFFFFFFFFFFFFFFFFFFFFFFFFFFFFFFFFFFFFFFF AND EQ PUSH2 0x15C4 JUMPI PUSH1 0x40 MLOAD PUSH32 0x8C379A000000000000000000000000000000000000000000000000000000000 DUP2 MSTORE PUSH1 0x4 ADD PUSH2 0x15BB SWAP1 PUSH2 0x481B JUMP JUMPDEST PUSH1 0x40 MLOAD DUP1 SWAP2 SUB SWAP1 REVERT JUMPDEST PUSH2 0x15CE DUP4 DUP4 PUSH2 0x2539 JUMP JUMPDEST SWAP1 POP SWAP3 SWAP2 POP POP JUMP JUMPDEST PUSH0 PUSH1 0x1 PUSH0 DUP5 PUSH20 0xFFFFFFFFFFFFFFFFFFFFFFFFFFFFFFFFFFFFFFFF AND PUSH20 0xFFFFFFFFFFFFFFFFFFFFFFFFFFFFFFFFFFFFFFFF AND DUP2 MSTORE PUSH1 0x20 ADD SWAP1 DUP2 MSTORE PUSH1 0x20 ADD PUSH0 KECCAK256 PUSH0 DUP4 PUSH20 0xFFFFFFFFFFFFFFFFFFFFFFFFFFFFFFFFFFFFFFFF AND PUSH20 0xFFFFFFFFFFFFFFFFFFFFFFFFFFFFFFFFFFFFFFFF AND DUP2 MSTORE PUSH1 0x20 ADD SWAP1 DUP2 MSTORE PUSH1 0x20 ADD PUSH0 KECCAK256 SLOAD SWAP1 POP SWAP3 SWAP2 POP POP JUMP JUMPDEST PUSH2 0x1660 PUSH2 0x37F3 JUMP JUMPDEST PUSH1 0xF PUSH0 DUP5 PUSH20 0xFFFFFFFFFFFFFFFFFFFFFFFFFFFFFFFFFFFFFFFF AND PUSH20 0xFFFFFFFFFFFFFFFFFFFFFFFFFFFFFFFFFFFFFFFF AND DUP2 MSTORE PUSH1 0x20 ADD SWAP1 DUP2 MSTORE PUSH1 0x20 ADD PUSH0 KECCAK256 DUP3 PUSH4 0xFFFFFFFF AND DUP2 SLOAD DUP2 LT PUSH2 0x16B5 JUMPI PUSH2 0x16B4 PUSH2 0x44D4 JUMP JUMPDEST JUMPDEST SWAP1 PUSH0 MSTORE PUSH1 0x20 PUSH0 KECCAK256 ADD PUSH1 0x40 MLOAD DUP1 PUSH1 0x40 ADD PUSH1 0x40 MSTORE SWAP1 DUP2 PUSH0 DUP3 ADD PUSH0 SWAP1 SLOAD SWAP1 PUSH2 0x100 EXP SWAP1 DIV PUSH4 0xFFFFFFFF AND PUSH4 0xFFFFFFFF AND PUSH4 0xFFFFFFFF AND DUP2 MSTORE PUSH1 0x20 ADD PUSH0 DUP3 ADD PUSH1 0x4 SWAP1 SLOAD SWAP1 PUSH2 0x100 EXP SWAP1 DIV PUSH28 0xFFFFFFFFFFFFFFFFFFFFFFFFFFFFFFFFFFFFFFFFFFFFFFFFFFFFFFFF AND PUSH28 0xFFFFFFFFFFFFFFFFFFFFFFFFFFFFFFFFFFFFFFFFFFFFFFFFFFFFFFFF AND PUSH28 0xFFFFFFFFFFFFFFFFFFFFFFFFFFFFFFFFFFFFFFFFFFFFFFFFFFFFFFFF AND DUP2 MSTORE POP POP SWAP1 POP SWAP3 SWAP2 POP POP JUMP JUMPDEST PUSH2 0x1769 PUSH2 0x1EC1 JUMP JUMPDEST PUSH0 PUSH20 0xFFFFFFFFFFFFFFFFFFFFFFFFFFFFFFFFFFFFFFFF AND DUP2 PUSH20 0xFFFFFFFFFFFFFFFFFFFFFFFFFFFFFFFFFFFFFFFF AND SUB PUSH2 0x17D7 JUMPI PUSH1 0x40 MLOAD PUSH32 0x8C379A000000000000000000000000000000000000000000000000000000000 DUP2 MSTORE PUSH1 0x4 ADD PUSH2 0x17CE SWAP1 PUSH2 0x48A9 JUMP JUMPDEST PUSH1 0x40 MLOAD DUP1 SWAP2 SUB SWAP1 REVERT JUMPDEST PUSH2 0x17E0 DUP2 PUSH2 0x2215 JUMP JUMPDEST POP JUMP JUMPDEST PUSH0 DUP2 DUP4 PUSH2 0x17F0 SWAP2 SWAP1 PUSH2 0x4172 JUMP JUMPDEST SWAP1 POP SWAP3 SWAP2 POP POP JUMP JUMPDEST PUSH0 DUP2 DUP4 PUSH2 0x1805 SWAP2 SWAP1 PUSH2 0x4474 JUMP JUMPDEST SWAP1 POP SWAP3 SWAP2 POP POP JUMP JUMPDEST PUSH0 CALLER SWAP1 POP SWAP1 JUMP JUMPDEST PUSH0 PUSH20 0xFFFFFFFFFFFFFFFFFFFFFFFFFFFFFFFFFFFFFFFF AND DUP4 PUSH20 0xFFFFFFFFFFFFFFFFFFFFFFFFFFFFFFFFFFFFFFFF AND SUB PUSH2 0x1882 JUMPI PUSH1 0x40 MLOAD PUSH32 0x8C379A000000000000000000000000000000000000000000000000000000000 DUP2 MSTORE PUSH1 0x4 ADD PUSH2 0x1879 SWAP1 PUSH2 0x4937 JUMP JUMPDEST PUSH1 0x40 MLOAD DUP1 SWAP2 SUB SWAP1 REVERT JUMPDEST PUSH0 PUSH20 0xFFFFFFFFFFFFFFFFFFFFFFFFFFFFFFFFFFFFFFFF AND DUP3 PUSH20 0xFFFFFFFFFFFFFFFFFFFFFFFFFFFFFFFFFFFFFFFF AND SUB PUSH2 0x18F0 JUMPI PUSH1 0x40 MLOAD PUSH32 0x8C379A000000000000000000000000000000000000000000000000000000000 DUP2 MSTORE PUSH1 0x4 ADD PUSH2 0x18E7 SWAP1 PUSH2 0x49C5 JUMP JUMPDEST PUSH1 0x40 MLOAD DUP1 SWAP2 SUB SWAP1 REVERT JUMPDEST DUP1 PUSH1 0x1 PUSH0 DUP6 PUSH20 0xFFFFFFFFFFFFFFFFFFFFFFFFFFFFFFFFFFFFFFFF AND PUSH20 0xFFFFFFFFFFFFFFFFFFFFFFFFFFFFFFFFFFFFFFFF AND DUP2 MSTORE PUSH1 0x20 ADD SWAP1 DUP2 MSTORE PUSH1 0x20 ADD PUSH0 KECCAK256 PUSH0 DUP5 PUSH20 0xFFFFFFFFFFFFFFFFFFFFFFFFFFFFFFFFFFFFFFFF AND PUSH20 0xFFFFFFFFFFFFFFFFFFFFFFFFFFFFFFFFFFFFFFFF AND DUP2 MSTORE PUSH1 0x20 ADD SWAP1 DUP2 MSTORE PUSH1 0x20 ADD PUSH0 KECCAK256 DUP2 SWAP1 SSTORE POP DUP2 PUSH20 0xFFFFFFFFFFFFFFFFFFFFFFFFFFFFFFFFFFFFFFFF AND DUP4 PUSH20 0xFFFFFFFFFFFFFFFFFFFFFFFFFFFFFFFFFFFFFFFF AND PUSH32 0x8C5BE1E5EBEC7D5BD14F71427D1E84F3DD0314C0F7B2291E5B200AC8C7C3B925 DUP4 PUSH1 0x40 MLOAD PUSH2 0x19CA SWAP2 SWAP1 PUSH2 0x39EE JUMP JUMPDEST PUSH1 0x40 MLOAD DUP1 SWAP2 SUB SWAP1 LOG3 POP POP POP JUMP JUMPDEST PUSH0 PUSH2 0x19E2 DUP5 DUP5 PUSH2 0x15D6 JUMP JUMPDEST SWAP1 POP PUSH32 0xFFFFFFFFFFFFFFFFFFFFFFFFFFFFFFFFFFFFFFFFFFFFFFFFFFFFFFFFFFFFFFFF DUP2 EQ PUSH2 0x1A5C JUMPI DUP2 DUP2 LT ISZERO PUSH2 0x1A4E JUMPI PUSH1 0x40 MLOAD PUSH32 0x8C379A000000000000000000000000000000000000000000000000000000000 DUP2 MSTORE PUSH1 0x4 ADD PUSH2 0x1A45 SWAP1 PUSH2 0x4A2D JUMP JUMPDEST PUSH1 0x40 MLOAD DUP1 SWAP2 SUB SWAP1 REVERT JUMPDEST PUSH2 0x1A5B DUP5 DUP5 DUP5 DUP5 SUB PUSH2 0x1814 JUMP JUMPDEST JUMPDEST POP POP POP POP JUMP JUMPDEST PUSH0 PUSH20 0xFFFFFFFFFFFFFFFFFFFFFFFFFFFFFFFFFFFFFFFF AND DUP4 PUSH20 0xFFFFFFFFFFFFFFFFFFFFFFFFFFFFFFFFFFFFFFFF AND SUB PUSH2 0x1AD0 JUMPI PUSH1 0x40 MLOAD PUSH32 0x8C379A000000000000000000000000000000000000000000000000000000000 DUP2 MSTORE PUSH1 0x4 ADD PUSH2 0x1AC7 SWAP1 PUSH2 0x4ABB JUMP JUMPDEST PUSH1 0x40 MLOAD DUP1 SWAP2 SUB SWAP1 REVERT JUMPDEST PUSH0 PUSH20 0xFFFFFFFFFFFFFFFFFFFFFFFFFFFFFFFFFFFFFFFF AND DUP3 PUSH20 0xFFFFFFFFFFFFFFFFFFFFFFFFFFFFFFFFFFFFFFFF AND SUB PUSH2 0x1B3E JUMPI PUSH1 0x40 MLOAD PUSH32 0x8C379A000000000000000000000000000000000000000000000000000000000 DUP2 MSTORE PUSH1 0x4 ADD PUSH2 0x1B35 SWAP1 PUSH2 0x4B49 JUMP JUMPDEST PUSH1 0x40 MLOAD DUP1 SWAP2 SUB SWAP1 REVERT JUMPDEST PUSH2 0x1B49 DUP4 DUP4 DUP4 PUSH2 0x2540 JUMP JUMPDEST PUSH0 DUP1 PUSH0 DUP6 PUSH20 0xFFFFFFFFFFFFFFFFFFFFFFFFFFFFFFFFFFFFFFFF AND PUSH20 0xFFFFFFFFFFFFFFFFFFFFFFFFFFFFFFFFFFFFFFFF AND DUP2 MSTORE PUSH1 0x20 ADD SWAP1 DUP2 MSTORE PUSH1 0x20 ADD PUSH0 KECCAK256 SLOAD SWAP1 POP DUP2 DUP2 LT ISZERO PUSH2 0x1BCC JUMPI PUSH1 0x40 MLOAD PUSH32 0x8C379A000000000000000000000000000000000000000000000000000000000 DUP2 MSTORE PUSH1 0x4 ADD PUSH2 0x1BC3 SWAP1 PUSH2 0x4BD7 JUMP JUMPDEST PUSH1 0x40 MLOAD DUP1 SWAP2 SUB SWAP1 REVERT JUMPDEST DUP2 DUP2 SUB PUSH0 DUP1 DUP7 PUSH20 0xFFFFFFFFFFFFFFFFFFFFFFFFFFFFFFFFFFFFFFFF AND PUSH20 0xFFFFFFFFFFFFFFFFFFFFFFFFFFFFFFFFFFFFFFFF AND DUP2 MSTORE PUSH1 0x20 ADD SWAP1 DUP2 MSTORE PUSH1 0x20 ADD PUSH0 KECCAK256 DUP2 SWAP1 SSTORE POP DUP2 PUSH0 DUP1 DUP6 PUSH20 0xFFFFFFFFFFFFFFFFFFFFFFFFFFFFFFFFFFFFFFFF AND PUSH20 0xFFFFFFFFFFFFFFFFFFFFFFFFFFFFFFFFFFFFFFFF AND DUP2 MSTORE PUSH1 0x20 ADD SWAP1 DUP2 MSTORE PUSH1 0x20 ADD PUSH0 KECCAK256 PUSH0 DUP3 DUP3 SLOAD ADD SWAP3 POP POP DUP2 SWAP1 SSTORE POP DUP3 PUSH20 0xFFFFFFFFFFFFFFFFFFFFFFFFFFFFFFFFFFFFFFFF AND DUP5 PUSH20 0xFFFFFFFFFFFFFFFFFFFFFFFFFFFFFFFFFFFFFFFF AND PUSH32 0xDDF252AD1BE2C89B69C2B068FC378DAA952BA7F163C4A11628F55A4DF523B3EF DUP5 PUSH1 0x40 MLOAD PUSH2 0x1CB5 SWAP2 SWAP1 PUSH2 0x39EE JUMP JUMPDEST PUSH1 0x40 MLOAD DUP1 SWAP2 SUB SWAP1 LOG3 PUSH2 0x1CC8 DUP5 DUP5 DUP5 PUSH2 0x2558 JUMP JUMPDEST POP POP POP POP JUMP JUMPDEST PUSH0 PUSH32 0x0 PUSH20 0xFFFFFFFFFFFFFFFFFFFFFFFFFFFFFFFFFFFFFFFF AND ADDRESS PUSH20 0xFFFFFFFFFFFFFFFFFFFFFFFFFFFFFFFFFFFFFFFF AND EQ DUP1 ISZERO PUSH2 0x1D49 JUMPI POP PUSH32 0x0 CHAINID EQ JUMPDEST ISZERO PUSH2 0x1D76 JUMPI PUSH32 0x0 SWAP1 POP PUSH2 0x1D81 JUMP JUMPDEST PUSH2 0x1D7E PUSH2 0x2568 JUMP JUMPDEST SWAP1 POP JUMPDEST SWAP1 JUMP JUMPDEST PUSH0 DUP1 DUP4 DUP1 SLOAD SWAP1 POP SWAP1 POP PUSH0 DUP1 DUP3 SWAP1 POP PUSH1 0x5 DUP4 GT ISZERO PUSH2 0x1DF5 JUMPI PUSH0 PUSH2 0x1DA5 DUP5 PUSH2 0x25FD JUMP JUMPDEST DUP5 PUSH2 0x1DB0 SWAP2 SWAP1 PUSH2 0x4474 JUMP JUMPDEST SWAP1 POP DUP6 PUSH2 0x1DBD DUP9 DUP4 PUSH2 0x26F3 JUMP JUMPDEST PUSH0 ADD PUSH0 SWAP1 SLOAD SWAP1 PUSH2 0x100 EXP SWAP1 DIV PUSH4 0xFFFFFFFF AND PUSH4 0xFFFFFFFF AND GT ISZERO PUSH2 0x1DE3 JUMPI DUP1 SWAP2 POP PUSH2 0x1DF3 JUMP JUMPDEST PUSH1 0x1 DUP2 PUSH2 0x1DF0 SWAP2 SWAP1 PUSH2 0x4172 JUMP JUMPDEST SWAP3 POP JUMPDEST POP JUMPDEST JUMPDEST DUP1 DUP3 LT ISZERO PUSH2 0x1E52 JUMPI PUSH0 PUSH2 0x1E09 DUP4 DUP4 PUSH2 0x2705 JUMP JUMPDEST SWAP1 POP DUP6 PUSH2 0x1E16 DUP9 DUP4 PUSH2 0x26F3 JUMP JUMPDEST PUSH0 ADD PUSH0 SWAP1 SLOAD SWAP1 PUSH2 0x100 EXP SWAP1 DIV PUSH4 0xFFFFFFFF AND PUSH4 0xFFFFFFFF AND GT ISZERO PUSH2 0x1E3C JUMPI DUP1 SWAP2 POP PUSH2 0x1E4C JUMP JUMPDEST PUSH1 0x1 DUP2 PUSH2 0x1E49 SWAP2 SWAP1 PUSH2 0x4172 JUMP JUMPDEST SWAP3 POP JUMPDEST POP PUSH2 0x1DF6 JUMP JUMPDEST PUSH0 DUP2 EQ PUSH2 0x1E96 JUMPI PUSH2 0x1E66 DUP7 PUSH1 0x1 DUP4 SUB PUSH2 0x26F3 JUMP JUMPDEST PUSH0 ADD PUSH1 0x4 SWAP1 SLOAD SWAP1 PUSH2 0x100 EXP SWAP1 DIV PUSH28 0xFFFFFFFFFFFFFFFFFFFFFFFFFFFFFFFFFFFFFFFFFFFFFFFFFFFFFFFF AND PUSH2 0x1E98 JUMP JUMPDEST PUSH0 JUMPDEST PUSH28 0xFFFFFFFFFFFFFFFFFFFFFFFFFFFFFFFFFFFFFFFFFFFFFFFFFFFFFFFF AND SWAP4 POP POP POP POP SWAP3 SWAP2 POP POP JUMP JUMPDEST PUSH2 0x1EC9 PUSH2 0x180D JUMP JUMPDEST PUSH20 0xFFFFFFFFFFFFFFFFFFFFFFFFFFFFFFFFFFFFFFFF AND PUSH2 0x1EE7 PUSH2 0x1011 JUMP JUMPDEST PUSH20 0xFFFFFFFFFFFFFFFFFFFFFFFFFFFFFFFFFFFFFFFF AND EQ PUSH2 0x1F3D JUMPI PUSH1 0x40 MLOAD PUSH32 0x8C379A000000000000000000000000000000000000000000000000000000000 DUP2 MSTORE PUSH1 0x4 ADD PUSH2 0x1F34 SWAP1 PUSH2 0x4C3F JUMP JUMPDEST PUSH1 0x40 MLOAD DUP1 SWAP2 SUB SWAP1 REVERT JUMPDEST JUMP JUMPDEST PUSH2 0x1F47 PUSH2 0x272A JUMP JUMPDEST PUSH0 PUSH1 0x9 PUSH1 0x14 PUSH2 0x100 EXP DUP2 SLOAD DUP2 PUSH1 0xFF MUL NOT AND SWAP1 DUP4 ISZERO ISZERO MUL OR SWAP1 SSTORE POP PUSH32 0x5DB9EE0A495BF2E6FF9C91A7834C1BA4FDD244A5E8AA4E537BD38AEAE4B073AA PUSH2 0x1F8A PUSH2 0x180D JUMP JUMPDEST PUSH1 0x40 MLOAD PUSH2 0x1F97 SWAP2 SWAP1 PUSH2 0x3B21 JUMP JUMPDEST PUSH1 0x40 MLOAD DUP1 SWAP2 SUB SWAP1 LOG1 JUMP JUMPDEST PUSH2 0x1FAB DUP3 DUP3 PUSH2 0x2773 JUMP JUMPDEST POP POP JUMP JUMPDEST PUSH2 0x1FB9 DUP3 DUP3 PUSH2 0x2800 JUMP JUMPDEST POP POP JUMP JUMPDEST PUSH0 DUP1 PUSH0 DUP5 GT PUSH2 0x2001 JUMPI PUSH1 0x40 MLOAD PUSH32 0x8C379A000000000000000000000000000000000000000000000000000000000 DUP2 MSTORE PUSH1 0x4 ADD PUSH2 0x1FF8 SWAP1 PUSH2 0x4CA7 JUMP JUMPDEST PUSH1 0x40 MLOAD DUP1 SWAP2 SUB SWAP1 REVERT JUMPDEST PUSH2 0x2009 PUSH2 0x281E JUMP JUMPDEST DUP5 GT ISZERO PUSH2 0x204B JUMPI PUSH1 0x40 MLOAD PUSH32 0x8C379A000000000000000000000000000000000000000000000000000000000 DUP2 MSTORE PUSH1 0x4 ADD PUSH2 0x2042 SWAP1 PUSH2 0x4D0F JUMP JUMPDEST PUSH1 0x40 MLOAD DUP1 SWAP2 SUB SWAP1 REVERT JUMPDEST PUSH0 PUSH2 0x2061 DUP6 DUP6 PUSH0 ADD PUSH2 0x282E SWAP1 SWAP2 SWAP1 PUSH4 0xFFFFFFFF AND JUMP JUMPDEST SWAP1 POP DUP4 PUSH0 ADD DUP1 SLOAD SWAP1 POP DUP2 SUB PUSH2 0x207C JUMPI PUSH0 DUP1 SWAP3 POP SWAP3 POP POP PUSH2 0x20A3 JUMP JUMPDEST PUSH1 0x1 DUP5 PUSH1 0x1 ADD DUP3 DUP2 SLOAD DUP2 LT PUSH2 0x2094 JUMPI PUSH2 0x2093 PUSH2 0x44D4 JUMP JUMPDEST JUMPDEST SWAP1 PUSH0 MSTORE PUSH1 0x20 PUSH0 KECCAK256 ADD SLOAD SWAP3 POP SWAP3 POP POP JUMPDEST SWAP3 POP SWAP3 SWAP1 POP JUMP JUMPDEST PUSH0 PUSH2 0x20B4 DUP4 PUSH2 0xB03 JUMP JUMPDEST SWAP1 POP PUSH0 PUSH2 0x20C0 DUP5 PUSH2 0xE3D JUMP JUMPDEST SWAP1 POP DUP3 PUSH1 0xE PUSH0 DUP7 PUSH20 0xFFFFFFFFFFFFFFFFFFFFFFFFFFFFFFFFFFFFFFFF AND PUSH20 0xFFFFFFFFFFFFFFFFFFFFFFFFFFFFFFFFFFFFFFFF AND DUP2 MSTORE PUSH1 0x20 ADD SWAP1 DUP2 MSTORE PUSH1 0x20 ADD PUSH0 KECCAK256 PUSH0 PUSH2 0x100 EXP DUP2 SLOAD DUP2 PUSH20 0xFFFFFFFFFFFFFFFFFFFFFFFFFFFFFFFFFFFFFFFF MUL NOT AND SWAP1 DUP4 PUSH20 0xFFFFFFFFFFFFFFFFFFFFFFFFFFFFFFFFFFFFFFFF AND MUL OR SWAP1 SSTORE POP DUP3 PUSH20 0xFFFFFFFFFFFFFFFFFFFFFFFFFFFFFFFFFFFFFFFF AND DUP3 PUSH20 0xFFFFFFFFFFFFFFFFFFFFFFFFFFFFFFFFFFFFFFFF AND DUP6 PUSH20 0xFFFFFFFFFFFFFFFFFFFFFFFFFFFFFFFFFFFFFFFF AND PUSH32 0x3134E8A2E6D97E929A7E54011EA5485D7D196DD5F0BA4D4EF95803E8E3FC257F PUSH1 0x40 MLOAD PUSH1 0x40 MLOAD DUP1 SWAP2 SUB SWAP1 LOG4 PUSH2 0x21B9 DUP3 DUP5 DUP4 PUSH2 0x28E0 JUMP JUMPDEST POP POP POP POP JUMP JUMPDEST PUSH0 SWAP1 JUMP JUMPDEST PUSH0 PUSH4 0xFFFFFFFF DUP1 AND DUP3 GT ISZERO PUSH2 0x220D JUMPI PUSH1 0x40 MLOAD PUSH32 0x8C379A000000000000000000000000000000000000000000000000000000000 DUP2 MSTORE PUSH1 0x4 ADD PUSH2 0x2204 SWAP1 PUSH2 0x4D9D JUMP JUMPDEST PUSH1 0x40 MLOAD DUP1 SWAP2 SUB SWAP1 REVERT JUMPDEST DUP2 SWAP1 POP SWAP2 SWAP1 POP JUMP JUMPDEST PUSH0 PUSH1 0x9 PUSH0 SWAP1 SLOAD SWAP1 PUSH2 0x100 EXP SWAP1 DIV PUSH20 0xFFFFFFFFFFFFFFFFFFFFFFFFFFFFFFFFFFFFFFFF AND SWAP1 POP DUP2 PUSH1 0x9 PUSH0 PUSH2 0x100 EXP DUP2 SLOAD DUP2 PUSH20 0xFFFFFFFFFFFFFFFFFFFFFFFFFFFFFFFFFFFFFFFF MUL NOT AND SWAP1 DUP4 PUSH20 0xFFFFFFFFFFFFFFFFFFFFFFFFFFFFFFFFFFFFFFFF AND MUL OR SWAP1 SSTORE POP DUP2 PUSH20 0xFFFFFFFFFFFFFFFFFFFFFFFFFFFFFFFFFFFFFFFF AND DUP2 PUSH20 0xFFFFFFFFFFFFFFFFFFFFFFFFFFFFFFFFFFFFFFFF AND PUSH32 0x8BE0079C531659141344CD1FD0A4F28419497F9722A3DAAFE3B4186F6B6457E0 PUSH1 0x40 MLOAD PUSH1 0x40 MLOAD DUP1 SWAP2 SUB SWAP1 LOG3 POP POP JUMP JUMPDEST PUSH0 DUP2 PUSH0 ADD SLOAD SWAP1 POP SWAP2 SWAP1 POP JUMP JUMPDEST PUSH2 0x22EC PUSH2 0x2AD0 JUMP JUMPDEST PUSH1 0x1 PUSH1 0x9 PUSH1 0x14 PUSH2 0x100 EXP DUP2 SLOAD DUP2 PUSH1 0xFF MUL NOT AND SWAP1 DUP4 ISZERO ISZERO MUL OR SWAP1 SSTORE POP PUSH32 0x62E78CEA01BEE320CD4E420270B5EA74000D11B0C9F74754EBDBFC544B05A258 PUSH2 0x2330 PUSH2 0x180D JUMP JUMPDEST PUSH1 0x40 MLOAD PUSH2 0x233D SWAP2 SWAP1 PUSH2 0x3B21 JUMP JUMPDEST PUSH1 0x40 MLOAD DUP1 SWAP2 SUB SWAP1 LOG1 JUMP JUMPDEST PUSH1 0x60 PUSH1 0xFF PUSH0 SHL DUP4 EQ PUSH2 0x2363 JUMPI PUSH2 0x235C DUP4 PUSH2 0x2B1A JUMP JUMPDEST SWAP1 POP PUSH2 0x23EE JUMP JUMPDEST DUP2 DUP1 SLOAD PUSH2 0x236F SWAP1 PUSH2 0x4115 JUMP JUMPDEST DUP1 PUSH1 0x1F ADD PUSH1 0x20 DUP1 SWAP2 DIV MUL PUSH1 0x20 ADD PUSH1 0x40 MLOAD SWAP1 DUP2 ADD PUSH1 0x40 MSTORE DUP1 SWAP3 SWAP2 SWAP1 DUP2 DUP2 MSTORE PUSH1 0x20 ADD DUP3 DUP1 SLOAD PUSH2 0x239B SWAP1 PUSH2 0x4115 JUMP JUMPDEST DUP1 ISZERO PUSH2 0x23E6 JUMPI DUP1 PUSH1 0x1F LT PUSH2 0x23BD JUMPI PUSH2 0x100 DUP1 DUP4 SLOAD DIV MUL DUP4 MSTORE SWAP2 PUSH1 0x20 ADD SWAP2 PUSH2 0x23E6 JUMP JUMPDEST DUP3 ADD SWAP2 SWAP1 PUSH0 MSTORE PUSH1 0x20 PUSH0 KECCAK256 SWAP1 JUMPDEST DUP2 SLOAD DUP2 MSTORE SWAP1 PUSH1 0x1 ADD SWAP1 PUSH1 0x20 ADD DUP1 DUP4 GT PUSH2 0x23C9 JUMPI DUP3 SWAP1 SUB PUSH1 0x1F AND DUP3 ADD SWAP2 JUMPDEST POP POP POP POP POP SWAP1 POP JUMPDEST SWAP3 SWAP2 POP POP JUMP JUMPDEST PUSH0 PUSH6 0xFFFFFFFFFFFF DUP1 AND DUP3 GT ISZERO PUSH2 0x2440 JUMPI PUSH1 0x40 MLOAD PUSH32 0x8C379A000000000000000000000000000000000000000000000000000000000 DUP2 MSTORE PUSH1 0x4 ADD PUSH2 0x2437 SWAP1 PUSH2 0x4E2B JUMP JUMPDEST PUSH1 0x40 MLOAD DUP1 SWAP2 SUB SWAP1 REVERT JUMPDEST DUP2 SWAP1 POP SWAP2 SWAP1 POP JUMP JUMPDEST PUSH0 PUSH2 0x2453 PUSH1 0x8 PUSH2 0x2B8C JUMP JUMPDEST PUSH0 PUSH2 0x245C PUSH2 0x281E JUMP JUMPDEST SWAP1 POP PUSH32 0x8030E83B04D87BEF53480E26263266D6CA66863AA8506ACA6F2559D18AA1CB67 DUP2 PUSH1 0x40 MLOAD PUSH2 0x248D SWAP2 SWAP1 PUSH2 0x39EE JUMP JUMPDEST PUSH1 0x40 MLOAD DUP1 SWAP2 SUB SWAP1 LOG1 DUP1 SWAP2 POP POP SWAP1 JUMP JUMPDEST PUSH0 PUSH2 0x24AE PUSH2 0x24A8 PUSH2 0x1CCE JUMP JUMPDEST DUP4 PUSH2 0x2BA0 JUMP JUMPDEST SWAP1 POP SWAP2 SWAP1 POP JUMP JUMPDEST PUSH0 DUP1 PUSH0 PUSH2 0x24C4 DUP8 DUP8 DUP8 DUP8 PUSH2 0x2BE0 JUMP JUMPDEST SWAP2 POP SWAP2 POP PUSH2 0x24D1 DUP2 PUSH2 0x2CB8 JUMP JUMPDEST DUP2 SWAP3 POP POP POP SWAP5 SWAP4 POP POP POP POP JUMP JUMPDEST PUSH0 DUP1 PUSH1 0xC PUSH0 DUP5 PUSH20 0xFFFFFFFFFFFFFFFFFFFFFFFFFFFFFFFFFFFFFFFF AND PUSH20 0xFFFFFFFFFFFFFFFFFFFFFFFFFFFFFFFFFFFFFFFF AND DUP2 MSTORE PUSH1 0x20 ADD SWAP1 DUP2 MSTORE PUSH1 0x20 ADD PUSH0 KECCAK256 SWAP1 POP PUSH2 0x2528 DUP2 PUSH2 0x22D8 JUMP JUMPDEST SWAP2 POP PUSH2 0x2533 DUP2 PUSH2 0x2B8C JUMP JUMPDEST POP SWAP2 SWAP1 POP JUMP JUMPDEST PUSH0 SWAP3 SWAP2 POP POP JUMP JUMPDEST PUSH2 0x2548 PUSH2 0x2AD0 JUMP JUMPDEST PUSH2 0x2553 DUP4 DUP4 DUP4 PUSH2 0x2E1D JUMP JUMPDEST POP POP POP JUMP JUMPDEST PUSH2 0x2563 DUP4 DUP4 DUP4 PUSH2 0x2ED3 JUMP JUMPDEST POP POP POP JUMP JUMPDEST PUSH0 PUSH32 0x8B73C3C69BB8FE3D512ECC4CF759CC79239F7B179B0FFACAA9A75D522B39400F PUSH32 0x0 PUSH32 0x0 CHAINID ADDRESS PUSH1 0x40 MLOAD PUSH1 0x20 ADD PUSH2 0x25E2 SWAP6 SWAP5 SWAP4 SWAP3 SWAP2 SWAP1 PUSH2 0x4E49 JUMP JUMPDEST PUSH1 0x40 MLOAD PUSH1 0x20 DUP2 DUP4 SUB SUB DUP2 MSTORE SWAP1 PUSH1 0x40 MSTORE DUP1 MLOAD SWAP1 PUSH1 0x20 ADD KECCAK256 SWAP1 POP SWAP1 JUMP JUMPDEST PUSH0 DUP1 DUP3 SUB PUSH2 0x260D JUMPI PUSH0 SWAP1 POP PUSH2 0x26EE JUMP JUMPDEST PUSH0 PUSH1 0x1 PUSH2 0x2619 DUP5 PUSH2 0x2EFE JUMP JUMPDEST SWAP1 SHR PUSH1 0x1 SWAP1 SHL SWAP1 POP PUSH1 0x1 DUP2 DUP5 DUP2 PUSH2 0x2633 JUMPI PUSH2 0x2632 PUSH2 0x4E9A JUMP JUMPDEST JUMPDEST DIV DUP3 ADD SWAP1 SHR SWAP1 POP PUSH1 0x1 DUP2 DUP5 DUP2 PUSH2 0x264C JUMPI PUSH2 0x264B PUSH2 0x4E9A JUMP JUMPDEST JUMPDEST DIV DUP3 ADD SWAP1 SHR SWAP1 POP PUSH1 0x1 DUP2 DUP5 DUP2 PUSH2 0x2665 JUMPI PUSH2 0x2664 PUSH2 0x4E9A JUMP JUMPDEST JUMPDEST DIV DUP3 ADD SWAP1 SHR SWAP1 POP PUSH1 0x1 DUP2 DUP5 DUP2 PUSH2 0x267E JUMPI PUSH2 0x267D PUSH2 0x4E9A JUMP JUMPDEST JUMPDEST DIV DUP3 ADD SWAP1 SHR SWAP1 POP PUSH1 0x1 DUP2 DUP5 DUP2 PUSH2 0x2697 JUMPI PUSH2 0x2696 PUSH2 0x4E9A JUMP JUMPDEST JUMPDEST DIV DUP3 ADD SWAP1 SHR SWAP1 POP PUSH1 0x1 DUP2 DUP5 DUP2 PUSH2 0x26B0 JUMPI PUSH2 0x26AF PUSH2 0x4E9A JUMP JUMPDEST JUMPDEST DIV DUP3 ADD SWAP1 SHR SWAP1 POP PUSH1 0x1 DUP2 DUP5 DUP2 PUSH2 0x26C9 JUMPI PUSH2 0x26C8 PUSH2 0x4E9A JUMP JUMPDEST JUMPDEST DIV DUP3 ADD SWAP1 SHR SWAP1 POP PUSH2 0x26EA DUP2 DUP3 DUP6 DUP2 PUSH2 0x26E4 JUMPI PUSH2 0x26E3 PUSH2 0x4E9A JUMP JUMPDEST JUMPDEST DIV PUSH2 0x2FD5 JUMP JUMPDEST SWAP2 POP POP JUMPDEST SWAP2 SWAP1 POP JUMP JUMPDEST PUSH0 DUP3 PUSH0 MSTORE DUP2 PUSH1 0x20 PUSH0 KECCAK256 ADD SWAP1 POP SWAP3 SWAP2 POP POP JUMP JUMPDEST PUSH0 PUSH1 0x2 DUP3 DUP5 XOR PUSH2 0x2715 SWAP2 SWAP1 PUSH2 0x4EC7 JUMP JUMPDEST DUP3 DUP5 AND PUSH2 0x2722 SWAP2 SWAP1 PUSH2 0x4172 JUMP JUMPDEST SWAP1 POP SWAP3 SWAP2 POP POP JUMP JUMPDEST PUSH2 0x2732 PUSH2 0xB7C JUMP JUMPDEST PUSH2 0x2771 JUMPI PUSH1 0x40 MLOAD PUSH32 0x8C379A000000000000000000000000000000000000000000000000000000000 DUP2 MSTORE PUSH1 0x4 ADD PUSH2 0x2768 SWAP1 PUSH2 0x4F41 JUMP JUMPDEST PUSH1 0x40 MLOAD DUP1 SWAP2 SUB SWAP1 REVERT JUMPDEST JUMP JUMPDEST PUSH2 0x277D DUP3 DUP3 PUSH2 0x2FED JUMP JUMPDEST PUSH2 0x2785 PUSH2 0x313B JUMP JUMPDEST PUSH28 0xFFFFFFFFFFFFFFFFFFFFFFFFFFFFFFFFFFFFFFFFFFFFFFFFFFFFFFFF AND PUSH2 0x27AB PUSH2 0x8AA JUMP JUMPDEST GT ISZERO PUSH2 0x27EC JUMPI PUSH1 0x40 MLOAD PUSH32 0x8C379A000000000000000000000000000000000000000000000000000000000 DUP2 MSTORE PUSH1 0x4 ADD PUSH2 0x27E3 SWAP1 PUSH2 0x4FCF JUMP JUMPDEST PUSH1 0x40 MLOAD DUP1 SWAP2 SUB SWAP1 REVERT JUMPDEST PUSH2 0x27FA PUSH1 0x10 PUSH2 0x17E3 DUP4 PUSH2 0x315E JUMP JUMPDEST POP POP POP POP JUMP JUMPDEST PUSH2 0x280A DUP3 DUP3 PUSH2 0x3427 JUMP JUMPDEST PUSH2 0x2818 PUSH1 0x10 PUSH2 0x17F8 DUP4 PUSH2 0x315E JUMP JUMPDEST POP POP POP POP JUMP JUMPDEST PUSH0 PUSH2 0x2829 PUSH1 0x8 PUSH2 0x22D8 JUMP JUMPDEST SWAP1 POP SWAP1 JUMP JUMPDEST PUSH0 DUP1 DUP4 DUP1 SLOAD SWAP1 POP SUB PUSH2 0x2842 JUMPI PUSH0 SWAP1 POP PUSH2 0x28DA JUMP JUMPDEST PUSH0 DUP1 DUP5 DUP1 SLOAD SWAP1 POP SWAP1 POP JUMPDEST DUP1 DUP3 LT ISZERO PUSH2 0x2893 JUMPI PUSH0 PUSH2 0x285F DUP4 DUP4 PUSH2 0x2705 JUMP JUMPDEST SWAP1 POP DUP5 PUSH2 0x286C DUP8 DUP4 PUSH2 0x35EA JUMP JUMPDEST PUSH0 ADD SLOAD GT ISZERO PUSH2 0x287D JUMPI DUP1 SWAP2 POP PUSH2 0x288D JUMP JUMPDEST PUSH1 0x1 DUP2 PUSH2 0x288A SWAP2 SWAP1 PUSH2 0x4172 JUMP JUMPDEST SWAP3 POP JUMPDEST POP PUSH2 0x284C JUMP JUMPDEST PUSH0 DUP3 GT DUP1 ISZERO PUSH2 0x28B9 JUMPI POP DUP4 PUSH2 0x28B4 DUP7 PUSH1 0x1 DUP6 PUSH2 0x28AF SWAP2 SWAP1 PUSH2 0x4474 JUMP JUMPDEST PUSH2 0x35EA JUMP JUMPDEST PUSH0 ADD SLOAD EQ JUMPDEST ISZERO PUSH2 0x28D4 JUMPI PUSH1 0x1 DUP3 PUSH2 0x28CB SWAP2 SWAP1 PUSH2 0x4474 JUMP JUMPDEST SWAP3 POP POP POP PUSH2 0x28DA JUMP JUMPDEST DUP2 SWAP3 POP POP POP JUMPDEST SWAP3 SWAP2 POP POP JUMP JUMPDEST DUP2 PUSH20 0xFFFFFFFFFFFFFFFFFFFFFFFFFFFFFFFFFFFFFFFF AND DUP4 PUSH20 0xFFFFFFFFFFFFFFFFFFFFFFFFFFFFFFFFFFFFFFFF AND EQ ISZERO DUP1 ISZERO PUSH2 0x291B JUMPI POP PUSH0 DUP2 GT JUMPDEST ISZERO PUSH2 0x2ACB JUMPI PUSH0 PUSH20 0xFFFFFFFFFFFFFFFFFFFFFFFFFFFFFFFFFFFFFFFF AND DUP4 PUSH20 0xFFFFFFFFFFFFFFFFFFFFFFFFFFFFFFFFFFFFFFFF AND EQ PUSH2 0x29F5 JUMPI PUSH0 DUP1 PUSH2 0x299E PUSH1 0xF PUSH0 DUP8 PUSH20 0xFFFFFFFFFFFFFFFFFFFFFFFFFFFFFFFFFFFFFFFF AND PUSH20 0xFFFFFFFFFFFFFFFFFFFFFFFFFFFFFFFFFFFFFFFF AND DUP2 MSTORE PUSH1 0x20 ADD SWAP1 DUP2 MSTORE PUSH1 0x20 ADD PUSH0 KECCAK256 PUSH2 0x17F8 DUP6 PUSH2 0x315E JUMP JUMPDEST SWAP2 POP SWAP2 POP DUP5 PUSH20 0xFFFFFFFFFFFFFFFFFFFFFFFFFFFFFFFFFFFFFFFF AND PUSH32 0xDEC2BACDD2F05B59DE34DA9B523DFF8BE42E5E38E818C82FDB0BAE774387A724 DUP4 DUP4 PUSH1 0x40 MLOAD PUSH2 0x29EA SWAP3 SWAP2 SWAP1 PUSH2 0x4FED JUMP JUMPDEST PUSH1 0x40 MLOAD DUP1 SWAP2 SUB SWAP1 LOG2 POP POP JUMPDEST PUSH0 PUSH20 0xFFFFFFFFFFFFFFFFFFFFFFFFFFFFFFFFFFFFFFFF AND DUP3 PUSH20 0xFFFFFFFFFFFFFFFFFFFFFFFFFFFFFFFFFFFFFFFF AND EQ PUSH2 0x2ACA JUMPI PUSH0 DUP1 PUSH2 0x2A73 PUSH1 0xF PUSH0 DUP7 PUSH20 0xFFFFFFFFFFFFFFFFFFFFFFFFFFFFFFFFFFFFFFFF AND PUSH20 0xFFFFFFFFFFFFFFFFFFFFFFFFFFFFFFFFFFFFFFFF AND DUP2 MSTORE PUSH1 0x20 ADD SWAP1 DUP2 MSTORE PUSH1 0x20 ADD PUSH0 KECCAK256 PUSH2 0x17E3 DUP6 PUSH2 0x315E JUMP JUMPDEST SWAP2 POP SWAP2 POP DUP4 PUSH20 0xFFFFFFFFFFFFFFFFFFFFFFFFFFFFFFFFFFFFFFFF AND PUSH32 0xDEC2BACDD2F05B59DE34DA9B523DFF8BE42E5E38E818C82FDB0BAE774387A724 DUP4 DUP4 PUSH1 0x40 MLOAD PUSH2 0x2ABF SWAP3 SWAP2 SWAP1 PUSH2 0x4FED JUMP JUMPDEST PUSH1 0x40 MLOAD DUP1 SWAP2 SUB SWAP1 LOG2 POP POP JUMPDEST JUMPDEST POP POP POP JUMP JUMPDEST PUSH2 0x2AD8 PUSH2 0xB7C JUMP JUMPDEST ISZERO PUSH2 0x2B18 JUMPI PUSH1 0x40 MLOAD PUSH32 0x8C379A000000000000000000000000000000000000000000000000000000000 DUP2 MSTORE PUSH1 0x4 ADD PUSH2 0x2B0F SWAP1 PUSH2 0x505E JUMP JUMPDEST PUSH1 0x40 MLOAD DUP1 SWAP2 SUB SWAP1 REVERT JUMPDEST JUMP JUMPDEST PUSH1 0x60 PUSH0 PUSH2 0x2B26 DUP4 PUSH2 0x3609 JUMP JUMPDEST SWAP1 POP PUSH0 PUSH1 0x20 PUSH8 0xFFFFFFFFFFFFFFFF DUP2 GT ISZERO PUSH2 0x2B44 JUMPI PUSH2 0x2B43 PUSH2 0x44A7 JUMP JUMPDEST JUMPDEST PUSH1 0x40 MLOAD SWAP1 DUP1 DUP3 MSTORE DUP1 PUSH1 0x1F ADD PUSH1 0x1F NOT AND PUSH1 0x20 ADD DUP3 ADD PUSH1 0x40 MSTORE DUP1 ISZERO PUSH2 0x2B76 JUMPI DUP2 PUSH1 0x20 ADD PUSH1 0x1 DUP3 MUL DUP1 CALLDATASIZE DUP4 CALLDATACOPY DUP1 DUP3 ADD SWAP2 POP POP SWAP1 POP JUMPDEST POP SWAP1 POP DUP2 DUP2 MSTORE DUP4 PUSH1 0x20 DUP3 ADD MSTORE DUP1 SWAP3 POP POP POP SWAP2 SWAP1 POP JUMP JUMPDEST PUSH1 0x1 DUP2 PUSH0 ADD PUSH0 DUP3 DUP3 SLOAD ADD SWAP3 POP POP DUP2 SWAP1 SSTORE POP POP JUMP JUMPDEST PUSH0 PUSH1 0x40 MLOAD PUSH32 0x1901000000000000000000000000000000000000000000000000000000000000 DUP2 MSTORE DUP4 PUSH1 0x2 DUP3 ADD MSTORE DUP3 PUSH1 0x22 DUP3 ADD MSTORE PUSH1 0x42 DUP2 KECCAK256 SWAP2 POP POP SWAP3 SWAP2 POP POP JUMP JUMPDEST PUSH0 DUP1 PUSH32 0x7FFFFFFFFFFFFFFFFFFFFFFFFFFFFFFF5D576E7357A4501DDFE92F46681B20A0 DUP4 PUSH0 SHR GT ISZERO PUSH2 0x2C18 JUMPI PUSH0 PUSH1 0x3 SWAP2 POP SWAP2 POP PUSH2 0x2CAF JUMP JUMPDEST PUSH0 PUSH1 0x1 DUP8 DUP8 DUP8 DUP8 PUSH1 0x40 MLOAD PUSH0 DUP2 MSTORE PUSH1 0x20 ADD PUSH1 0x40 MSTORE PUSH1 0x40 MLOAD PUSH2 0x2C3B SWAP5 SWAP4 SWAP3 SWAP2 SWAP1 PUSH2 0x507C JUMP JUMPDEST PUSH1 0x20 PUSH1 0x40 MLOAD PUSH1 0x20 DUP2 SUB SWAP1 DUP1 DUP5 SUB SWAP1 DUP6 GAS STATICCALL ISZERO DUP1 ISZERO PUSH2 0x2C5B JUMPI RETURNDATASIZE PUSH0 DUP1 RETURNDATACOPY RETURNDATASIZE PUSH0 REVERT JUMPDEST POP POP POP PUSH1 0x20 PUSH1 0x40 MLOAD SUB MLOAD SWAP1 POP PUSH0 PUSH20 0xFFFFFFFFFFFFFFFFFFFFFFFFFFFFFFFFFFFFFFFF AND DUP2 PUSH20 0xFFFFFFFFFFFFFFFFFFFFFFFFFFFFFFFFFFFFFFFF AND SUB PUSH2 0x2CA7 JUMPI PUSH0 PUSH1 0x1 SWAP3 POP SWAP3 POP POP PUSH2 0x2CAF JUMP JUMPDEST DUP1 PUSH0 SWAP3 POP SWAP3 POP POP JUMPDEST SWAP5 POP SWAP5 SWAP3 POP POP POP JUMP JUMPDEST PUSH0 PUSH1 0x4 DUP2 GT ISZERO PUSH2 0x2CCB JUMPI PUSH2 0x2CCA PUSH2 0x50BF JUMP JUMPDEST JUMPDEST DUP2 PUSH1 0x4 DUP2 GT ISZERO PUSH2 0x2CDE JUMPI PUSH2 0x2CDD PUSH2 0x50BF JUMP JUMPDEST JUMPDEST SUB ISZERO PUSH2 0x2E1A JUMPI PUSH1 0x1 PUSH1 0x4 DUP2 GT ISZERO PUSH2 0x2CF8 JUMPI PUSH2 0x2CF7 PUSH2 0x50BF JUMP JUMPDEST JUMPDEST DUP2 PUSH1 0x4 DUP2 GT ISZERO PUSH2 0x2D0B JUMPI PUSH2 0x2D0A PUSH2 0x50BF JUMP JUMPDEST JUMPDEST SUB PUSH2 0x2D4B JUMPI PUSH1 0x40 MLOAD PUSH32 0x8C379A000000000000000000000000000000000000000000000000000000000 DUP2 MSTORE PUSH1 0x4 ADD PUSH2 0x2D42 SWAP1 PUSH2 0x5136 JUMP JUMPDEST PUSH1 0x40 MLOAD DUP1 SWAP2 SUB SWAP1 REVERT JUMPDEST PUSH1 0x2 PUSH1 0x4 DUP2 GT ISZERO PUSH2 0x2D5F JUMPI PUSH2 0x2D5E PUSH2 0x50BF JUMP JUMPDEST JUMPDEST DUP2 PUSH1 0x4 DUP2 GT ISZERO PUSH2 0x2D72 JUMPI PUSH2 0x2D71 PUSH2 0x50BF JUMP JUMPDEST JUMPDEST SUB PUSH2 0x2DB2 JUMPI PUSH1 0x40 MLOAD PUSH32 0x8C379A000000000000000000000000000000000000000000000000000000000 DUP2 MSTORE PUSH1 0x4 ADD PUSH2 0x2DA9 SWAP1 PUSH2 0x519E JUMP JUMPDEST PUSH1 0x40 MLOAD DUP1 SWAP2 SUB SWAP1 REVERT JUMPDEST PUSH1 0x3 PUSH1 0x4 DUP2 GT ISZERO PUSH2 0x2DC6 JUMPI PUSH2 0x2DC5 PUSH2 0x50BF JUMP JUMPDEST JUMPDEST DUP2 PUSH1 0x4 DUP2 GT ISZERO PUSH2 0x2DD9 JUMPI PUSH2 0x2DD8 PUSH2 0x50BF JUMP JUMPDEST JUMPDEST SUB PUSH2 0x2E19 JUMPI PUSH1 0x40 MLOAD PUSH32 0x8C379A000000000000000000000000000000000000000000000000000000000 DUP2 MSTORE PUSH1 0x4 ADD PUSH2 0x2E10 SWAP1 PUSH2 0x522C JUMP JUMPDEST PUSH1 0x40 MLOAD DUP1 SWAP2 SUB SWAP1 REVERT JUMPDEST JUMPDEST POP JUMP JUMPDEST PUSH2 0x2E28 DUP4 DUP4 DUP4 PUSH2 0x3657 JUMP JUMPDEST PUSH0 PUSH20 0xFFFFFFFFFFFFFFFFFFFFFFFFFFFFFFFFFFFFFFFF AND DUP4 PUSH20 0xFFFFFFFFFFFFFFFFFFFFFFFFFFFFFFFFFFFFFFFF AND SUB PUSH2 0x2E71 JUMPI PUSH2 0x2E64 DUP3 PUSH2 0x365C JUMP JUMPDEST PUSH2 0x2E6C PUSH2 0x36AD JUMP JUMPDEST PUSH2 0x2ECE JUMP JUMPDEST PUSH0 PUSH20 0xFFFFFFFFFFFFFFFFFFFFFFFFFFFFFFFFFFFFFFFF AND DUP3 PUSH20 0xFFFFFFFFFFFFFFFFFFFFFFFFFFFFFFFFFFFFFFFF AND SUB PUSH2 0x2EBA JUMPI PUSH2 0x2EAD DUP4 PUSH2 0x365C JUMP JUMPDEST PUSH2 0x2EB5 PUSH2 0x36AD JUMP JUMPDEST PUSH2 0x2ECD JUMP JUMPDEST PUSH2 0x2EC3 DUP4 PUSH2 0x365C JUMP JUMPDEST PUSH2 0x2ECC DUP3 PUSH2 0x365C JUMP JUMPDEST JUMPDEST JUMPDEST POP POP POP JUMP JUMPDEST PUSH2 0x2EDE DUP4 DUP4 DUP4 PUSH2 0x36C1 JUMP JUMPDEST PUSH2 0x2EF9 PUSH2 0x2EEA DUP5 PUSH2 0xB03 JUMP JUMPDEST PUSH2 0x2EF3 DUP5 PUSH2 0xB03 JUMP JUMPDEST DUP4 PUSH2 0x28E0 JUMP JUMPDEST POP POP POP JUMP JUMPDEST PUSH0 DUP1 PUSH0 SWAP1 POP PUSH0 PUSH1 0x80 DUP5 SWAP1 SHR GT ISZERO PUSH2 0x2F1D JUMPI PUSH1 0x80 DUP4 SWAP1 SHR SWAP3 POP PUSH1 0x80 DUP2 ADD SWAP1 POP JUMPDEST PUSH0 PUSH1 0x40 DUP5 SWAP1 SHR GT ISZERO PUSH2 0x2F37 JUMPI PUSH1 0x40 DUP4 SWAP1 SHR SWAP3 POP PUSH1 0x40 DUP2 ADD SWAP1 POP JUMPDEST PUSH0 PUSH1 0x20 DUP5 SWAP1 SHR GT ISZERO PUSH2 0x2F51 JUMPI PUSH1 0x20 DUP4 SWAP1 SHR SWAP3 POP PUSH1 0x20 DUP2 ADD SWAP1 POP JUMPDEST PUSH0 PUSH1 0x10 DUP5 SWAP1 SHR GT ISZERO PUSH2 0x2F6B JUMPI PUSH1 0x10 DUP4 SWAP1 SHR SWAP3 POP PUSH1 0x10 DUP2 ADD SWAP1 POP JUMPDEST PUSH0 PUSH1 0x8 DUP5 SWAP1 SHR GT ISZERO PUSH2 0x2F85 JUMPI PUSH1 0x8 DUP4 SWAP1 SHR SWAP3 POP PUSH1 0x8 DUP2 ADD SWAP1 POP JUMPDEST PUSH0 PUSH1 0x4 DUP5 SWAP1 SHR GT ISZERO PUSH2 0x2F9F JUMPI PUSH1 0x4 DUP4 SWAP1 SHR SWAP3 POP PUSH1 0x4 DUP2 ADD SWAP1 POP JUMPDEST PUSH0 PUSH1 0x2 DUP5 SWAP1 SHR GT ISZERO PUSH2 0x2FB9 JUMPI PUSH1 0x2 DUP4 SWAP1 SHR SWAP3 POP PUSH1 0x2 DUP2 ADD SWAP1 POP JUMPDEST PUSH0 PUSH1 0x1 DUP5 SWAP1 SHR GT ISZERO PUSH2 0x2FCC JUMPI PUSH1 0x1 DUP2 ADD SWAP1 POP JUMPDEST DUP1 SWAP2 POP POP SWAP2 SWAP1 POP JUMP JUMPDEST PUSH0 DUP2 DUP4 LT PUSH2 0x2FE3 JUMPI DUP2 PUSH2 0x2FE5 JUMP JUMPDEST DUP3 JUMPDEST SWAP1 POP SWAP3 SWAP2 POP POP JUMP JUMPDEST PUSH0 PUSH20 0xFFFFFFFFFFFFFFFFFFFFFFFFFFFFFFFFFFFFFFFF AND DUP3 PUSH20 0xFFFFFFFFFFFFFFFFFFFFFFFFFFFFFFFFFFFFFFFF AND SUB PUSH2 0x305B JUMPI PUSH1 0x40 MLOAD PUSH32 0x8C379A000000000000000000000000000000000000000000000000000000000 DUP2 MSTORE PUSH1 0x4 ADD PUSH2 0x3052 SWAP1 PUSH2 0x5294 JUMP JUMPDEST PUSH1 0x40 MLOAD DUP1 SWAP2 SUB SWAP1 REVERT JUMPDEST PUSH2 0x3066 PUSH0 DUP4 DUP4 PUSH2 0x2540 JUMP JUMPDEST DUP1 PUSH1 0x2 PUSH0 DUP3 DUP3 SLOAD PUSH2 0x3077 SWAP2 SWAP1 PUSH2 0x4172 JUMP JUMPDEST SWAP3 POP POP DUP2 SWAP1 SSTORE POP DUP1 PUSH0 DUP1 DUP5 PUSH20 0xFFFFFFFFFFFFFFFFFFFFFFFFFFFFFFFFFFFFFFFF AND PUSH20 0xFFFFFFFFFFFFFFFFFFFFFFFFFFFFFFFFFFFFFFFF AND DUP2 MSTORE PUSH1 0x20 ADD SWAP1 DUP2 MSTORE PUSH1 0x20 ADD PUSH0 KECCAK256 PUSH0 DUP3 DUP3 SLOAD ADD SWAP3 POP POP DUP2 SWAP1 SSTORE POP DUP2 PUSH20 0xFFFFFFFFFFFFFFFFFFFFFFFFFFFFFFFFFFFFFFFF AND PUSH0 PUSH20 0xFFFFFFFFFFFFFFFFFFFFFFFFFFFFFFFFFFFFFFFF AND PUSH32 0xDDF252AD1BE2C89B69C2B068FC378DAA952BA7F163C4A11628F55A4DF523B3EF DUP4 PUSH1 0x40 MLOAD PUSH2 0x3124 SWAP2 SWAP1 PUSH2 0x39EE JUMP JUMPDEST PUSH1 0x40 MLOAD DUP1 SWAP2 SUB SWAP1 LOG3 PUSH2 0x3137 PUSH0 DUP4 DUP4 PUSH2 0x2558 JUMP JUMPDEST POP POP JUMP JUMPDEST PUSH0 PUSH28 0xFFFFFFFFFFFFFFFFFFFFFFFFFFFFFFFFFFFFFFFFFFFFFFFFFFFFFFFF SWAP1 POP SWAP1 JUMP JUMPDEST PUSH0 DUP1 PUSH0 DUP6 DUP1 SLOAD SWAP1 POP SWAP1 POP PUSH0 DUP1 DUP3 EQ PUSH2 0x321E JUMPI PUSH2 0x317D DUP8 PUSH1 0x1 DUP5 SUB PUSH2 0x26F3 JUMP JUMPDEST PUSH1 0x40 MLOAD DUP1 PUSH1 0x40 ADD PUSH1 0x40 MSTORE SWAP1 DUP2 PUSH0 DUP3 ADD PUSH0 SWAP1 SLOAD SWAP1 PUSH2 0x100 EXP SWAP1 DIV PUSH4 0xFFFFFFFF AND PUSH4 0xFFFFFFFF AND PUSH4 0xFFFFFFFF AND DUP2 MSTORE PUSH1 0x20 ADD PUSH0 DUP3 ADD PUSH1 0x4 SWAP1 SLOAD SWAP1 PUSH2 0x100 EXP SWAP1 DIV PUSH28 0xFFFFFFFFFFFFFFFFFFFFFFFFFFFFFFFFFFFFFFFFFFFFFFFFFFFFFFFF AND PUSH28 0xFFFFFFFFFFFFFFFFFFFFFFFFFFFFFFFFFFFFFFFFFFFFFFFFFFFFFFFF AND PUSH28 0xFFFFFFFFFFFFFFFFFFFFFFFFFFFFFFFFFFFFFFFFFFFFFFFFFFFFFFFF AND DUP2 MSTORE POP POP PUSH2 0x3258 JUMP JUMPDEST PUSH1 0x40 MLOAD DUP1 PUSH1 0x40 ADD PUSH1 0x40 MSTORE DUP1 PUSH0 PUSH4 0xFFFFFFFF AND DUP2 MSTORE PUSH1 0x20 ADD PUSH0 PUSH28 0xFFFFFFFFFFFFFFFFFFFFFFFFFFFFFFFFFFFFFFFFFFFFFFFFFFFFFFFF AND DUP2 MSTORE POP JUMPDEST SWAP1 POP DUP1 PUSH1 0x20 ADD MLOAD PUSH28 0xFFFFFFFFFFFFFFFFFFFFFFFFFFFFFFFFFFFFFFFFFFFFFFFFFFFFFFFF AND SWAP4 POP PUSH2 0x328D DUP5 DUP7 DUP9 PUSH4 0xFFFFFFFF AND JUMP JUMPDEST SWAP3 POP PUSH0 DUP3 GT DUP1 ISZERO PUSH2 0x32B5 JUMPI POP PUSH2 0x32A1 PUSH2 0x109D JUMP JUMPDEST PUSH6 0xFFFFFFFFFFFF AND DUP2 PUSH0 ADD MLOAD PUSH4 0xFFFFFFFF AND EQ JUMPDEST ISZERO PUSH2 0x3325 JUMPI PUSH2 0x32C3 DUP4 PUSH2 0x36C6 JUMP JUMPDEST PUSH2 0x32D0 DUP9 PUSH1 0x1 DUP6 SUB PUSH2 0x26F3 JUMP JUMPDEST PUSH0 ADD PUSH1 0x4 PUSH2 0x100 EXP DUP2 SLOAD DUP2 PUSH28 0xFFFFFFFFFFFFFFFFFFFFFFFFFFFFFFFFFFFFFFFFFFFFFFFFFFFFFFFF MUL NOT AND SWAP1 DUP4 PUSH28 0xFFFFFFFFFFFFFFFFFFFFFFFFFFFFFFFFFFFFFFFFFFFFFFFFFFFFFFFF AND MUL OR SWAP1 SSTORE POP PUSH2 0x341D JUMP JUMPDEST DUP7 PUSH1 0x40 MLOAD DUP1 PUSH1 0x40 ADD PUSH1 0x40 MSTORE DUP1 PUSH2 0x3349 PUSH2 0x333C PUSH2 0x109D JUMP JUMPDEST PUSH6 0xFFFFFFFFFFFF AND PUSH2 0x21C3 JUMP JUMPDEST PUSH4 0xFFFFFFFF AND DUP2 MSTORE PUSH1 0x20 ADD PUSH2 0x335D DUP7 PUSH2 0x36C6 JUMP JUMPDEST PUSH28 0xFFFFFFFFFFFFFFFFFFFFFFFFFFFFFFFFFFFFFFFFFFFFFFFFFFFFFFFF AND DUP2 MSTORE POP SWAP1 DUP1 PUSH1 0x1 DUP2 SLOAD ADD DUP1 DUP3 SSTORE DUP1 SWAP2 POP POP PUSH1 0x1 SWAP1 SUB SWAP1 PUSH0 MSTORE PUSH1 0x20 PUSH0 KECCAK256 ADD PUSH0 SWAP1 SWAP2 SWAP1 SWAP2 SWAP1 SWAP2 POP PUSH0 DUP3 ADD MLOAD DUP2 PUSH0 ADD PUSH0 PUSH2 0x100 EXP DUP2 SLOAD DUP2 PUSH4 0xFFFFFFFF MUL NOT AND SWAP1 DUP4 PUSH4 0xFFFFFFFF AND MUL OR SWAP1 SSTORE POP PUSH1 0x20 DUP3 ADD MLOAD DUP2 PUSH0 ADD PUSH1 0x4 PUSH2 0x100 EXP DUP2 SLOAD DUP2 PUSH28 0xFFFFFFFFFFFFFFFFFFFFFFFFFFFFFFFFFFFFFFFFFFFFFFFFFFFFFFFF MUL NOT AND SWAP1 DUP4 PUSH28 0xFFFFFFFFFFFFFFFFFFFFFFFFFFFFFFFFFFFFFFFFFFFFFFFFFFFFFFFF AND MUL OR SWAP1 SSTORE POP POP POP JUMPDEST POP POP SWAP4 POP SWAP4 SWAP2 POP POP JUMP JUMPDEST PUSH0 PUSH20 0xFFFFFFFFFFFFFFFFFFFFFFFFFFFFFFFFFFFFFFFF AND DUP3 PUSH20 0xFFFFFFFFFFFFFFFFFFFFFFFFFFFFFFFFFFFFFFFF AND SUB PUSH2 0x3495 JUMPI PUSH1 0x40 MLOAD PUSH32 0x8C379A000000000000000000000000000000000000000000000000000000000 DUP2 MSTORE PUSH1 0x4 ADD PUSH2 0x348C SWAP1 PUSH2 0x5322 JUMP JUMPDEST PUSH1 0x40 MLOAD DUP1 SWAP2 SUB SWAP1 REVERT JUMPDEST PUSH2 0x34A0 DUP3 PUSH0 DUP4 PUSH2 0x2540 JUMP JUMPDEST PUSH0 DUP1 PUSH0 DUP5 PUSH20 0xFFFFFFFFFFFFFFFFFFFFFFFFFFFFFFFFFFFFFFFF AND PUSH20 0xFFFFFFFFFFFFFFFFFFFFFFFFFFFFFFFFFFFFFFFF AND DUP2 MSTORE PUSH1 0x20 ADD SWAP1 DUP2 MSTORE PUSH1 0x20 ADD PUSH0 KECCAK256 SLOAD SWAP1 POP DUP2 DUP2 LT ISZERO PUSH2 0x3523 JUMPI PUSH1 0x40 MLOAD PUSH32 0x8C379A000000000000000000000000000000000000000000000000000000000 DUP2 MSTORE PUSH1 0x4 ADD PUSH2 0x351A SWAP1 PUSH2 0x53B0 JUMP JUMPDEST PUSH1 0x40 MLOAD DUP1 SWAP2 SUB SWAP1 REVERT JUMPDEST DUP2 DUP2 SUB PUSH0 DUP1 DUP6 PUSH20 0xFFFFFFFFFFFFFFFFFFFFFFFFFFFFFFFFFFFFFFFF AND PUSH20 0xFFFFFFFFFFFFFFFFFFFFFFFFFFFFFFFFFFFFFFFF AND DUP2 MSTORE PUSH1 0x20 ADD SWAP1 DUP2 MSTORE PUSH1 0x20 ADD PUSH0 KECCAK256 DUP2 SWAP1 SSTORE POP DUP2 PUSH1 0x2 PUSH0 DUP3 DUP3 SLOAD SUB SWAP3 POP POP DUP2 SWAP1 SSTORE POP PUSH0 PUSH20 0xFFFFFFFFFFFFFFFFFFFFFFFFFFFFFFFFFFFFFFFF AND DUP4 PUSH20 0xFFFFFFFFFFFFFFFFFFFFFFFFFFFFFFFFFFFFFFFF AND PUSH32 0xDDF252AD1BE2C89B69C2B068FC378DAA952BA7F163C4A11628F55A4DF523B3EF DUP5 PUSH1 0x40 MLOAD PUSH2 0x35D2 SWAP2 SWAP1 PUSH2 0x39EE JUMP JUMPDEST PUSH1 0x40 MLOAD DUP1 SWAP2 SUB SWAP1 LOG3 PUSH2 0x35E5 DUP4 PUSH0 DUP5 PUSH2 0x2558 JUMP JUMPDEST POP POP POP JUMP JUMPDEST PUSH0 DUP1 DUP4 PUSH0 MSTORE DUP3 PUSH1 0x20 PUSH0 KECCAK256 ADD SWAP1 POP PUSH2 0x3600 DUP2 PUSH2 0x3730 JUMP JUMPDEST SWAP2 POP POP SWAP3 SWAP2 POP POP JUMP JUMPDEST PUSH0 DUP1 PUSH1 0xFF DUP4 PUSH0 SHR AND SWAP1 POP PUSH1 0x1F DUP2 GT ISZERO PUSH2 0x364E JUMPI PUSH1 0x40 MLOAD PUSH32 0xB3512B0C00000000000000000000000000000000000000000000000000000000 DUP2 MSTORE PUSH1 0x4 ADD PUSH1 0x40 MLOAD DUP1 SWAP2 SUB SWAP1 REVERT JUMPDEST DUP1 SWAP2 POP POP SWAP2 SWAP1 POP JUMP JUMPDEST POP POP POP JUMP JUMPDEST PUSH2 0x36AA PUSH1 0x5 PUSH0 DUP4 PUSH20 0xFFFFFFFFFFFFFFFFFFFFFFFFFFFFFFFFFFFFFFFF AND PUSH20 0xFFFFFFFFFFFFFFFFFFFFFFFFFFFFFFFFFFFFFFFF AND DUP2 MSTORE PUSH1 0x20 ADD SWAP1 DUP2 MSTORE PUSH1 0x20 ADD PUSH0 KECCAK256 PUSH2 0x36A5 DUP4 PUSH2 0xE3D JUMP JUMPDEST PUSH2 0x3739 JUMP JUMPDEST POP JUMP JUMPDEST PUSH2 0x36BF PUSH1 0x6 PUSH2 0x36BA PUSH2 0x8AA JUMP JUMPDEST PUSH2 0x3739 JUMP JUMPDEST JUMP JUMPDEST POP POP POP JUMP JUMPDEST PUSH0 PUSH28 0xFFFFFFFFFFFFFFFFFFFFFFFFFFFFFFFFFFFFFFFFFFFFFFFFFFFFFFFF DUP1 AND DUP3 GT ISZERO PUSH2 0x3728 JUMPI PUSH1 0x40 MLOAD PUSH32 0x8C379A000000000000000000000000000000000000000000000000000000000 DUP2 MSTORE PUSH1 0x4 ADD PUSH2 0x371F SWAP1 PUSH2 0x543E JUMP JUMPDEST PUSH1 0x40 MLOAD DUP1 SWAP2 SUB SWAP1 REVERT JUMPDEST DUP2 SWAP1 POP SWAP2 SWAP1 POP JUMP JUMPDEST PUSH0 DUP2 SWAP1 POP SWAP2 SWAP1 POP JUMP JUMPDEST PUSH0 PUSH2 0x3742 PUSH2 0x281E JUMP JUMPDEST SWAP1 POP DUP1 PUSH2 0x3750 DUP5 PUSH0 ADD PUSH2 0x37AB JUMP JUMPDEST LT ISZERO PUSH2 0x37A6 JUMPI DUP3 PUSH0 ADD DUP2 SWAP1 DUP1 PUSH1 0x1 DUP2 SLOAD ADD DUP1 DUP3 SSTORE DUP1 SWAP2 POP POP PUSH1 0x1 SWAP1 SUB SWAP1 PUSH0 MSTORE PUSH1 0x20 PUSH0 KECCAK256 ADD PUSH0 SWAP1 SWAP2 SWAP1 SWAP2 SWAP1 SWAP2 POP SSTORE DUP3 PUSH1 0x1 ADD DUP3 SWAP1 DUP1 PUSH1 0x1 DUP2 SLOAD ADD DUP1 DUP3 SSTORE DUP1 SWAP2 POP POP PUSH1 0x1 SWAP1 SUB SWAP1 PUSH0 MSTORE PUSH1 0x20 PUSH0 KECCAK256 ADD PUSH0 SWAP1 SWAP2 SWAP1 SWAP2 SWAP1 SWAP2 POP SSTORE JUMPDEST POP POP POP JUMP JUMPDEST PUSH0 DUP1 DUP3 DUP1 SLOAD SWAP1 POP SUB PUSH2 0x37BF JUMPI PUSH0 SWAP1 POP PUSH2 0x37EE JUMP JUMPDEST DUP2 PUSH1 0x1 DUP4 DUP1 SLOAD SWAP1 POP PUSH2 0x37D1 SWAP2 SWAP1 PUSH2 0x4474 JUMP JUMPDEST DUP2 SLOAD DUP2 LT PUSH2 0x37E2 JUMPI PUSH2 0x37E1 PUSH2 0x44D4 JUMP JUMPDEST JUMPDEST SWAP1 PUSH0 MSTORE PUSH1 0x20 PUSH0 KECCAK256 ADD SLOAD SWAP1 POP JUMPDEST SWAP2 SWAP1 POP JUMP JUMPDEST PUSH1 0x40 MLOAD DUP1 PUSH1 0x40 ADD PUSH1 0x40 MSTORE DUP1 PUSH0 PUSH4 0xFFFFFFFF AND DUP2 MSTORE PUSH1 0x20 ADD PUSH0 PUSH28 0xFFFFFFFFFFFFFFFFFFFFFFFFFFFFFFFFFFFFFFFFFFFFFFFFFFFFFFFF AND DUP2 MSTORE POP SWAP1 JUMP JUMPDEST PUSH0 DUP2 MLOAD SWAP1 POP SWAP2 SWAP1 POP JUMP JUMPDEST PUSH0 DUP3 DUP3 MSTORE PUSH1 0x20 DUP3 ADD SWAP1 POP SWAP3 SWAP2 POP POP JUMP JUMPDEST PUSH0 JUMPDEST DUP4 DUP2 LT ISZERO PUSH2 0x3866 JUMPI DUP1 DUP3 ADD MLOAD DUP2 DUP5 ADD MSTORE PUSH1 0x20 DUP2 ADD SWAP1 POP PUSH2 0x384B JUMP JUMPDEST PUSH0 DUP5 DUP5 ADD MSTORE POP POP POP POP JUMP JUMPDEST PUSH0 PUSH1 0x1F NOT PUSH1 0x1F DUP4 ADD AND SWAP1 POP SWAP2 SWAP1 POP JUMP JUMPDEST PUSH0 PUSH2 0x388B DUP3 PUSH2 0x382F JUMP JUMPDEST PUSH2 0x3895 DUP2 DUP6 PUSH2 0x3839 JUMP JUMPDEST SWAP4 POP PUSH2 0x38A5 DUP2 DUP6 PUSH1 0x20 DUP7 ADD PUSH2 0x3849 JUMP JUMPDEST PUSH2 0x38AE DUP2 PUSH2 0x3871 JUMP JUMPDEST DUP5 ADD SWAP2 POP POP SWAP3 SWAP2 POP POP JUMP JUMPDEST PUSH0 PUSH1 0x20 DUP3 ADD SWAP1 POP DUP2 DUP2 SUB PUSH0 DUP4 ADD MSTORE PUSH2 0x38D1 DUP2 DUP5 PUSH2 0x3881 JUMP JUMPDEST SWAP1 POP SWAP3 SWAP2 POP POP JUMP JUMPDEST PUSH0 DUP1 REVERT JUMPDEST PUSH0 DUP1 REVERT JUMPDEST PUSH0 PUSH20 0xFFFFFFFFFFFFFFFFFFFFFFFFFFFFFFFFFFFFFFFF DUP3 AND SWAP1 POP SWAP2 SWAP1 POP JUMP JUMPDEST PUSH0 PUSH2 0x390A DUP3 PUSH2 0x38E1 JUMP JUMPDEST SWAP1 POP SWAP2 SWAP1 POP JUMP JUMPDEST PUSH2 0x391A DUP2 PUSH2 0x3900 JUMP JUMPDEST DUP2 EQ PUSH2 0x3924 JUMPI PUSH0 DUP1 REVERT JUMPDEST POP JUMP JUMPDEST PUSH0 DUP2 CALLDATALOAD SWAP1 POP PUSH2 0x3935 DUP2 PUSH2 0x3911 JUMP JUMPDEST SWAP3 SWAP2 POP POP JUMP JUMPDEST PUSH0 DUP2 SWAP1 POP SWAP2 SWAP1 POP JUMP JUMPDEST PUSH2 0x394D DUP2 PUSH2 0x393B JUMP JUMPDEST DUP2 EQ PUSH2 0x3957 JUMPI PUSH0 DUP1 REVERT JUMPDEST POP JUMP JUMPDEST PUSH0 DUP2 CALLDATALOAD SWAP1 POP PUSH2 0x3968 DUP2 PUSH2 0x3944 JUMP JUMPDEST SWAP3 SWAP2 POP POP JUMP JUMPDEST PUSH0 DUP1 PUSH1 0x40 DUP4 DUP6 SUB SLT ISZERO PUSH2 0x3984 JUMPI PUSH2 0x3983 PUSH2 0x38D9 JUMP JUMPDEST JUMPDEST PUSH0 PUSH2 0x3991 DUP6 DUP3 DUP7 ADD PUSH2 0x3927 JUMP JUMPDEST SWAP3 POP POP PUSH1 0x20 PUSH2 0x39A2 DUP6 DUP3 DUP7 ADD PUSH2 0x395A JUMP JUMPDEST SWAP2 POP POP SWAP3 POP SWAP3 SWAP1 POP JUMP JUMPDEST PUSH0 DUP2 ISZERO ISZERO SWAP1 POP SWAP2 SWAP1 POP JUMP JUMPDEST PUSH2 0x39C0 DUP2 PUSH2 0x39AC JUMP JUMPDEST DUP3 MSTORE POP POP JUMP JUMPDEST PUSH0 PUSH1 0x20 DUP3 ADD SWAP1 POP PUSH2 0x39D9 PUSH0 DUP4 ADD DUP5 PUSH2 0x39B7 JUMP JUMPDEST SWAP3 SWAP2 POP POP JUMP JUMPDEST PUSH2 0x39E8 DUP2 PUSH2 0x393B JUMP JUMPDEST DUP3 MSTORE POP POP JUMP JUMPDEST PUSH0 PUSH1 0x20 DUP3 ADD SWAP1 POP PUSH2 0x3A01 PUSH0 DUP4 ADD DUP5 PUSH2 0x39DF JUMP JUMPDEST SWAP3 SWAP2 POP POP JUMP JUMPDEST PUSH0 DUP1 PUSH0 PUSH1 0x60 DUP5 DUP7 SUB SLT ISZERO PUSH2 0x3A1E JUMPI PUSH2 0x3A1D PUSH2 0x38D9 JUMP JUMPDEST JUMPDEST PUSH0 PUSH2 0x3A2B DUP7 DUP3 DUP8 ADD PUSH2 0x3927 JUMP JUMPDEST SWAP4 POP POP PUSH1 0x20 PUSH2 0x3A3C DUP7 DUP3 DUP8 ADD PUSH2 0x3927 JUMP JUMPDEST SWAP3 POP POP PUSH1 0x40 PUSH2 0x3A4D DUP7 DUP3 DUP8 ADD PUSH2 0x395A JUMP JUMPDEST SWAP2 POP POP SWAP3 POP SWAP3 POP SWAP3 JUMP JUMPDEST PUSH0 PUSH1 0xFF DUP3 AND SWAP1 POP SWAP2 SWAP1 POP JUMP JUMPDEST PUSH2 0x3A6C DUP2 PUSH2 0x3A57 JUMP JUMPDEST DUP3 MSTORE POP POP JUMP JUMPDEST PUSH0 PUSH1 0x20 DUP3 ADD SWAP1 POP PUSH2 0x3A85 PUSH0 DUP4 ADD DUP5 PUSH2 0x3A63 JUMP JUMPDEST SWAP3 SWAP2 POP POP JUMP JUMPDEST PUSH0 DUP2 SWAP1 POP SWAP2 SWAP1 POP JUMP JUMPDEST PUSH2 0x3A9D DUP2 PUSH2 0x3A8B JUMP JUMPDEST DUP3 MSTORE POP POP JUMP JUMPDEST PUSH0 PUSH1 0x20 DUP3 ADD SWAP1 POP PUSH2 0x3AB6 PUSH0 DUP4 ADD DUP5 PUSH2 0x3A94 JUMP JUMPDEST SWAP3 SWAP2 POP POP JUMP JUMPDEST PUSH0 PUSH1 0x20 DUP3 DUP5 SUB SLT ISZERO PUSH2 0x3AD1 JUMPI PUSH2 0x3AD0 PUSH2 0x38D9 JUMP JUMPDEST JUMPDEST PUSH0 PUSH2 0x3ADE DUP5 DUP3 DUP6 ADD PUSH2 0x395A JUMP JUMPDEST SWAP2 POP POP SWAP3 SWAP2 POP POP JUMP JUMPDEST PUSH0 PUSH1 0x20 DUP3 DUP5 SUB SLT ISZERO PUSH2 0x3AFC JUMPI PUSH2 0x3AFB PUSH2 0x38D9 JUMP JUMPDEST JUMPDEST PUSH0 PUSH2 0x3B09 DUP5 DUP3 DUP6 ADD PUSH2 0x3927 JUMP JUMPDEST SWAP2 POP POP SWAP3 SWAP2 POP POP JUMP JUMPDEST PUSH2 0x3B1B DUP2 PUSH2 0x3900 JUMP JUMPDEST DUP3 MSTORE POP POP JUMP JUMPDEST PUSH0 PUSH1 0x20 DUP3 ADD SWAP1 POP PUSH2 0x3B34 PUSH0 DUP4 ADD DUP5 PUSH2 0x3B12 JUMP JUMPDEST SWAP3 SWAP2 POP POP JUMP JUMPDEST PUSH0 PUSH2 0x3B44 DUP3 PUSH2 0x3900 JUMP JUMPDEST SWAP1 POP SWAP2 SWAP1 POP JUMP JUMPDEST PUSH2 0x3B54 DUP2 PUSH2 0x3B3A JUMP JUMPDEST DUP2 EQ PUSH2 0x3B5E JUMPI PUSH0 DUP1 REVERT JUMPDEST POP JUMP JUMPDEST PUSH0 DUP2 CALLDATALOAD SWAP1 POP PUSH2 0x3B6F DUP2 PUSH2 0x3B4B JUMP JUMPDEST SWAP3 SWAP2 POP POP JUMP JUMPDEST PUSH0 DUP1 REVERT JUMPDEST PUSH0 DUP1 REVERT JUMPDEST PUSH0 DUP1 REVERT JUMPDEST PUSH0 DUP1 DUP4 PUSH1 0x1F DUP5 ADD SLT PUSH2 0x3B96 JUMPI PUSH2 0x3B95 PUSH2 0x3B75 JUMP JUMPDEST JUMPDEST DUP3 CALLDATALOAD SWAP1 POP PUSH8 0xFFFFFFFFFFFFFFFF DUP2 GT ISZERO PUSH2 0x3BB3 JUMPI PUSH2 0x3BB2 PUSH2 0x3B79 JUMP JUMPDEST JUMPDEST PUSH1 0x20 DUP4 ADD SWAP2 POP DUP4 PUSH1 0x1 DUP3 MUL DUP4 ADD GT ISZERO PUSH2 0x3BCF JUMPI PUSH2 0x3BCE PUSH2 0x3B7D JUMP JUMPDEST JUMPDEST SWAP3 POP SWAP3 SWAP1 POP JUMP JUMPDEST PUSH0 DUP1 PUSH0 DUP1 PUSH0 PUSH1 0x80 DUP7 DUP9 SUB SLT ISZERO PUSH2 0x3BEF JUMPI PUSH2 0x3BEE PUSH2 0x38D9 JUMP JUMPDEST JUMPDEST PUSH0 PUSH2 0x3BFC DUP9 DUP3 DUP10 ADD PUSH2 0x3B61 JUMP JUMPDEST SWAP6 POP POP PUSH1 0x20 PUSH2 0x3C0D DUP9 DUP3 DUP10 ADD PUSH2 0x3927 JUMP JUMPDEST SWAP5 POP POP PUSH1 0x40 PUSH2 0x3C1E DUP9 DUP3 DUP10 ADD PUSH2 0x395A JUMP JUMPDEST SWAP4 POP POP PUSH1 0x60 DUP7 ADD CALLDATALOAD PUSH8 0xFFFFFFFFFFFFFFFF DUP2 GT ISZERO PUSH2 0x3C3F JUMPI PUSH2 0x3C3E PUSH2 0x38DD JUMP JUMPDEST JUMPDEST PUSH2 0x3C4B DUP9 DUP3 DUP10 ADD PUSH2 0x3B81 JUMP JUMPDEST SWAP3 POP SWAP3 POP POP SWAP3 SWAP6 POP SWAP3 SWAP6 SWAP1 SWAP4 POP JUMP JUMPDEST PUSH0 PUSH4 0xFFFFFFFF DUP3 AND SWAP1 POP SWAP2 SWAP1 POP JUMP JUMPDEST PUSH2 0x3C72 DUP2 PUSH2 0x3C5A JUMP JUMPDEST DUP3 MSTORE POP POP JUMP JUMPDEST PUSH0 PUSH1 0x20 DUP3 ADD SWAP1 POP PUSH2 0x3C8B PUSH0 DUP4 ADD DUP5 PUSH2 0x3C69 JUMP JUMPDEST SWAP3 SWAP2 POP POP JUMP JUMPDEST PUSH0 PUSH32 0xFF00000000000000000000000000000000000000000000000000000000000000 DUP3 AND SWAP1 POP SWAP2 SWAP1 POP JUMP JUMPDEST PUSH2 0x3CC5 DUP2 PUSH2 0x3C91 JUMP JUMPDEST DUP3 MSTORE POP POP JUMP JUMPDEST PUSH0 DUP2 MLOAD SWAP1 POP SWAP2 SWAP1 POP JUMP JUMPDEST PUSH0 DUP3 DUP3 MSTORE PUSH1 0x20 DUP3 ADD SWAP1 POP SWAP3 SWAP2 POP POP JUMP JUMPDEST PUSH0 DUP2 SWAP1 POP PUSH1 0x20 DUP3 ADD SWAP1 POP SWAP2 SWAP1 POP JUMP JUMPDEST PUSH2 0x3CFD DUP2 PUSH2 0x393B JUMP JUMPDEST DUP3 MSTORE POP POP JUMP JUMPDEST PUSH0 PUSH2 0x3D0E DUP4 DUP4 PUSH2 0x3CF4 JUMP JUMPDEST PUSH1 0x20 DUP4 ADD SWAP1 POP SWAP3 SWAP2 POP POP JUMP JUMPDEST PUSH0 PUSH1 0x20 DUP3 ADD SWAP1 POP SWAP2 SWAP1 POP JUMP JUMPDEST PUSH0 PUSH2 0x3D30 DUP3 PUSH2 0x3CCB JUMP JUMPDEST PUSH2 0x3D3A DUP2 DUP6 PUSH2 0x3CD5 JUMP JUMPDEST SWAP4 POP PUSH2 0x3D45 DUP4 PUSH2 0x3CE5 JUMP JUMPDEST DUP1 PUSH0 JUMPDEST DUP4 DUP2 LT ISZERO PUSH2 0x3D75 JUMPI DUP2 MLOAD PUSH2 0x3D5C DUP9 DUP3 PUSH2 0x3D03 JUMP JUMPDEST SWAP8 POP PUSH2 0x3D67 DUP4 PUSH2 0x3D1A JUMP JUMPDEST SWAP3 POP POP PUSH1 0x1 DUP2 ADD SWAP1 POP PUSH2 0x3D48 JUMP JUMPDEST POP DUP6 SWAP4 POP POP POP POP SWAP3 SWAP2 POP POP JUMP JUMPDEST PUSH0 PUSH1 0xE0 DUP3 ADD SWAP1 POP PUSH2 0x3D95 PUSH0 DUP4 ADD DUP11 PUSH2 0x3CBC JUMP JUMPDEST DUP2 DUP2 SUB PUSH1 0x20 DUP4 ADD MSTORE PUSH2 0x3DA7 DUP2 DUP10 PUSH2 0x3881 JUMP JUMPDEST SWAP1 POP DUP2 DUP2 SUB PUSH1 0x40 DUP4 ADD MSTORE PUSH2 0x3DBB DUP2 DUP9 PUSH2 0x3881 JUMP JUMPDEST SWAP1 POP PUSH2 0x3DCA PUSH1 0x60 DUP4 ADD DUP8 PUSH2 0x39DF JUMP JUMPDEST PUSH2 0x3DD7 PUSH1 0x80 DUP4 ADD DUP7 PUSH2 0x3B12 JUMP JUMPDEST PUSH2 0x3DE4 PUSH1 0xA0 DUP4 ADD DUP6 PUSH2 0x3A94 JUMP JUMPDEST DUP2 DUP2 SUB PUSH1 0xC0 DUP4 ADD MSTORE PUSH2 0x3DF6 DUP2 DUP5 PUSH2 0x3D26 JUMP JUMPDEST SWAP1 POP SWAP9 SWAP8 POP POP POP POP POP POP POP POP JUMP JUMPDEST PUSH0 PUSH6 0xFFFFFFFFFFFF DUP3 AND SWAP1 POP SWAP2 SWAP1 POP JUMP JUMPDEST PUSH2 0x3E1E DUP2 PUSH2 0x3E04 JUMP JUMPDEST DUP3 MSTORE POP POP JUMP JUMPDEST PUSH0 PUSH1 0x20 DUP3 ADD SWAP1 POP PUSH2 0x3E37 PUSH0 DUP4 ADD DUP5 PUSH2 0x3E15 JUMP JUMPDEST SWAP3 SWAP2 POP POP JUMP JUMPDEST PUSH2 0x3E46 DUP2 PUSH2 0x3A57 JUMP JUMPDEST DUP2 EQ PUSH2 0x3E50 JUMPI PUSH0 DUP1 REVERT JUMPDEST POP JUMP JUMPDEST PUSH0 DUP2 CALLDATALOAD SWAP1 POP PUSH2 0x3E61 DUP2 PUSH2 0x3E3D JUMP JUMPDEST SWAP3 SWAP2 POP POP JUMP JUMPDEST PUSH2 0x3E70 DUP2 PUSH2 0x3A8B JUMP JUMPDEST DUP2 EQ PUSH2 0x3E7A JUMPI PUSH0 DUP1 REVERT JUMPDEST POP JUMP JUMPDEST PUSH0 DUP2 CALLDATALOAD SWAP1 POP PUSH2 0x3E8B DUP2 PUSH2 0x3E67 JUMP JUMPDEST SWAP3 SWAP2 POP POP JUMP JUMPDEST PUSH0 DUP1 PUSH0 DUP1 PUSH0 DUP1 PUSH1 0xC0 DUP8 DUP10 SUB SLT ISZERO PUSH2 0x3EAB JUMPI PUSH2 0x3EAA PUSH2 0x38D9 JUMP JUMPDEST JUMPDEST PUSH0 PUSH2 0x3EB8 DUP10 DUP3 DUP11 ADD PUSH2 0x3927 JUMP JUMPDEST SWAP7 POP POP PUSH1 0x20 PUSH2 0x3EC9 DUP10 DUP3 DUP11 ADD PUSH2 0x395A JUMP JUMPDEST SWAP6 POP POP PUSH1 0x40 PUSH2 0x3EDA DUP10 DUP3 DUP11 ADD PUSH2 0x395A JUMP JUMPDEST SWAP5 POP POP PUSH1 0x60 PUSH2 0x3EEB DUP10 DUP3 DUP11 ADD PUSH2 0x3E53 JUMP JUMPDEST SWAP4 POP POP PUSH1 0x80 PUSH2 0x3EFC DUP10 DUP3 DUP11 ADD PUSH2 0x3E7D JUMP JUMPDEST SWAP3 POP POP PUSH1 0xA0 PUSH2 0x3F0D DUP10 DUP3 DUP11 ADD PUSH2 0x3E7D JUMP JUMPDEST SWAP2 POP POP SWAP3 SWAP6 POP SWAP3 SWAP6 POP SWAP3 SWAP6 JUMP JUMPDEST PUSH0 DUP1 PUSH0 DUP1 PUSH0 DUP1 PUSH0 PUSH1 0xE0 DUP9 DUP11 SUB SLT ISZERO PUSH2 0x3F35 JUMPI PUSH2 0x3F34 PUSH2 0x38D9 JUMP JUMPDEST JUMPDEST PUSH0 PUSH2 0x3F42 DUP11 DUP3 DUP12 ADD PUSH2 0x3927 JUMP JUMPDEST SWAP8 POP POP PUSH1 0x20 PUSH2 0x3F53 DUP11 DUP3 DUP12 ADD PUSH2 0x3927 JUMP JUMPDEST SWAP7 POP POP PUSH1 0x40 PUSH2 0x3F64 DUP11 DUP3 DUP12 ADD PUSH2 0x395A JUMP JUMPDEST SWAP6 POP POP PUSH1 0x60 PUSH2 0x3F75 DUP11 DUP3 DUP12 ADD PUSH2 0x395A JUMP JUMPDEST SWAP5 POP POP PUSH1 0x80 PUSH2 0x3F86 DUP11 DUP3 DUP12 ADD PUSH2 0x3E53 JUMP JUMPDEST SWAP4 POP POP PUSH1 0xA0 PUSH2 0x3F97 DUP11 DUP3 DUP12 ADD PUSH2 0x3E7D JUMP JUMPDEST SWAP3 POP POP PUSH1 0xC0 PUSH2 0x3FA8 DUP11 DUP3 DUP12 ADD PUSH2 0x3E7D JUMP JUMPDEST SWAP2 POP POP SWAP3 SWAP6 SWAP9 SWAP2 SWAP5 SWAP8 POP SWAP3 SWAP6 POP JUMP JUMPDEST PUSH0 DUP1 PUSH1 0x40 DUP4 DUP6 SUB SLT ISZERO PUSH2 0x3FCD JUMPI PUSH2 0x3FCC PUSH2 0x38D9 JUMP JUMPDEST JUMPDEST PUSH0 PUSH2 0x3FDA DUP6 DUP3 DUP7 ADD PUSH2 0x3927 JUMP JUMPDEST SWAP3 POP POP PUSH1 0x20 PUSH2 0x3FEB DUP6 DUP3 DUP7 ADD PUSH2 0x3927 JUMP JUMPDEST SWAP2 POP POP SWAP3 POP SWAP3 SWAP1 POP JUMP JUMPDEST PUSH2 0x3FFE DUP2 PUSH2 0x3C5A JUMP JUMPDEST DUP2 EQ PUSH2 0x4008 JUMPI PUSH0 DUP1 REVERT JUMPDEST POP JUMP JUMPDEST PUSH0 DUP2 CALLDATALOAD SWAP1 POP PUSH2 0x4019 DUP2 PUSH2 0x3FF5 JUMP JUMPDEST SWAP3 SWAP2 POP POP JUMP JUMPDEST PUSH0 DUP1 PUSH1 0x40 DUP4 DUP6 SUB SLT ISZERO PUSH2 0x4035 JUMPI PUSH2 0x4034 PUSH2 0x38D9 JUMP JUMPDEST JUMPDEST PUSH0 PUSH2 0x4042 DUP6 DUP3 DUP7 ADD PUSH2 0x3927 JUMP JUMPDEST SWAP3 POP POP PUSH1 0x20 PUSH2 0x4053 DUP6 DUP3 DUP7 ADD PUSH2 0x400B JUMP JUMPDEST SWAP2 POP POP SWAP3 POP SWAP3 SWAP1 POP JUMP JUMPDEST PUSH2 0x4066 DUP2 PUSH2 0x3C5A JUMP JUMPDEST DUP3 MSTORE POP POP JUMP JUMPDEST PUSH0 PUSH28 0xFFFFFFFFFFFFFFFFFFFFFFFFFFFFFFFFFFFFFFFFFFFFFFFFFFFFFFFF DUP3 AND SWAP1 POP SWAP2 SWAP1 POP JUMP JUMPDEST PUSH2 0x409C DUP2 PUSH2 0x406C JUMP JUMPDEST DUP3 MSTORE POP POP JUMP JUMPDEST PUSH1 0x40 DUP3 ADD PUSH0 DUP3 ADD MLOAD PUSH2 0x40B6 PUSH0 DUP6 ADD DUP3 PUSH2 0x405D JUMP JUMPDEST POP PUSH1 0x20 DUP3 ADD MLOAD PUSH2 0x40C9 PUSH1 0x20 DUP6 ADD DUP3 PUSH2 0x4093 JUMP JUMPDEST POP POP POP POP JUMP JUMPDEST PUSH0 PUSH1 0x40 DUP3 ADD SWAP1 POP PUSH2 0x40E2 PUSH0 DUP4 ADD DUP5 PUSH2 0x40A2 JUMP JUMPDEST SWAP3 SWAP2 POP POP JUMP JUMPDEST PUSH32 0x4E487B7100000000000000000000000000000000000000000000000000000000 PUSH0 MSTORE PUSH1 0x22 PUSH1 0x4 MSTORE PUSH1 0x24 PUSH0 REVERT JUMPDEST PUSH0 PUSH1 0x2 DUP3 DIV SWAP1 POP PUSH1 0x1 DUP3 AND DUP1 PUSH2 0x412C JUMPI PUSH1 0x7F DUP3 AND SWAP2 POP JUMPDEST PUSH1 0x20 DUP3 LT DUP2 SUB PUSH2 0x413F JUMPI PUSH2 0x413E PUSH2 0x40E8 JUMP JUMPDEST JUMPDEST POP SWAP2 SWAP1 POP JUMP JUMPDEST PUSH32 0x4E487B7100000000000000000000000000000000000000000000000000000000 PUSH0 MSTORE PUSH1 0x11 PUSH1 0x4 MSTORE PUSH1 0x24 PUSH0 REVERT JUMPDEST PUSH0 PUSH2 0x417C DUP3 PUSH2 0x393B JUMP JUMPDEST SWAP2 POP PUSH2 0x4187 DUP4 PUSH2 0x393B JUMP JUMPDEST SWAP3 POP DUP3 DUP3 ADD SWAP1 POP DUP1 DUP3 GT ISZERO PUSH2 0x419F JUMPI PUSH2 0x419E PUSH2 0x4145 JUMP JUMPDEST JUMPDEST SWAP3 SWAP2 POP POP JUMP JUMPDEST PUSH32 0x4552433230566F7465733A20667574757265206C6F6F6B757000000000000000 PUSH0 DUP3 ADD MSTORE POP JUMP JUMPDEST PUSH0 PUSH2 0x41D9 PUSH1 0x19 DUP4 PUSH2 0x3839 JUMP JUMPDEST SWAP2 POP PUSH2 0x41E4 DUP3 PUSH2 0x41A5 JUMP JUMPDEST PUSH1 0x20 DUP3 ADD SWAP1 POP SWAP2 SWAP1 POP JUMP JUMPDEST PUSH0 PUSH1 0x20 DUP3 ADD SWAP1 POP DUP2 DUP2 SUB PUSH0 DUP4 ADD MSTORE PUSH2 0x4206 DUP2 PUSH2 0x41CD JUMP JUMPDEST SWAP1 POP SWAP2 SWAP1 POP JUMP JUMPDEST PUSH32 0x4552433230566F7465733A2062726F6B656E20636C6F636B206D6F6465000000 PUSH0 DUP3 ADD MSTORE POP JUMP JUMPDEST PUSH0 PUSH2 0x4241 PUSH1 0x1D DUP4 PUSH2 0x3839 JUMP JUMPDEST SWAP2 POP PUSH2 0x424C DUP3 PUSH2 0x420D JUMP JUMPDEST PUSH1 0x20 DUP3 ADD SWAP1 POP SWAP2 SWAP1 POP JUMP JUMPDEST PUSH0 PUSH1 0x20 DUP3 ADD SWAP1 POP DUP2 DUP2 SUB PUSH0 DUP4 ADD MSTORE PUSH2 0x426E DUP2 PUSH2 0x4235 JUMP JUMPDEST SWAP1 POP SWAP2 SWAP1 POP JUMP JUMPDEST PUSH32 0x4552433230466C6173684D696E743A20616D6F756E742065786365656473206D PUSH0 DUP3 ADD MSTORE PUSH32 0x6178466C6173684C6F616E000000000000000000000000000000000000000000 PUSH1 0x20 DUP3 ADD MSTORE POP JUMP JUMPDEST PUSH0 PUSH2 0x42CF PUSH1 0x2B DUP4 PUSH2 0x3839 JUMP JUMPDEST SWAP2 POP PUSH2 0x42DA DUP3 PUSH2 0x4275 JUMP JUMPDEST PUSH1 0x40 DUP3 ADD SWAP1 POP SWAP2 SWAP1 POP JUMP JUMPDEST PUSH0 PUSH1 0x20 DUP3 ADD SWAP1 POP DUP2 DUP2 SUB PUSH0 DUP4 ADD MSTORE PUSH2 0x42FC DUP2 PUSH2 0x42C3 JUMP JUMPDEST SWAP1 POP SWAP2 SWAP1 POP JUMP JUMPDEST PUSH0 DUP3 DUP3 MSTORE PUSH1 0x20 DUP3 ADD SWAP1 POP SWAP3 SWAP2 POP POP JUMP JUMPDEST DUP3 DUP2 DUP4 CALLDATACOPY PUSH0 DUP4 DUP4 ADD MSTORE POP POP POP JUMP JUMPDEST PUSH0 PUSH2 0x432C DUP4 DUP6 PUSH2 0x4303 JUMP JUMPDEST SWAP4 POP PUSH2 0x4339 DUP4 DUP6 DUP5 PUSH2 0x4313 JUMP JUMPDEST PUSH2 0x4342 DUP4 PUSH2 0x3871 JUMP JUMPDEST DUP5 ADD SWAP1 POP SWAP4 SWAP3 POP POP POP JUMP JUMPDEST PUSH0 PUSH1 0xA0 DUP3 ADD SWAP1 POP PUSH2 0x4360 PUSH0 DUP4 ADD DUP10 PUSH2 0x3B12 JUMP JUMPDEST PUSH2 0x436D PUSH1 0x20 DUP4 ADD DUP9 PUSH2 0x3B12 JUMP JUMPDEST PUSH2 0x437A PUSH1 0x40 DUP4 ADD DUP8 PUSH2 0x39DF JUMP JUMPDEST PUSH2 0x4387 PUSH1 0x60 DUP4 ADD DUP7 PUSH2 0x39DF JUMP JUMPDEST DUP2 DUP2 SUB PUSH1 0x80 DUP4 ADD MSTORE PUSH2 0x439A DUP2 DUP5 DUP7 PUSH2 0x4321 JUMP JUMPDEST SWAP1 POP SWAP8 SWAP7 POP POP POP POP POP POP POP JUMP JUMPDEST PUSH0 DUP2 MLOAD SWAP1 POP PUSH2 0x43B5 DUP2 PUSH2 0x3E67 JUMP JUMPDEST SWAP3 SWAP2 POP POP JUMP JUMPDEST PUSH0 PUSH1 0x20 DUP3 DUP5 SUB SLT ISZERO PUSH2 0x43D0 JUMPI PUSH2 0x43CF PUSH2 0x38D9 JUMP JUMPDEST JUMPDEST PUSH0 PUSH2 0x43DD DUP5 DUP3 DUP6 ADD PUSH2 0x43A7 JUMP JUMPDEST SWAP2 POP POP SWAP3 SWAP2 POP POP JUMP JUMPDEST PUSH32 0x4552433230466C6173684D696E743A20696E76616C69642072657475726E2076 PUSH0 DUP3 ADD MSTORE PUSH32 0x616C756500000000000000000000000000000000000000000000000000000000 PUSH1 0x20 DUP3 ADD MSTORE POP JUMP JUMPDEST PUSH0 PUSH2 0x4440 PUSH1 0x24 DUP4 PUSH2 0x3839 JUMP JUMPDEST SWAP2 POP PUSH2 0x444B DUP3 PUSH2 0x43E6 JUMP JUMPDEST PUSH1 0x40 DUP3 ADD SWAP1 POP SWAP2 SWAP1 POP JUMP JUMPDEST PUSH0 PUSH1 0x20 DUP3 ADD SWAP1 POP DUP2 DUP2 SUB PUSH0 DUP4 ADD MSTORE PUSH2 0x446D DUP2 PUSH2 0x4434 JUMP JUMPDEST SWAP1 POP SWAP2 SWAP1 POP JUMP JUMPDEST PUSH0 PUSH2 0x447E DUP3 PUSH2 0x393B JUMP JUMPDEST SWAP2 POP PUSH2 0x4489 DUP4 PUSH2 0x393B JUMP JUMPDEST SWAP3 POP DUP3 DUP3 SUB SWAP1 POP DUP2 DUP2 GT ISZERO PUSH2 0x44A1 JUMPI PUSH2 0x44A0 PUSH2 0x4145 JUMP JUMPDEST JUMPDEST SWAP3 SWAP2 POP POP JUMP JUMPDEST PUSH32 0x4E487B7100000000000000000000000000000000000000000000000000000000 PUSH0 MSTORE PUSH1 0x41 PUSH1 0x4 MSTORE PUSH1 0x24 PUSH0 REVERT JUMPDEST PUSH32 0x4E487B7100000000000000000000000000000000000000000000000000000000 PUSH0 MSTORE PUSH1 0x32 PUSH1 0x4 MSTORE PUSH1 0x24 PUSH0 REVERT JUMPDEST PUSH32 0x45524332303A2064656372656173656420616C6C6F77616E63652062656C6F77 PUSH0 DUP3 ADD MSTORE PUSH32 0x207A65726F000000000000000000000000000000000000000000000000000000 PUSH1 0x20 DUP3 ADD MSTORE POP JUMP JUMPDEST PUSH0 PUSH2 0x455B PUSH1 0x25 DUP4 PUSH2 0x3839 JUMP JUMPDEST SWAP2 POP PUSH2 0x4566 DUP3 PUSH2 0x4501 JUMP JUMPDEST PUSH1 0x40 DUP3 ADD SWAP1 POP SWAP2 SWAP1 POP JUMP JUMPDEST PUSH0 PUSH1 0x20 DUP3 ADD SWAP1 POP DUP2 DUP2 SUB PUSH0 DUP4 ADD MSTORE PUSH2 0x4588 DUP2 PUSH2 0x454F JUMP JUMPDEST SWAP1 POP SWAP2 SWAP1 POP JUMP JUMPDEST PUSH32 0x4552433230566F7465733A207369676E61747572652065787069726564000000 PUSH0 DUP3 ADD MSTORE POP JUMP JUMPDEST PUSH0 PUSH2 0x45C3 PUSH1 0x1D DUP4 PUSH2 0x3839 JUMP JUMPDEST SWAP2 POP PUSH2 0x45CE DUP3 PUSH2 0x458F JUMP JUMPDEST PUSH1 0x20 DUP3 ADD SWAP1 POP SWAP2 SWAP1 POP JUMP JUMPDEST PUSH0 PUSH1 0x20 DUP3 ADD SWAP1 POP DUP2 DUP2 SUB PUSH0 DUP4 ADD MSTORE PUSH2 0x45F0 DUP2 PUSH2 0x45B7 JUMP JUMPDEST SWAP1 POP SWAP2 SWAP1 POP JUMP JUMPDEST PUSH0 PUSH1 0x80 DUP3 ADD SWAP1 POP PUSH2 0x460A PUSH0 DUP4 ADD DUP8 PUSH2 0x3A94 JUMP JUMPDEST PUSH2 0x4617 PUSH1 0x20 DUP4 ADD DUP7 PUSH2 0x3B12 JUMP JUMPDEST PUSH2 0x4624 PUSH1 0x40 DUP4 ADD DUP6 PUSH2 0x39DF JUMP JUMPDEST PUSH2 0x4631 PUSH1 0x60 DUP4 ADD DUP5 PUSH2 0x39DF JUMP JUMPDEST SWAP6 SWAP5 POP POP POP POP POP JUMP JUMPDEST PUSH32 0x4552433230566F7465733A20696E76616C6964206E6F6E636500000000000000 PUSH0 DUP3 ADD MSTORE POP JUMP JUMPDEST PUSH0 PUSH2 0x466E PUSH1 0x19 DUP4 PUSH2 0x3839 JUMP JUMPDEST SWAP2 POP PUSH2 0x4679 DUP3 PUSH2 0x463A JUMP JUMPDEST PUSH1 0x20 DUP3 ADD SWAP1 POP SWAP2 SWAP1 POP JUMP JUMPDEST PUSH0 PUSH1 0x20 DUP3 ADD SWAP1 POP DUP2 DUP2 SUB PUSH0 DUP4 ADD MSTORE PUSH2 0x469B DUP2 PUSH2 0x4662 JUMP JUMPDEST SWAP1 POP SWAP2 SWAP1 POP JUMP JUMPDEST PUSH32 0x45524332305065726D69743A206578706972656420646561646C696E65000000 PUSH0 DUP3 ADD MSTORE POP JUMP JUMPDEST PUSH0 PUSH2 0x46D6 PUSH1 0x1D DUP4 PUSH2 0x3839 JUMP JUMPDEST SWAP2 POP PUSH2 0x46E1 DUP3 PUSH2 0x46A2 JUMP JUMPDEST PUSH1 0x20 DUP3 ADD SWAP1 POP SWAP2 SWAP1 POP JUMP JUMPDEST PUSH0 PUSH1 0x20 DUP3 ADD SWAP1 POP DUP2 DUP2 SUB PUSH0 DUP4 ADD MSTORE PUSH2 0x4703 DUP2 PUSH2 0x46CA JUMP JUMPDEST SWAP1 POP SWAP2 SWAP1 POP JUMP JUMPDEST PUSH0 PUSH1 0xC0 DUP3 ADD SWAP1 POP PUSH2 0x471D PUSH0 DUP4 ADD DUP10 PUSH2 0x3A94 JUMP JUMPDEST PUSH2 0x472A PUSH1 0x20 DUP4 ADD DUP9 PUSH2 0x3B12 JUMP JUMPDEST PUSH2 0x4737 PUSH1 0x40 DUP4 ADD DUP8 PUSH2 0x3B12 JUMP JUMPDEST PUSH2 0x4744 PUSH1 0x60 DUP4 ADD DUP7 PUSH2 0x39DF JUMP JUMPDEST PUSH2 0x4751 PUSH1 0x80 DUP4 ADD DUP6 PUSH2 0x39DF JUMP JUMPDEST PUSH2 0x475E PUSH1 0xA0 DUP4 ADD DUP5 PUSH2 0x39DF JUMP JUMPDEST SWAP8 SWAP7 POP POP POP POP POP POP POP JUMP JUMPDEST PUSH32 0x45524332305065726D69743A20696E76616C6964207369676E61747572650000 PUSH0 DUP3 ADD MSTORE POP JUMP JUMPDEST PUSH0 PUSH2 0x479D PUSH1 0x1E DUP4 PUSH2 0x3839 JUMP JUMPDEST SWAP2 POP PUSH2 0x47A8 DUP3 PUSH2 0x4769 JUMP JUMPDEST PUSH1 0x20 DUP3 ADD SWAP1 POP SWAP2 SWAP1 POP JUMP JUMPDEST PUSH0 PUSH1 0x20 DUP3 ADD SWAP1 POP DUP2 DUP2 SUB PUSH0 DUP4 ADD MSTORE PUSH2 0x47CA DUP2 PUSH2 0x4791 JUMP JUMPDEST SWAP1 POP SWAP2 SWAP1 POP JUMP JUMPDEST PUSH32 0x4552433230466C6173684D696E743A2077726F6E6720746F6B656E0000000000 PUSH0 DUP3 ADD MSTORE POP JUMP JUMPDEST PUSH0 PUSH2 0x4805 PUSH1 0x1B DUP4 PUSH2 0x3839 JUMP JUMPDEST SWAP2 POP PUSH2 0x4810 DUP3 PUSH2 0x47D1 JUMP JUMPDEST PUSH1 0x20 DUP3 ADD SWAP1 POP SWAP2 SWAP1 POP JUMP JUMPDEST PUSH0 PUSH1 0x20 DUP3 ADD SWAP1 POP DUP2 DUP2 SUB PUSH0 DUP4 ADD MSTORE PUSH2 0x4832 DUP2 PUSH2 0x47F9 JUMP JUMPDEST SWAP1 POP SWAP2 SWAP1 POP JUMP JUMPDEST PUSH32 0x4F776E61626C653A206E6577206F776E657220697320746865207A65726F2061 PUSH0 DUP3 ADD MSTORE PUSH32 0x6464726573730000000000000000000000000000000000000000000000000000 PUSH1 0x20 DUP3 ADD MSTORE POP JUMP JUMPDEST PUSH0 PUSH2 0x4893 PUSH1 0x26 DUP4 PUSH2 0x3839 JUMP JUMPDEST SWAP2 POP PUSH2 0x489E DUP3 PUSH2 0x4839 JUMP JUMPDEST PUSH1 0x40 DUP3 ADD SWAP1 POP SWAP2 SWAP1 POP JUMP JUMPDEST PUSH0 PUSH1 0x20 DUP3 ADD SWAP1 POP DUP2 DUP2 SUB PUSH0 DUP4 ADD MSTORE PUSH2 0x48C0 DUP2 PUSH2 0x4887 JUMP JUMPDEST SWAP1 POP SWAP2 SWAP1 POP JUMP JUMPDEST PUSH32 0x45524332303A20617070726F76652066726F6D20746865207A65726F20616464 PUSH0 DUP3 ADD MSTORE PUSH32 0x7265737300000000000000000000000000000000000000000000000000000000 PUSH1 0x20 DUP3 ADD MSTORE POP JUMP JUMPDEST PUSH0 PUSH2 0x4921 PUSH1 0x24 DUP4 PUSH2 0x3839 JUMP JUMPDEST SWAP2 POP PUSH2 0x492C DUP3 PUSH2 0x48C7 JUMP JUMPDEST PUSH1 0x40 DUP3 ADD SWAP1 POP SWAP2 SWAP1 POP JUMP JUMPDEST PUSH0 PUSH1 0x20 DUP3 ADD SWAP1 POP DUP2 DUP2 SUB PUSH0 DUP4 ADD MSTORE PUSH2 0x494E DUP2 PUSH2 0x4915 JUMP JUMPDEST SWAP1 POP SWAP2 SWAP1 POP JUMP JUMPDEST PUSH32 0x45524332303A20617070726F766520746F20746865207A65726F206164647265 PUSH0 DUP3 ADD MSTORE PUSH32 0x7373000000000000000000000000000000000000000000000000000000000000 PUSH1 0x20 DUP3 ADD MSTORE POP JUMP JUMPDEST PUSH0 PUSH2 0x49AF PUSH1 0x22 DUP4 PUSH2 0x3839 JUMP JUMPDEST SWAP2 POP PUSH2 0x49BA DUP3 PUSH2 0x4955 JUMP JUMPDEST PUSH1 0x40 DUP3 ADD SWAP1 POP SWAP2 SWAP1 POP JUMP JUMPDEST PUSH0 PUSH1 0x20 DUP3 ADD SWAP1 POP DUP2 DUP2 SUB PUSH0 DUP4 ADD MSTORE PUSH2 0x49DC DUP2 PUSH2 0x49A3 JUMP JUMPDEST SWAP1 POP SWAP2 SWAP1 POP JUMP JUMPDEST PUSH32 0x45524332303A20696E73756666696369656E7420616C6C6F77616E6365000000 PUSH0 DUP3 ADD MSTORE POP JUMP JUMPDEST PUSH0 PUSH2 0x4A17 PUSH1 0x1D DUP4 PUSH2 0x3839 JUMP JUMPDEST SWAP2 POP PUSH2 0x4A22 DUP3 PUSH2 0x49E3 JUMP JUMPDEST PUSH1 0x20 DUP3 ADD SWAP1 POP SWAP2 SWAP1 POP JUMP JUMPDEST PUSH0 PUSH1 0x20 DUP3 ADD SWAP1 POP DUP2 DUP2 SUB PUSH0 DUP4 ADD MSTORE PUSH2 0x4A44 DUP2 PUSH2 0x4A0B JUMP JUMPDEST SWAP1 POP SWAP2 SWAP1 POP JUMP JUMPDEST PUSH32 0x45524332303A207472616E736665722066726F6D20746865207A65726F206164 PUSH0 DUP3 ADD MSTORE PUSH32 0x6472657373000000000000000000000000000000000000000000000000000000 PUSH1 0x20 DUP3 ADD MSTORE POP JUMP JUMPDEST PUSH0 PUSH2 0x4AA5 PUSH1 0x25 DUP4 PUSH2 0x3839 JUMP JUMPDEST SWAP2 POP PUSH2 0x4AB0 DUP3 PUSH2 0x4A4B JUMP JUMPDEST PUSH1 0x40 DUP3 ADD SWAP1 POP SWAP2 SWAP1 POP JUMP JUMPDEST PUSH0 PUSH1 0x20 DUP3 ADD SWAP1 POP DUP2 DUP2 SUB PUSH0 DUP4 ADD MSTORE PUSH2 0x4AD2 DUP2 PUSH2 0x4A99 JUMP JUMPDEST SWAP1 POP SWAP2 SWAP1 POP JUMP JUMPDEST PUSH32 0x45524332303A207472616E7366657220746F20746865207A65726F2061646472 PUSH0 DUP3 ADD MSTORE PUSH32 0x6573730000000000000000000000000000000000000000000000000000000000 PUSH1 0x20 DUP3 ADD MSTORE POP JUMP JUMPDEST PUSH0 PUSH2 0x4B33 PUSH1 0x23 DUP4 PUSH2 0x3839 JUMP JUMPDEST SWAP2 POP PUSH2 0x4B3E DUP3 PUSH2 0x4AD9 JUMP JUMPDEST PUSH1 0x40 DUP3 ADD SWAP1 POP SWAP2 SWAP1 POP JUMP JUMPDEST PUSH0 PUSH1 0x20 DUP3 ADD SWAP1 POP DUP2 DUP2 SUB PUSH0 DUP4 ADD MSTORE PUSH2 0x4B60 DUP2 PUSH2 0x4B27 JUMP JUMPDEST SWAP1 POP SWAP2 SWAP1 POP JUMP JUMPDEST PUSH32 0x45524332303A207472616E7366657220616D6F756E7420657863656564732062 PUSH0 DUP3 ADD MSTORE PUSH32 0x616C616E63650000000000000000000000000000000000000000000000000000 PUSH1 0x20 DUP3 ADD MSTORE POP JUMP JUMPDEST PUSH0 PUSH2 0x4BC1 PUSH1 0x26 DUP4 PUSH2 0x3839 JUMP JUMPDEST SWAP2 POP PUSH2 0x4BCC DUP3 PUSH2 0x4B67 JUMP JUMPDEST PUSH1 0x40 DUP3 ADD SWAP1 POP SWAP2 SWAP1 POP JUMP JUMPDEST PUSH0 PUSH1 0x20 DUP3 ADD SWAP1 POP DUP2 DUP2 SUB PUSH0 DUP4 ADD MSTORE PUSH2 0x4BEE DUP2 PUSH2 0x4BB5 JUMP JUMPDEST SWAP1 POP SWAP2 SWAP1 POP JUMP JUMPDEST PUSH32 0x4F776E61626C653A2063616C6C6572206973206E6F7420746865206F776E6572 PUSH0 DUP3 ADD MSTORE POP JUMP JUMPDEST PUSH0 PUSH2 0x4C29 PUSH1 0x20 DUP4 PUSH2 0x3839 JUMP JUMPDEST SWAP2 POP PUSH2 0x4C34 DUP3 PUSH2 0x4BF5 JUMP JUMPDEST PUSH1 0x20 DUP3 ADD SWAP1 POP SWAP2 SWAP1 POP JUMP JUMPDEST PUSH0 PUSH1 0x20 DUP3 ADD SWAP1 POP DUP2 DUP2 SUB PUSH0 DUP4 ADD MSTORE PUSH2 0x4C56 DUP2 PUSH2 0x4C1D JUMP JUMPDEST SWAP1 POP SWAP2 SWAP1 POP JUMP JUMPDEST PUSH32 0x4552433230536E617073686F743A206964206973203000000000000000000000 PUSH0 DUP3 ADD MSTORE POP JUMP JUMPDEST PUSH0 PUSH2 0x4C91 PUSH1 0x16 DUP4 PUSH2 0x3839 JUMP JUMPDEST SWAP2 POP PUSH2 0x4C9C DUP3 PUSH2 0x4C5D JUMP JUMPDEST PUSH1 0x20 DUP3 ADD SWAP1 POP SWAP2 SWAP1 POP JUMP JUMPDEST PUSH0 PUSH1 0x20 DUP3 ADD SWAP1 POP DUP2 DUP2 SUB PUSH0 DUP4 ADD MSTORE PUSH2 0x4CBE DUP2 PUSH2 0x4C85 JUMP JUMPDEST SWAP1 POP SWAP2 SWAP1 POP JUMP JUMPDEST PUSH32 0x4552433230536E617073686F743A206E6F6E6578697374656E74206964000000 PUSH0 DUP3 ADD MSTORE POP JUMP JUMPDEST PUSH0 PUSH2 0x4CF9 PUSH1 0x1D DUP4 PUSH2 0x3839 JUMP JUMPDEST SWAP2 POP PUSH2 0x4D04 DUP3 PUSH2 0x4CC5 JUMP JUMPDEST PUSH1 0x20 DUP3 ADD SWAP1 POP SWAP2 SWAP1 POP JUMP JUMPDEST PUSH0 PUSH1 0x20 DUP3 ADD SWAP1 POP DUP2 DUP2 SUB PUSH0 DUP4 ADD MSTORE PUSH2 0x4D26 DUP2 PUSH2 0x4CED JUMP JUMPDEST SWAP1 POP SWAP2 SWAP1 POP JUMP JUMPDEST PUSH32 0x53616665436173743A2076616C756520646F65736E27742066697420696E2033 PUSH0 DUP3 ADD MSTORE PUSH32 0x3220626974730000000000000000000000000000000000000000000000000000 PUSH1 0x20 DUP3 ADD MSTORE POP JUMP JUMPDEST PUSH0 PUSH2 0x4D87 PUSH1 0x26 DUP4 PUSH2 0x3839 JUMP JUMPDEST SWAP2 POP PUSH2 0x4D92 DUP3 PUSH2 0x4D2D JUMP JUMPDEST PUSH1 0x40 DUP3 ADD SWAP1 POP SWAP2 SWAP1 POP JUMP JUMPDEST PUSH0 PUSH1 0x20 DUP3 ADD SWAP1 POP DUP2 DUP2 SUB PUSH0 DUP4 ADD MSTORE PUSH2 0x4DB4 DUP2 PUSH2 0x4D7B JUMP JUMPDEST SWAP1 POP SWAP2 SWAP1 POP JUMP JUMPDEST PUSH32 0x53616665436173743A2076616C756520646F65736E27742066697420696E2034 PUSH0 DUP3 ADD MSTORE PUSH32 0x3820626974730000000000000000000000000000000000000000000000000000 PUSH1 0x20 DUP3 ADD MSTORE POP JUMP JUMPDEST PUSH0 PUSH2 0x4E15 PUSH1 0x26 DUP4 PUSH2 0x3839 JUMP JUMPDEST SWAP2 POP PUSH2 0x4E20 DUP3 PUSH2 0x4DBB JUMP JUMPDEST PUSH1 0x40 DUP3 ADD SWAP1 POP SWAP2 SWAP1 POP JUMP JUMPDEST PUSH0 PUSH1 0x20 DUP3 ADD SWAP1 POP DUP2 DUP2 SUB PUSH0 DUP4 ADD MSTORE PUSH2 0x4E42 DUP2 PUSH2 0x4E09 JUMP JUMPDEST SWAP1 POP SWAP2 SWAP1 POP JUMP JUMPDEST PUSH0 PUSH1 0xA0 DUP3 ADD SWAP1 POP PUSH2 0x4E5C PUSH0 DUP4 ADD DUP9 PUSH2 0x3A94 JUMP JUMPDEST PUSH2 0x4E69 PUSH1 0x20 DUP4 ADD DUP8 PUSH2 0x3A94 JUMP JUMPDEST PUSH2 0x4E76 PUSH1 0x40 DUP4 ADD DUP7 PUSH2 0x3A94 JUMP JUMPDEST PUSH2 0x4E83 PUSH1 0x60 DUP4 ADD DUP6 PUSH2 0x39DF JUMP JUMPDEST PUSH2 0x4E90 PUSH1 0x80 DUP4 ADD DUP5 PUSH2 0x3B12 JUMP JUMPDEST SWAP7 SWAP6 POP POP POP POP POP POP JUMP JUMPDEST PUSH32 0x4E487B7100000000000000000000000000000000000000000000000000000000 PUSH0 MSTORE PUSH1 0x12 PUSH1 0x4 MSTORE PUSH1 0x24 PUSH0 REVERT JUMPDEST PUSH0 PUSH2 0x4ED1 DUP3 PUSH2 0x393B JUMP JUMPDEST SWAP2 POP PUSH2 0x4EDC DUP4 PUSH2 0x393B JUMP JUMPDEST SWAP3 POP DUP3 PUSH2 0x4EEC JUMPI PUSH2 0x4EEB PUSH2 0x4E9A JUMP JUMPDEST JUMPDEST DUP3 DUP3 DIV SWAP1 POP SWAP3 SWAP2 POP POP JUMP JUMPDEST PUSH32 0x5061757361626C653A206E6F7420706175736564000000000000000000000000 PUSH0 DUP3 ADD MSTORE POP JUMP JUMPDEST PUSH0 PUSH2 0x4F2B PUSH1 0x14 DUP4 PUSH2 0x3839 JUMP JUMPDEST SWAP2 POP PUSH2 0x4F36 DUP3 PUSH2 0x4EF7 JUMP JUMPDEST PUSH1 0x20 DUP3 ADD SWAP1 POP SWAP2 SWAP1 POP JUMP JUMPDEST PUSH0 PUSH1 0x20 DUP3 ADD SWAP1 POP DUP2 DUP2 SUB PUSH0 DUP4 ADD MSTORE PUSH2 0x4F58 DUP2 PUSH2 0x4F1F JUMP JUMPDEST SWAP1 POP SWAP2 SWAP1 POP JUMP JUMPDEST PUSH32 0x4552433230566F7465733A20746F74616C20737570706C79207269736B73206F PUSH0 DUP3 ADD MSTORE PUSH32 0x766572666C6F77696E6720766F74657300000000000000000000000000000000 PUSH1 0x20 DUP3 ADD MSTORE POP JUMP JUMPDEST PUSH0 PUSH2 0x4FB9 PUSH1 0x30 DUP4 PUSH2 0x3839 JUMP JUMPDEST SWAP2 POP PUSH2 0x4FC4 DUP3 PUSH2 0x4F5F JUMP JUMPDEST PUSH1 0x40 DUP3 ADD SWAP1 POP SWAP2 SWAP1 POP JUMP JUMPDEST PUSH0 PUSH1 0x20 DUP3 ADD SWAP1 POP DUP2 DUP2 SUB PUSH0 DUP4 ADD MSTORE PUSH2 0x4FE6 DUP2 PUSH2 0x4FAD JUMP JUMPDEST SWAP1 POP SWAP2 SWAP1 POP JUMP JUMPDEST PUSH0 PUSH1 0x40 DUP3 ADD SWAP1 POP PUSH2 0x5000 PUSH0 DUP4 ADD DUP6 PUSH2 0x39DF JUMP JUMPDEST PUSH2 0x500D PUSH1 0x20 DUP4 ADD DUP5 PUSH2 0x39DF JUMP JUMPDEST SWAP4 SWAP3 POP POP POP JUMP JUMPDEST PUSH32 0x5061757361626C653A2070617573656400000000000000000000000000000000 PUSH0 DUP3 ADD MSTORE POP JUMP JUMPDEST PUSH0 PUSH2 0x5048 PUSH1 0x10 DUP4 PUSH2 0x3839 JUMP JUMPDEST SWAP2 POP PUSH2 0x5053 DUP3 PUSH2 0x5014 JUMP JUMPDEST PUSH1 0x20 DUP3 ADD SWAP1 POP SWAP2 SWAP1 POP JUMP JUMPDEST PUSH0 PUSH1 0x20 DUP3 ADD SWAP1 POP DUP2 DUP2 SUB PUSH0 DUP4 ADD MSTORE PUSH2 0x5075 DUP2 PUSH2 0x503C JUMP JUMPDEST SWAP1 POP SWAP2 SWAP1 POP JUMP JUMPDEST PUSH0 PUSH1 0x80 DUP3 ADD SWAP1 POP PUSH2 0x508F PUSH0 DUP4 ADD DUP8 PUSH2 0x3A94 JUMP JUMPDEST PUSH2 0x509C PUSH1 0x20 DUP4 ADD DUP7 PUSH2 0x3A63 JUMP JUMPDEST PUSH2 0x50A9 PUSH1 0x40 DUP4 ADD DUP6 PUSH2 0x3A94 JUMP JUMPDEST PUSH2 0x50B6 PUSH1 0x60 DUP4 ADD DUP5 PUSH2 0x3A94 JUMP JUMPDEST SWAP6 SWAP5 POP POP POP POP POP JUMP JUMPDEST PUSH32 0x4E487B7100000000000000000000000000000000000000000000000000000000 PUSH0 MSTORE PUSH1 0x21 PUSH1 0x4 MSTORE PUSH1 0x24 PUSH0 REVERT JUMPDEST PUSH32 0x45434453413A20696E76616C6964207369676E61747572650000000000000000 PUSH0 DUP3 ADD MSTORE POP JUMP JUMPDEST PUSH0 PUSH2 0x5120 PUSH1 0x18 DUP4 PUSH2 0x3839 JUMP JUMPDEST SWAP2 POP PUSH2 0x512B DUP3 PUSH2 0x50EC JUMP JUMPDEST PUSH1 0x20 DUP3 ADD SWAP1 POP SWAP2 SWAP1 POP JUMP JUMPDEST PUSH0 PUSH1 0x20 DUP3 ADD SWAP1 POP DUP2 DUP2 SUB PUSH0 DUP4 ADD MSTORE PUSH2 0x514D DUP2 PUSH2 0x5114 JUMP JUMPDEST SWAP1 POP SWAP2 SWAP1 POP JUMP JUMPDEST PUSH32 0x45434453413A20696E76616C6964207369676E6174757265206C656E67746800 PUSH0 DUP3 ADD MSTORE POP JUMP JUMPDEST PUSH0 PUSH2 0x5188 PUSH1 0x1F DUP4 PUSH2 0x3839 JUMP JUMPDEST SWAP2 POP PUSH2 0x5193 DUP3 PUSH2 0x5154 JUMP JUMPDEST PUSH1 0x20 DUP3 ADD SWAP1 POP SWAP2 SWAP1 POP JUMP JUMPDEST PUSH0 PUSH1 0x20 DUP3 ADD SWAP1 POP DUP2 DUP2 SUB PUSH0 DUP4 ADD MSTORE PUSH2 0x51B5 DUP2 PUSH2 0x517C JUMP JUMPDEST SWAP1 POP SWAP2 SWAP1 POP JUMP JUMPDEST PUSH32 0x45434453413A20696E76616C6964207369676E6174757265202773272076616C PUSH0 DUP3 ADD MSTORE PUSH32 0x7565000000000000000000000000000000000000000000000000000000000000 PUSH1 0x20 DUP3 ADD MSTORE POP JUMP JUMPDEST PUSH0 PUSH2 0x5216 PUSH1 0x22 DUP4 PUSH2 0x3839 JUMP JUMPDEST SWAP2 POP PUSH2 0x5221 DUP3 PUSH2 0x51BC JUMP JUMPDEST PUSH1 0x40 DUP3 ADD SWAP1 POP SWAP2 SWAP1 POP JUMP JUMPDEST PUSH0 PUSH1 0x20 DUP3 ADD SWAP1 POP DUP2 DUP2 SUB PUSH0 DUP4 ADD MSTORE PUSH2 0x5243 DUP2 PUSH2 0x520A JUMP JUMPDEST SWAP1 POP SWAP2 SWAP1 POP JUMP JUMPDEST PUSH32 0x45524332303A206D696E7420746F20746865207A65726F206164647265737300 PUSH0 DUP3 ADD MSTORE POP JUMP JUMPDEST PUSH0 PUSH2 0x527E PUSH1 0x1F DUP4 PUSH2 0x3839 JUMP JUMPDEST SWAP2 POP PUSH2 0x5289 DUP3 PUSH2 0x524A JUMP JUMPDEST PUSH1 0x20 DUP3 ADD SWAP1 POP SWAP2 SWAP1 POP JUMP JUMPDEST PUSH0 PUSH1 0x20 DUP3 ADD SWAP1 POP DUP2 DUP2 SUB PUSH0 DUP4 ADD MSTORE PUSH2 0x52AB DUP2 PUSH2 0x5272 JUMP JUMPDEST SWAP1 POP SWAP2 SWAP1 POP JUMP JUMPDEST PUSH32 0x45524332303A206275726E2066726F6D20746865207A65726F20616464726573 PUSH0 DUP3 ADD MSTORE PUSH32 0x7300000000000000000000000000000000000000000000000000000000000000 PUSH1 0x20 DUP3 ADD MSTORE POP JUMP JUMPDEST PUSH0 PUSH2 0x530C PUSH1 0x21 DUP4 PUSH2 0x3839 JUMP JUMPDEST SWAP2 POP PUSH2 0x5317 DUP3 PUSH2 0x52B2 JUMP JUMPDEST PUSH1 0x40 DUP3 ADD SWAP1 POP SWAP2 SWAP1 POP JUMP JUMPDEST PUSH0 PUSH1 0x20 DUP3 ADD SWAP1 POP DUP2 DUP2 SUB PUSH0 DUP4 ADD MSTORE PUSH2 0x5339 DUP2 PUSH2 0x5300 JUMP JUMPDEST SWAP1 POP SWAP2 SWAP1 POP JUMP JUMPDEST PUSH32 0x45524332303A206275726E20616D6F756E7420657863656564732062616C616E PUSH0 DUP3 ADD MSTORE PUSH32 0x6365000000000000000000000000000000000000000000000000000000000000 PUSH1 0x20 DUP3 ADD MSTORE POP JUMP JUMPDEST PUSH0 PUSH2 0x539A PUSH1 0x22 DUP4 PUSH2 0x3839 JUMP JUMPDEST SWAP2 POP PUSH2 0x53A5 DUP3 PUSH2 0x5340 JUMP JUMPDEST PUSH1 0x40 DUP3 ADD SWAP1 POP SWAP2 SWAP1 POP JUMP JUMPDEST PUSH0 PUSH1 0x20 DUP3 ADD SWAP1 POP DUP2 DUP2 SUB PUSH0 DUP4 ADD MSTORE PUSH2 0x53C7 DUP2 PUSH2 0x538E JUMP JUMPDEST SWAP1 POP SWAP2 SWAP1 POP JUMP JUMPDEST PUSH32 0x53616665436173743A2076616C756520646F65736E27742066697420696E2032 PUSH0 DUP3 ADD MSTORE PUSH32 0x3234206269747300000000000000000000000000000000000000000000000000 PUSH1 0x20 DUP3 ADD MSTORE POP JUMP JUMPDEST PUSH0 PUSH2 0x5428 PUSH1 0x27 DUP4 PUSH2 0x3839 JUMP JUMPDEST SWAP2 POP PUSH2 0x5433 DUP3 PUSH2 0x53CE JUMP JUMPDEST PUSH1 0x40 DUP3 ADD SWAP1 POP SWAP2 SWAP1 POP JUMP JUMPDEST PUSH0 PUSH1 0x20 DUP3 ADD SWAP1 POP DUP2 DUP2 SUB PUSH0 DUP4 ADD MSTORE PUSH2 0x5455 DUP2 PUSH2 0x541C JUMP JUMPDEST SWAP1 POP SWAP2 SWAP1 POP JUMP INVALID LOG2 PUSH5 0x6970667358 0x22 SLT KECCAK256 EQ 0xDF 0xE8 0x23 0x5D POP PUSH5 0x39976295C3 JUMPDEST DUP8 0xD9 STOP SHL 0x27 0xD2 LOG2 COINBASE DUP15 0xFC 0xE4 0xBA 0xD7 0xDA 0xC5 BALANCE PUSH8 0x38E64736F6C6343 STOP ADDMOD EQ STOP CALLER "
		},
		"gasEstimates": {
			"creation": {
				"codeDepositCost": "4330000",
				"executionCost": "infinite",
				"totalCost": "infinite"
			},
			"external": {
				"CLOCK_MODE()": "infinite",
				"DOMAIN_SEPARATOR()": "infinite",
				"allowance(address,address)": "infinite",
				"approve(address,uint256)": "infinite",
				"balanceOf(address)": "2962",
				"balanceOfAt(address,uint256)": "infinite",
				"burn(uint256)": "infinite",
				"burnFrom(address,uint256)": "infinite",
				"checkpoints(address,uint32)": "infinite",
				"clock()": "587",
				"decimals()": "473",
				"decreaseAllowance(address,uint256)": "infinite",
				"delegate(address)": "infinite",
				"delegateBySig(address,uint256,uint256,uint8,bytes32,bytes32)": "infinite",
				"delegates(address)": "infinite",
				"eip712Domain()": "infinite",
				"flashFee(address,uint256)": "infinite",
				"flashLoan(address,address,uint256,bytes)": "infinite",
				"getPastTotalSupply(uint256)": "infinite",
				"getPastVotes(address,uint256)": "infinite",
				"getVotes(address)": "7419",
				"increaseAllowance(address,uint256)": "infinite",
				"maxFlashLoan(address)": "infinite",
				"mint(address,uint256)": "infinite",
				"name()": "infinite",
				"nonces(address)": "2966",
				"numCheckpoints(address)": "3110",
				"owner()": "2560",
				"pause()": "infinite",
				"paused()": "2569",
				"permit(address,address,uint256,uint256,uint8,bytes32,bytes32)": "infinite",
				"renounceOwnership()": "30436",
				"snapshot()": "30223",
				"symbol()": "infinite",
				"totalSupply()": "2523",
				"totalSupplyAt(uint256)": "infinite",
				"transfer(address,uint256)": "infinite",
				"transferFrom(address,address,uint256)": "infinite",
				"transferOwnership(address)": "30863",
				"unpause()": "infinite"
			},
			"internal": {
				"_afterTokenTransfer(address,address,uint256)": "infinite",
				"_beforeTokenTransfer(address,address,uint256)": "infinite",
				"_burn(address,uint256)": "infinite",
				"_mint(address,uint256)": "infinite"
			}
		},
		"methodIdentifiers": {
			"CLOCK_MODE()": "4bf5d7e9",
			"DOMAIN_SEPARATOR()": "3644e515",
			"allowance(address,address)": "dd62ed3e",
			"approve(address,uint256)": "095ea7b3",
			"balanceOf(address)": "70a08231",
			"balanceOfAt(address,uint256)": "4ee2cd7e",
			"burn(uint256)": "42966c68",
			"burnFrom(address,uint256)": "79cc6790",
			"checkpoints(address,uint32)": "f1127ed8",
			"clock()": "91ddadf4",
			"decimals()": "313ce567",
			"decreaseAllowance(address,uint256)": "a457c2d7",
			"delegate(address)": "5c19a95c",
			"delegateBySig(address,uint256,uint256,uint8,bytes32,bytes32)": "c3cda520",
			"delegates(address)": "587cde1e",
			"eip712Domain()": "84b0196e",
			"flashFee(address,uint256)": "d9d98ce4",
			"flashLoan(address,address,uint256,bytes)": "5cffe9de",
			"getPastTotalSupply(uint256)": "8e539e8c",
			"getPastVotes(address,uint256)": "3a46b1a8",
			"getVotes(address)": "9ab24eb0",
			"increaseAllowance(address,uint256)": "39509351",
			"maxFlashLoan(address)": "613255ab",
			"mint(address,uint256)": "40c10f19",
			"name()": "06fdde03",
			"nonces(address)": "7ecebe00",
			"numCheckpoints(address)": "6fcfff45",
			"owner()": "8da5cb5b",
			"pause()": "8456cb59",
			"paused()": "5c975abb",
			"permit(address,address,uint256,uint256,uint8,bytes32,bytes32)": "d505accf",
			"renounceOwnership()": "715018a6",
			"snapshot()": "9711715a",
			"symbol()": "95d89b41",
			"totalSupply()": "18160ddd",
			"totalSupplyAt(uint256)": "981b24d0",
			"transfer(address,uint256)": "a9059cbb",
			"transferFrom(address,address,uint256)": "23b872dd",
			"transferOwnership(address)": "f2fde38b",
			"unpause()": "3f4ba83a"
		}
	},
	"abi": [
		{
			"inputs": [],
			"stateMutability": "nonpayable",
			"type": "constructor"
		},
		{
			"inputs": [],
			"name": "InvalidShortString",
			"type": "error"
		},
		{
			"inputs": [
				{
					"internalType": "string",
					"name": "str",
					"type": "string"
				}
			],
			"name": "StringTooLong",
			"type": "error"
		},
		{
			"anonymous": false,
			"inputs": [
				{
					"indexed": true,
					"internalType": "address",
					"name": "owner",
					"type": "address"
				},
				{
					"indexed": true,
					"internalType": "address",
					"name": "spender",
					"type": "address"
				},
				{
					"indexed": false,
					"internalType": "uint256",
					"name": "value",
					"type": "uint256"
				}
			],
			"name": "Approval",
			"type": "event"
		},
		{
			"anonymous": false,
			"inputs": [
				{
					"indexed": true,
					"internalType": "address",
					"name": "delegator",
					"type": "address"
				},
				{
					"indexed": true,
					"internalType": "address",
					"name": "fromDelegate",
					"type": "address"
				},
				{
					"indexed": true,
					"internalType": "address",
					"name": "toDelegate",
					"type": "address"
				}
			],
			"name": "DelegateChanged",
			"type": "event"
		},
		{
			"anonymous": false,
			"inputs": [
				{
					"indexed": true,
					"internalType": "address",
					"name": "delegate",
					"type": "address"
				},
				{
					"indexed": false,
					"internalType": "uint256",
					"name": "previousBalance",
					"type": "uint256"
				},
				{
					"indexed": false,
					"internalType": "uint256",
					"name": "newBalance",
					"type": "uint256"
				}
			],
			"name": "DelegateVotesChanged",
			"type": "event"
		},
		{
			"anonymous": false,
			"inputs": [],
			"name": "EIP712DomainChanged",
			"type": "event"
		},
		{
			"anonymous": false,
			"inputs": [
				{
					"indexed": true,
					"internalType": "address",
					"name": "previousOwner",
					"type": "address"
				},
				{
					"indexed": true,
					"internalType": "address",
					"name": "newOwner",
					"type": "address"
				}
			],
			"name": "OwnershipTransferred",
			"type": "event"
		},
		{
			"anonymous": false,
			"inputs": [
				{
					"indexed": false,
					"internalType": "address",
					"name": "account",
					"type": "address"
				}
			],
			"name": "Paused",
			"type": "event"
		},
		{
			"anonymous": false,
			"inputs": [
				{
					"indexed": false,
					"internalType": "uint256",
					"name": "id",
					"type": "uint256"
				}
			],
			"name": "Snapshot",
			"type": "event"
		},
		{
			"anonymous": false,
			"inputs": [
				{
					"indexed": true,
					"internalType": "address",
					"name": "from",
					"type": "address"
				},
				{
					"indexed": true,
					"internalType": "address",
					"name": "to",
					"type": "address"
				},
				{
					"indexed": false,
					"internalType": "uint256",
					"name": "value",
					"type": "uint256"
				}
			],
			"name": "Transfer",
			"type": "event"
		},
		{
			"anonymous": false,
			"inputs": [
				{
					"indexed": false,
					"internalType": "address",
					"name": "account",
					"type": "address"
				}
			],
			"name": "Unpaused",
			"type": "event"
		},
		{
			"inputs": [],
			"name": "CLOCK_MODE",
			"outputs": [
				{
					"internalType": "string",
					"name": "",
					"type": "string"
				}
			],
			"stateMutability": "view",
			"type": "function"
		},
		{
			"inputs": [],
			"name": "DOMAIN_SEPARATOR",
			"outputs": [
				{
					"internalType": "bytes32",
					"name": "",
					"type": "bytes32"
				}
			],
			"stateMutability": "view",
			"type": "function"
		},
		{
			"inputs": [
				{
					"internalType": "address",
					"name": "owner",
					"type": "address"
				},
				{
					"internalType": "address",
					"name": "spender",
					"type": "address"
				}
			],
			"name": "allowance",
			"outputs": [
				{
					"internalType": "uint256",
					"name": "",
					"type": "uint256"
				}
			],
			"stateMutability": "view",
			"type": "function"
		},
		{
			"inputs": [
				{
					"internalType": "address",
					"name": "spender",
					"type": "address"
				},
				{
					"internalType": "uint256",
					"name": "amount",
					"type": "uint256"
				}
			],
			"name": "approve",
			"outputs": [
				{
					"internalType": "bool",
					"name": "",
					"type": "bool"
				}
			],
			"stateMutability": "nonpayable",
			"type": "function"
		},
		{
			"inputs": [
				{
					"internalType": "address",
					"name": "account",
					"type": "address"
				}
			],
			"name": "balanceOf",
			"outputs": [
				{
					"internalType": "uint256",
					"name": "",
					"type": "uint256"
				}
			],
			"stateMutability": "view",
			"type": "function"
		},
		{
			"inputs": [
				{
					"internalType": "address",
					"name": "account",
					"type": "address"
				},
				{
					"internalType": "uint256",
					"name": "snapshotId",
					"type": "uint256"
				}
			],
			"name": "balanceOfAt",
			"outputs": [
				{
					"internalType": "uint256",
					"name": "",
					"type": "uint256"
				}
			],
			"stateMutability": "view",
			"type": "function"
		},
		{
			"inputs": [
				{
					"internalType": "uint256",
					"name": "amount",
					"type": "uint256"
				}
			],
			"name": "burn",
			"outputs": [],
			"stateMutability": "nonpayable",
			"type": "function"
		},
		{
			"inputs": [
				{
					"internalType": "address",
					"name": "account",
					"type": "address"
				},
				{
					"internalType": "uint256",
					"name": "amount",
					"type": "uint256"
				}
			],
			"name": "burnFrom",
			"outputs": [],
			"stateMutability": "nonpayable",
			"type": "function"
		},
		{
			"inputs": [
				{
					"internalType": "address",
					"name": "account",
					"type": "address"
				},
				{
					"internalType": "uint32",
					"name": "pos",
					"type": "uint32"
				}
			],
			"name": "checkpoints",
			"outputs": [
				{
					"components": [
						{
							"internalType": "uint32",
							"name": "fromBlock",
							"type": "uint32"
						},
						{
							"internalType": "uint224",
							"name": "votes",
							"type": "uint224"
						}
					],
					"internalType": "struct ERC20Votes.Checkpoint",
					"name": "",
					"type": "tuple"
				}
			],
			"stateMutability": "view",
			"type": "function"
		},
		{
			"inputs": [],
			"name": "clock",
			"outputs": [
				{
					"internalType": "uint48",
					"name": "",
					"type": "uint48"
				}
			],
			"stateMutability": "view",
			"type": "function"
		},
		{
			"inputs": [],
			"name": "decimals",
			"outputs": [
				{
					"internalType": "uint8",
					"name": "",
					"type": "uint8"
				}
			],
			"stateMutability": "view",
			"type": "function"
		},
		{
			"inputs": [
				{
					"internalType": "address",
					"name": "spender",
					"type": "address"
				},
				{
					"internalType": "uint256",
					"name": "subtractedValue",
					"type": "uint256"
				}
			],
			"name": "decreaseAllowance",
			"outputs": [
				{
					"internalType": "bool",
					"name": "",
					"type": "bool"
				}
			],
			"stateMutability": "nonpayable",
			"type": "function"
		},
		{
			"inputs": [
				{
					"internalType": "address",
					"name": "delegatee",
					"type": "address"
				}
			],
			"name": "delegate",
			"outputs": [],
			"stateMutability": "nonpayable",
			"type": "function"
		},
		{
			"inputs": [
				{
					"internalType": "address",
					"name": "delegatee",
					"type": "address"
				},
				{
					"internalType": "uint256",
					"name": "nonce",
					"type": "uint256"
				},
				{
					"internalType": "uint256",
					"name": "expiry",
					"type": "uint256"
				},
				{
					"internalType": "uint8",
					"name": "v",
					"type": "uint8"
				},
				{
					"internalType": "bytes32",
					"name": "r",
					"type": "bytes32"
				},
				{
					"internalType": "bytes32",
					"name": "s",
					"type": "bytes32"
				}
			],
			"name": "delegateBySig",
			"outputs": [],
			"stateMutability": "nonpayable",
			"type": "function"
		},
		{
			"inputs": [
				{
					"internalType": "address",
					"name": "account",
					"type": "address"
				}
			],
			"name": "delegates",
			"outputs": [
				{
					"internalType": "address",
					"name": "",
					"type": "address"
				}
			],
			"stateMutability": "view",
			"type": "function"
		},
		{
			"inputs": [],
			"name": "eip712Domain",
			"outputs": [
				{
					"internalType": "bytes1",
					"name": "fields",
					"type": "bytes1"
				},
				{
					"internalType": "string",
					"name": "name",
					"type": "string"
				},
				{
					"internalType": "string",
					"name": "version",
					"type": "string"
				},
				{
					"internalType": "uint256",
					"name": "chainId",
					"type": "uint256"
				},
				{
					"internalType": "address",
					"name": "verifyingContract",
					"type": "address"
				},
				{
					"internalType": "bytes32",
					"name": "salt",
					"type": "bytes32"
				},
				{
					"internalType": "uint256[]",
					"name": "extensions",
					"type": "uint256[]"
				}
			],
			"stateMutability": "view",
			"type": "function"
		},
		{
			"inputs": [
				{
					"internalType": "address",
					"name": "token",
					"type": "address"
				},
				{
					"internalType": "uint256",
					"name": "amount",
					"type": "uint256"
				}
			],
			"name": "flashFee",
			"outputs": [
				{
					"internalType": "uint256",
					"name": "",
					"type": "uint256"
				}
			],
			"stateMutability": "view",
			"type": "function"
		},
		{
			"inputs": [
				{
					"internalType": "contract IERC3156FlashBorrower",
					"name": "receiver",
					"type": "address"
				},
				{
					"internalType": "address",
					"name": "token",
					"type": "address"
				},
				{
					"internalType": "uint256",
					"name": "amount",
					"type": "uint256"
				},
				{
					"internalType": "bytes",
					"name": "data",
					"type": "bytes"
				}
			],
			"name": "flashLoan",
			"outputs": [
				{
					"internalType": "bool",
					"name": "",
					"type": "bool"
				}
			],
			"stateMutability": "nonpayable",
			"type": "function"
		},
		{
			"inputs": [
				{
					"internalType": "uint256",
					"name": "timepoint",
					"type": "uint256"
				}
			],
			"name": "getPastTotalSupply",
			"outputs": [
				{
					"internalType": "uint256",
					"name": "",
					"type": "uint256"
				}
			],
			"stateMutability": "view",
			"type": "function"
		},
		{
			"inputs": [
				{
					"internalType": "address",
					"name": "account",
					"type": "address"
				},
				{
					"internalType": "uint256",
					"name": "timepoint",
					"type": "uint256"
				}
			],
			"name": "getPastVotes",
			"outputs": [
				{
					"internalType": "uint256",
					"name": "",
					"type": "uint256"
				}
			],
			"stateMutability": "view",
			"type": "function"
		},
		{
			"inputs": [
				{
					"internalType": "address",
					"name": "account",
					"type": "address"
				}
			],
			"name": "getVotes",
			"outputs": [
				{
					"internalType": "uint256",
					"name": "",
					"type": "uint256"
				}
			],
			"stateMutability": "view",
			"type": "function"
		},
		{
			"inputs": [
				{
					"internalType": "address",
					"name": "spender",
					"type": "address"
				},
				{
					"internalType": "uint256",
					"name": "addedValue",
					"type": "uint256"
				}
			],
			"name": "increaseAllowance",
			"outputs": [
				{
					"internalType": "bool",
					"name": "",
					"type": "bool"
				}
			],
			"stateMutability": "nonpayable",
			"type": "function"
		},
		{
			"inputs": [
				{
					"internalType": "address",
					"name": "token",
					"type": "address"
				}
			],
			"name": "maxFlashLoan",
			"outputs": [
				{
					"internalType": "uint256",
					"name": "",
					"type": "uint256"
				}
			],
			"stateMutability": "view",
			"type": "function"
		},
		{
			"inputs": [
				{
					"internalType": "address",
					"name": "to",
					"type": "address"
				},
				{
					"internalType": "uint256",
					"name": "amount",
					"type": "uint256"
				}
			],
			"name": "mint",
			"outputs": [],
			"stateMutability": "nonpayable",
			"type": "function"
		},
		{
			"inputs": [],
			"name": "name",
			"outputs": [
				{
					"internalType": "string",
					"name": "",
					"type": "string"
				}
			],
			"stateMutability": "view",
			"type": "function"
		},
		{
			"inputs": [
				{
					"internalType": "address",
					"name": "owner",
					"type": "address"
				}
			],
			"name": "nonces",
			"outputs": [
				{
					"internalType": "uint256",
					"name": "",
					"type": "uint256"
				}
			],
			"stateMutability": "view",
			"type": "function"
		},
		{
			"inputs": [
				{
					"internalType": "address",
					"name": "account",
					"type": "address"
				}
			],
			"name": "numCheckpoints",
			"outputs": [
				{
					"internalType": "uint32",
					"name": "",
					"type": "uint32"
				}
			],
			"stateMutability": "view",
			"type": "function"
		},
		{
			"inputs": [],
			"name": "owner",
			"outputs": [
				{
					"internalType": "address",
					"name": "",
					"type": "address"
				}
			],
			"stateMutability": "view",
			"type": "function"
		},
		{
			"inputs": [],
			"name": "pause",
			"outputs": [],
			"stateMutability": "nonpayable",
			"type": "function"
		},
		{
			"inputs": [],
			"name": "paused",
			"outputs": [
				{
					"internalType": "bool",
					"name": "",
					"type": "bool"
				}
			],
			"stateMutability": "view",
			"type": "function"
		},
		{
			"inputs": [
				{
					"internalType": "address",
					"name": "owner",
					"type": "address"
				},
				{
					"internalType": "address",
					"name": "spender",
					"type": "address"
				},
				{
					"internalType": "uint256",
					"name": "value",
					"type": "uint256"
				},
				{
					"internalType": "uint256",
					"name": "deadline",
					"type": "uint256"
				},
				{
					"internalType": "uint8",
					"name": "v",
					"type": "uint8"
				},
				{
					"internalType": "bytes32",
					"name": "r",
					"type": "bytes32"
				},
				{
					"internalType": "bytes32",
					"name": "s",
					"type": "bytes32"
				}
			],
			"name": "permit",
			"outputs": [],
			"stateMutability": "nonpayable",
			"type": "function"
		},
		{
			"inputs": [],
			"name": "renounceOwnership",
			"outputs": [],
			"stateMutability": "nonpayable",
			"type": "function"
		},
		{
			"inputs": [],
			"name": "snapshot",
			"outputs": [],
			"stateMutability": "nonpayable",
			"type": "function"
		},
		{
			"inputs": [],
			"name": "symbol",
			"outputs": [
				{
					"internalType": "string",
					"name": "",
					"type": "string"
				}
			],
			"stateMutability": "view",
			"type": "function"
		},
		{
			"inputs": [],
			"name": "totalSupply",
			"outputs": [
				{
					"internalType": "uint256",
					"name": "",
					"type": "uint256"
				}
			],
			"stateMutability": "view",
			"type": "function"
		},
		{
			"inputs": [
				{
					"internalType": "uint256",
					"name": "snapshotId",
					"type": "uint256"
				}
			],
			"name": "totalSupplyAt",
			"outputs": [
				{
					"internalType": "uint256",
					"name": "",
					"type": "uint256"
				}
			],
			"stateMutability": "view",
			"type": "function"
		},
		{
			"inputs": [
				{
					"internalType": "address",
					"name": "to",
					"type": "address"
				},
				{
					"internalType": "uint256",
					"name": "amount",
					"type": "uint256"
				}
			],
			"name": "transfer",
			"outputs": [
				{
					"internalType": "bool",
					"name": "",
					"type": "bool"
				}
			],
			"stateMutability": "nonpayable",
			"type": "function"
		},
		{
			"inputs": [
				{
					"internalType": "address",
					"name": "from",
					"type": "address"
				},
				{
					"internalType": "address",
					"name": "to",
					"type": "address"
				},
				{
					"internalType": "uint256",
					"name": "amount",
					"type": "uint256"
				}
			],
			"name": "transferFrom",
			"outputs": [
				{
					"internalType": "bool",
					"name": "",
					"type": "bool"
				}
			],
			"stateMutability": "nonpayable",
			"type": "function"
		},
		{
			"inputs": [
				{
					"internalType": "address",
					"name": "newOwner",
					"type": "address"
				}
			],
			"name": "transferOwnership",
			"outputs": [],
			"stateMutability": "nonpayable",
			"type": "function"
		},
		{
			"inputs": [],
			"name": "unpause",
			"outputs": [],
			"stateMutability": "nonpayable",
			"type": "function"
		}
	]
}